{
	"contracts/homework/act3/1.inheritance/inheritance.sol": {
		"ElectricCar": {
			"abi": [
				{
					"inputs": [],
					"name": "batteryLevel",
					"outputs": [
						{
							"internalType": "uint8",
							"name": "",
							"type": "uint8"
						}
					],
					"stateMutability": "view",
					"type": "function"
				},
				{
					"inputs": [],
					"name": "drive",
					"outputs": [],
					"stateMutability": "nonpayable",
					"type": "function"
				},
				{
					"inputs": [],
					"name": "speed",
					"outputs": [
						{
							"internalType": "uint16",
							"name": "",
							"type": "uint16"
						}
					],
					"stateMutability": "view",
					"type": "function"
				}
			],
			"devdoc": {
				"kind": "dev",
				"methods": {},
				"version": 1
			},
			"evm": {
				"assembly": "    /* \"contracts/homework/act3/1.inheritance/inheritance.sol\":187:321  contract ElectricCar is Car {... */\n  mstore(0x40, 0x80)\n  callvalue\n  dup1\n  iszero\n  tag_1\n  jumpi\n  0x00\n  dup1\n  revert\ntag_1:\n  pop\n  dataSize(sub_0)\n  dup1\n  dataOffset(sub_0)\n  0x00\n  codecopy\n  0x00\n  return\nstop\n\nsub_0: assembly {\n        /* \"contracts/homework/act3/1.inheritance/inheritance.sol\":187:321  contract ElectricCar is Car {... */\n      mstore(0x40, 0x80)\n      callvalue\n      dup1\n      iszero\n      tag_1\n      jumpi\n      0x00\n      dup1\n      revert\n    tag_1:\n      pop\n      jumpi(tag_2, lt(calldatasize, 0x04))\n      shr(0xe0, calldataload(0x00))\n      dup1\n      0x9d822510\n      eq\n      tag_3\n      jumpi\n      dup1\n      0xa54580f2\n      eq\n      tag_4\n      jumpi\n      dup1\n      0xc20906ac\n      eq\n      tag_5\n      jumpi\n    tag_2:\n      0x00\n      dup1\n      revert\n        /* \"contracts/homework/act3/1.inheritance/inheritance.sol\":222:247  uint8 public batteryLevel */\n    tag_3:\n      tag_6\n      tag_7\n      jump\t// in\n    tag_6:\n      mload(0x40)\n      tag_8\n      swap2\n      swap1\n      tag_9\n      jump\t// in\n    tag_8:\n      mload(0x40)\n      dup1\n      swap2\n      sub\n      swap1\n      return\n        /* \"contracts/homework/act3/1.inheritance/inheritance.sol\":254:318  function drive() public override {... */\n    tag_4:\n      tag_10\n      tag_11\n      jump\t// in\n    tag_10:\n      stop\n        /* \"contracts/homework/act3/1.inheritance/inheritance.sol\":76:95  uint16 public speed */\n    tag_5:\n      tag_12\n      tag_13\n      jump\t// in\n    tag_12:\n      mload(0x40)\n      tag_14\n      swap2\n      swap1\n      tag_15\n      jump\t// in\n    tag_14:\n      mload(0x40)\n      dup1\n      swap2\n      sub\n      swap1\n      return\n        /* \"contracts/homework/act3/1.inheritance/inheritance.sol\":222:247  uint8 public batteryLevel */\n    tag_7:\n      0x00\n      0x02\n      swap1\n      sload\n      swap1\n      0x0100\n      exp\n      swap1\n      div\n      0xff\n      and\n      dup2\n      jump\t// out\n        /* \"contracts/homework/act3/1.inheritance/inheritance.sol\":254:318  function drive() public override {... */\n    tag_11:\n        /* \"contracts/homework/act3/1.inheritance/inheritance.sol\":297:309  batteryLevel */\n      0x00\n      0x02\n        /* \"contracts/homework/act3/1.inheritance/inheritance.sol\":297:311  batteryLevel++ */\n      dup2\n      dup2\n      swap1\n      sload\n      swap1\n      0x0100\n      exp\n      swap1\n      div\n      0xff\n      and\n      dup1\n      swap3\n      swap2\n      swap1\n      tag_17\n      swap1\n      tag_18\n      jump\t// in\n    tag_17:\n      swap2\n      swap1\n      0x0100\n      exp\n      dup2\n      sload\n      dup2\n      0xff\n      mul\n      not\n      and\n      swap1\n      dup4\n      0xff\n      and\n      mul\n      or\n      swap1\n      sstore\n      pop\n      pop\n        /* \"contracts/homework/act3/1.inheritance/inheritance.sol\":254:318  function drive() public override {... */\n      jump\t// out\n        /* \"contracts/homework/act3/1.inheritance/inheritance.sol\":76:95  uint16 public speed */\n    tag_13:\n      0x00\n      dup1\n      sload\n      swap1\n      0x0100\n      exp\n      swap1\n      div\n      0xffff\n      and\n      dup2\n      jump\t// out\n        /* \"#utility.yul\":7:93   */\n    tag_19:\n        /* \"#utility.yul\":42:49   */\n      0x00\n        /* \"#utility.yul\":82:86   */\n      0xff\n        /* \"#utility.yul\":75:80   */\n      dup3\n        /* \"#utility.yul\":71:87   */\n      and\n        /* \"#utility.yul\":60:87   */\n      swap1\n      pop\n        /* \"#utility.yul\":7:93   */\n      swap2\n      swap1\n      pop\n      jump\t// out\n        /* \"#utility.yul\":99:211   */\n    tag_20:\n        /* \"#utility.yul\":182:204   */\n      tag_27\n        /* \"#utility.yul\":198:203   */\n      dup2\n        /* \"#utility.yul\":182:204   */\n      tag_19\n      jump\t// in\n    tag_27:\n        /* \"#utility.yul\":177:180   */\n      dup3\n        /* \"#utility.yul\":170:205   */\n      mstore\n        /* \"#utility.yul\":99:211   */\n      pop\n      pop\n      jump\t// out\n        /* \"#utility.yul\":217:431   */\n    tag_9:\n        /* \"#utility.yul\":306:310   */\n      0x00\n        /* \"#utility.yul\":344:346   */\n      0x20\n        /* \"#utility.yul\":333:342   */\n      dup3\n        /* \"#utility.yul\":329:347   */\n      add\n        /* \"#utility.yul\":321:347   */\n      swap1\n      pop\n        /* \"#utility.yul\":357:424   */\n      tag_29\n        /* \"#utility.yul\":421:422   */\n      0x00\n        /* \"#utility.yul\":410:419   */\n      dup4\n        /* \"#utility.yul\":406:423   */\n      add\n        /* \"#utility.yul\":397:403   */\n      dup5\n        /* \"#utility.yul\":357:424   */\n      tag_20\n      jump\t// in\n    tag_29:\n        /* \"#utility.yul\":217:431   */\n      swap3\n      swap2\n      pop\n      pop\n      jump\t// out\n        /* \"#utility.yul\":437:526   */\n    tag_21:\n        /* \"#utility.yul\":473:480   */\n      0x00\n        /* \"#utility.yul\":513:519   */\n      0xffff\n        /* \"#utility.yul\":506:511   */\n      dup3\n        /* \"#utility.yul\":502:520   */\n      and\n        /* \"#utility.yul\":491:520   */\n      swap1\n      pop\n        /* \"#utility.yul\":437:526   */\n      swap2\n      swap1\n      pop\n      jump\t// out\n        /* \"#utility.yul\":532:647   */\n    tag_22:\n        /* \"#utility.yul\":617:640   */\n      tag_32\n        /* \"#utility.yul\":634:639   */\n      dup2\n        /* \"#utility.yul\":617:640   */\n      tag_21\n      jump\t// in\n    tag_32:\n        /* \"#utility.yul\":612:615   */\n      dup3\n        /* \"#utility.yul\":605:641   */\n      mstore\n        /* \"#utility.yul\":532:647   */\n      pop\n      pop\n      jump\t// out\n        /* \"#utility.yul\":653:871   */\n    tag_15:\n        /* \"#utility.yul\":744:748   */\n      0x00\n        /* \"#utility.yul\":782:784   */\n      0x20\n        /* \"#utility.yul\":771:780   */\n      dup3\n        /* \"#utility.yul\":767:785   */\n      add\n        /* \"#utility.yul\":759:785   */\n      swap1\n      pop\n        /* \"#utility.yul\":795:864   */\n      tag_34\n        /* \"#utility.yul\":861:862   */\n      0x00\n        /* \"#utility.yul\":850:859   */\n      dup4\n        /* \"#utility.yul\":846:863   */\n      add\n        /* \"#utility.yul\":837:843   */\n      dup5\n        /* \"#utility.yul\":795:864   */\n      tag_22\n      jump\t// in\n    tag_34:\n        /* \"#utility.yul\":653:871   */\n      swap3\n      swap2\n      pop\n      pop\n      jump\t// out\n        /* \"#utility.yul\":877:1057   */\n    tag_23:\n        /* \"#utility.yul\":925:1002   */\n      0x4e487b7100000000000000000000000000000000000000000000000000000000\n        /* \"#utility.yul\":922:923   */\n      0x00\n        /* \"#utility.yul\":915:1003   */\n      mstore\n        /* \"#utility.yul\":1022:1026   */\n      0x11\n        /* \"#utility.yul\":1019:1020   */\n      0x04\n        /* \"#utility.yul\":1012:1027   */\n      mstore\n        /* \"#utility.yul\":1046:1050   */\n      0x24\n        /* \"#utility.yul\":1043:1044   */\n      0x00\n        /* \"#utility.yul\":1036:1051   */\n      revert\n        /* \"#utility.yul\":1063:1230   */\n    tag_18:\n        /* \"#utility.yul\":1100:1103   */\n      0x00\n        /* \"#utility.yul\":1123:1145   */\n      tag_37\n        /* \"#utility.yul\":1139:1144   */\n      dup3\n        /* \"#utility.yul\":1123:1145   */\n      tag_19\n      jump\t// in\n    tag_37:\n        /* \"#utility.yul\":1114:1145   */\n      swap2\n      pop\n        /* \"#utility.yul\":1167:1171   */\n      0xff\n        /* \"#utility.yul\":1160:1165   */\n      dup3\n        /* \"#utility.yul\":1157:1172   */\n      sub\n        /* \"#utility.yul\":1154:1195   */\n      tag_38\n      jumpi\n        /* \"#utility.yul\":1175:1193   */\n      tag_39\n      tag_23\n      jump\t// in\n    tag_39:\n        /* \"#utility.yul\":1154:1195   */\n    tag_38:\n        /* \"#utility.yul\":1222:1223   */\n      0x01\n        /* \"#utility.yul\":1215:1220   */\n      dup3\n        /* \"#utility.yul\":1211:1224   */\n      add\n        /* \"#utility.yul\":1204:1224   */\n      swap1\n      pop\n        /* \"#utility.yul\":1063:1230   */\n      swap2\n      swap1\n      pop\n      jump\t// out\n\n    auxdata: 0xa26469706673582212208e7264c70d39a68ad4a9e8def491034811cca193f58b16e6cd5a6762e1c7aa5964736f6c63430008140033\n}\n",
				"bytecode": {
					"linkReferences": {},
					"object": "608060405234801561000f575f80fd5b506101d98061001d5f395ff3fe608060405234801561000f575f80fd5b506004361061003f575f3560e01c80639d82251014610043578063a54580f214610061578063c20906ac1461006b575b5f80fd5b61004b610089565b6040516100589190610100565b60405180910390f35b61006961009b565b005b6100736100d4565b6040516100809190610135565b60405180910390f35b5f60029054906101000a900460ff1681565b5f600281819054906101000a900460ff16809291906100b99061017b565b91906101000a81548160ff021916908360ff16021790555050565b5f8054906101000a900461ffff1681565b5f60ff82169050919050565b6100fa816100e5565b82525050565b5f6020820190506101135f8301846100f1565b92915050565b5f61ffff82169050919050565b61012f81610119565b82525050565b5f6020820190506101485f830184610126565b92915050565b7f4e487b71000000000000000000000000000000000000000000000000000000005f52601160045260245ffd5b5f610185826100e5565b915060ff82036101985761019761014e565b5b60018201905091905056fea26469706673582212208e7264c70d39a68ad4a9e8def491034811cca193f58b16e6cd5a6762e1c7aa5964736f6c63430008140033",
					"opcodes": "PUSH1 0x80 PUSH1 0x40 MSTORE CALLVALUE DUP1 ISZERO PUSH2 0xF JUMPI PUSH0 DUP1 REVERT JUMPDEST POP PUSH2 0x1D9 DUP1 PUSH2 0x1D PUSH0 CODECOPY PUSH0 RETURN INVALID PUSH1 0x80 PUSH1 0x40 MSTORE CALLVALUE DUP1 ISZERO PUSH2 0xF JUMPI PUSH0 DUP1 REVERT JUMPDEST POP PUSH1 0x4 CALLDATASIZE LT PUSH2 0x3F JUMPI PUSH0 CALLDATALOAD PUSH1 0xE0 SHR DUP1 PUSH4 0x9D822510 EQ PUSH2 0x43 JUMPI DUP1 PUSH4 0xA54580F2 EQ PUSH2 0x61 JUMPI DUP1 PUSH4 0xC20906AC EQ PUSH2 0x6B JUMPI JUMPDEST PUSH0 DUP1 REVERT JUMPDEST PUSH2 0x4B PUSH2 0x89 JUMP JUMPDEST PUSH1 0x40 MLOAD PUSH2 0x58 SWAP2 SWAP1 PUSH2 0x100 JUMP JUMPDEST PUSH1 0x40 MLOAD DUP1 SWAP2 SUB SWAP1 RETURN JUMPDEST PUSH2 0x69 PUSH2 0x9B JUMP JUMPDEST STOP JUMPDEST PUSH2 0x73 PUSH2 0xD4 JUMP JUMPDEST PUSH1 0x40 MLOAD PUSH2 0x80 SWAP2 SWAP1 PUSH2 0x135 JUMP JUMPDEST PUSH1 0x40 MLOAD DUP1 SWAP2 SUB SWAP1 RETURN JUMPDEST PUSH0 PUSH1 0x2 SWAP1 SLOAD SWAP1 PUSH2 0x100 EXP SWAP1 DIV PUSH1 0xFF AND DUP2 JUMP JUMPDEST PUSH0 PUSH1 0x2 DUP2 DUP2 SWAP1 SLOAD SWAP1 PUSH2 0x100 EXP SWAP1 DIV PUSH1 0xFF AND DUP1 SWAP3 SWAP2 SWAP1 PUSH2 0xB9 SWAP1 PUSH2 0x17B JUMP JUMPDEST SWAP2 SWAP1 PUSH2 0x100 EXP DUP2 SLOAD DUP2 PUSH1 0xFF MUL NOT AND SWAP1 DUP4 PUSH1 0xFF AND MUL OR SWAP1 SSTORE POP POP JUMP JUMPDEST PUSH0 DUP1 SLOAD SWAP1 PUSH2 0x100 EXP SWAP1 DIV PUSH2 0xFFFF AND DUP2 JUMP JUMPDEST PUSH0 PUSH1 0xFF DUP3 AND SWAP1 POP SWAP2 SWAP1 POP JUMP JUMPDEST PUSH2 0xFA DUP2 PUSH2 0xE5 JUMP JUMPDEST DUP3 MSTORE POP POP JUMP JUMPDEST PUSH0 PUSH1 0x20 DUP3 ADD SWAP1 POP PUSH2 0x113 PUSH0 DUP4 ADD DUP5 PUSH2 0xF1 JUMP JUMPDEST SWAP3 SWAP2 POP POP JUMP JUMPDEST PUSH0 PUSH2 0xFFFF DUP3 AND SWAP1 POP SWAP2 SWAP1 POP JUMP JUMPDEST PUSH2 0x12F DUP2 PUSH2 0x119 JUMP JUMPDEST DUP3 MSTORE POP POP JUMP JUMPDEST PUSH0 PUSH1 0x20 DUP3 ADD SWAP1 POP PUSH2 0x148 PUSH0 DUP4 ADD DUP5 PUSH2 0x126 JUMP JUMPDEST SWAP3 SWAP2 POP POP JUMP JUMPDEST PUSH32 0x4E487B7100000000000000000000000000000000000000000000000000000000 PUSH0 MSTORE PUSH1 0x11 PUSH1 0x4 MSTORE PUSH1 0x24 PUSH0 REVERT JUMPDEST PUSH0 PUSH2 0x185 DUP3 PUSH2 0xE5 JUMP JUMPDEST SWAP2 POP PUSH1 0xFF DUP3 SUB PUSH2 0x198 JUMPI PUSH2 0x197 PUSH2 0x14E JUMP JUMPDEST JUMPDEST PUSH1 0x1 DUP3 ADD SWAP1 POP SWAP2 SWAP1 POP JUMP INVALID LOG2 PUSH5 0x6970667358 0x22 SLT KECCAK256 DUP15 PUSH19 0x64C70D39A68AD4A9E8DEF491034811CCA193F5 DUP12 AND 0xE6 0xCD GAS PUSH8 0x62E1C7AA5964736F PUSH13 0x63430008140033000000000000 "
				},
				"gasEstimates": {
					"creation": {
						"codeDepositCost": "94600",
						"executionCost": "139",
						"totalCost": "94739"
					},
					"external": {
						"batteryLevel()": "2494",
						"drive()": "26795",
						"speed()": "2485"
					}
				},
				"methodIdentifiers": {
					"batteryLevel()": "9d822510",
					"drive()": "a54580f2",
					"speed()": "c20906ac"
				}
			},
			"storageLayout": {
				"storage": [
					{
						"astId": 3,
						"contract": "contracts/homework/act3/1.inheritance/inheritance.sol:ElectricCar",
						"label": "speed",
						"offset": 0,
						"slot": "0",
						"type": "t_uint16"
					},
					{
						"astId": 12,
						"contract": "contracts/homework/act3/1.inheritance/inheritance.sol:ElectricCar",
						"label": "batteryLevel",
						"offset": 2,
						"slot": "0",
						"type": "t_uint8"
					}
				],
				"types": {
					"t_uint16": {
						"encoding": "inplace",
						"label": "uint16",
						"numberOfBytes": "2"
					},
					"t_uint8": {
						"encoding": "inplace",
						"label": "uint8",
						"numberOfBytes": "1"
					}
				}
			},
			"userdoc": {
				"kind": "user",
				"methods": {},
				"version": 1
			}
		}
	}
}