{
	"contracts/sector.sol": {
		"FunctionSelectorExample": {
			"abi": [
				{
					"inputs": [
						{
							"internalType": "uint256",
							"name": "x",
							"type": "uint256"
						}
					],
					"name": "double",
					"outputs": [
						{
							"internalType": "uint256",
							"name": "z",
							"type": "uint256"
						}
					],
					"stateMutability": "pure",
					"type": "function"
				},
				{
					"inputs": [
						{
							"internalType": "bytes4",
							"name": "selector",
							"type": "bytes4"
						},
						{
							"internalType": "uint256",
							"name": "x",
							"type": "uint256"
						}
					],
					"name": "execute",
					"outputs": [
						{
							"internalType": "uint256",
							"name": "z",
							"type": "uint256"
						}
					],
					"stateMutability": "nonpayable",
					"type": "function"
				},
				{
					"inputs": [
						{
							"internalType": "uint256",
							"name": "x",
							"type": "uint256"
						}
					],
					"name": "getSelectorDouble",
					"outputs": [
						{
							"internalType": "bytes4",
							"name": "",
							"type": "bytes4"
						}
					],
					"stateMutability": "pure",
					"type": "function"
				},
				{
					"inputs": [
						{
							"internalType": "uint256",
							"name": "x",
							"type": "uint256"
						}
					],
					"name": "getSelectorSquare",
					"outputs": [
						{
							"internalType": "bytes4",
							"name": "",
							"type": "bytes4"
						}
					],
					"stateMutability": "pure",
					"type": "function"
				},
				{
					"inputs": [
						{
							"internalType": "uint256",
							"name": "x",
							"type": "uint256"
						}
					],
					"name": "square",
					"outputs": [
						{
							"internalType": "uint256",
							"name": "z",
							"type": "uint256"
						}
					],
					"stateMutability": "pure",
					"type": "function"
				}
			],
			"devdoc": {
				"kind": "dev",
				"methods": {},
				"version": 1
			},
			"evm": {
				"assembly": "    /* \"contracts/sector.sol\":57:1132  contract FunctionSelectorExample {... */\n  mstore(0x40, 0x80)\n  callvalue\n  dup1\n  iszero\n  tag_1\n  jumpi\n  0x00\n  dup1\n  revert\ntag_1:\n  pop\n  dataSize(sub_0)\n  dup1\n  dataOffset(sub_0)\n  0x00\n  codecopy\n  0x00\n  return\nstop\n\nsub_0: assembly {\n        /* \"contracts/sector.sol\":57:1132  contract FunctionSelectorExample {... */\n      mstore(0x40, 0x80)\n      callvalue\n      dup1\n      iszero\n      tag_1\n      jumpi\n      0x00\n      dup1\n      revert\n    tag_1:\n      pop\n      jumpi(tag_2, lt(calldatasize, 0x04))\n      shr(0xe0, calldataload(0x00))\n      dup1\n      0x0198929e\n      eq\n      tag_3\n      jumpi\n      dup1\n      0x58c4576d\n      eq\n      tag_4\n      jumpi\n      dup1\n      0x7b292909\n      eq\n      tag_5\n      jumpi\n      dup1\n      0x902c5198\n      eq\n      tag_6\n      jumpi\n      dup1\n      0xeee97206\n      eq\n      tag_7\n      jumpi\n    tag_2:\n      0x00\n      dup1\n      revert\n        /* \"contracts/sector.sol\":752:1130  function execute(bytes4 selector, uint x) external returns (uint z) {... */\n    tag_3:\n      tag_8\n      0x04\n      dup1\n      calldatasize\n      sub\n      dup2\n      add\n      swap1\n      tag_9\n      swap2\n      swap1\n      tag_10\n      jump\t// in\n    tag_9:\n      tag_11\n      jump\t// in\n    tag_8:\n      mload(0x40)\n      tag_12\n      swap2\n      swap1\n      tag_13\n      jump\t// in\n    tag_12:\n      mload(0x40)\n      dup1\n      swap2\n      sub\n      swap1\n      return\n        /* \"contracts/sector.sol\":437:545  function getSelectorSquare(uint x) public pure returns (bytes4) {... */\n    tag_4:\n      tag_14\n      0x04\n      dup1\n      calldatasize\n      sub\n      dup2\n      add\n      swap1\n      tag_15\n      swap2\n      swap1\n      tag_16\n      jump\t// in\n    tag_15:\n      tag_17\n      jump\t// in\n    tag_14:\n      mload(0x40)\n      tag_18\n      swap2\n      swap1\n      tag_19\n      jump\t// in\n    tag_18:\n      mload(0x40)\n      dup1\n      swap2\n      sub\n      swap1\n      return\n        /* \"contracts/sector.sol\":135:215  function square(uint x) public pure returns (uint z) {... */\n    tag_5:\n      tag_20\n      0x04\n      dup1\n      calldatasize\n      sub\n      dup2\n      add\n      swap1\n      tag_21\n      swap2\n      swap1\n      tag_16\n      jump\t// in\n    tag_21:\n      tag_22\n      jump\t// in\n    tag_20:\n      mload(0x40)\n      tag_23\n      swap2\n      swap1\n      tag_13\n      jump\t// in\n    tag_23:\n      mload(0x40)\n      dup1\n      swap2\n      sub\n      swap1\n      return\n        /* \"contracts/sector.sol\":622:746  function getSelectorDouble(uint x) public pure returns (bytes4) {... */\n    tag_6:\n      tag_24\n      0x04\n      dup1\n      calldatasize\n      sub\n      dup2\n      add\n      swap1\n      tag_25\n      swap2\n      swap1\n      tag_16\n      jump\t// in\n    tag_25:\n      tag_26\n      jump\t// in\n    tag_24:\n      mload(0x40)\n      tag_27\n      swap2\n      swap1\n      tag_19\n      jump\t// in\n    tag_27:\n      mload(0x40)\n      dup1\n      swap2\n      sub\n      swap1\n      return\n        /* \"contracts/sector.sol\":280:360  function double(uint x) public pure returns (uint z) {... */\n    tag_7:\n      tag_28\n      0x04\n      dup1\n      calldatasize\n      sub\n      dup2\n      add\n      swap1\n      tag_29\n      swap2\n      swap1\n      tag_16\n      jump\t// in\n    tag_29:\n      tag_30\n      jump\t// in\n    tag_28:\n      mload(0x40)\n      tag_31\n      swap2\n      swap1\n      tag_13\n      jump\t// in\n    tag_31:\n      mload(0x40)\n      dup1\n      swap2\n      sub\n      swap1\n      return\n        /* \"contracts/sector.sol\":752:1130  function execute(bytes4 selector, uint x) external returns (uint z) {... */\n    tag_11:\n        /* \"contracts/sector.sol\":812:818  uint z */\n      0x00\n        /* \"contracts/sector.sol\":883:895  bool success */\n      dup1\n        /* \"contracts/sector.sol\":897:914  bytes memory data */\n      0x00\n        /* \"contracts/sector.sol\":926:930  this */\n      address\n        /* \"contracts/sector.sol\":918:936  address(this).call */\n      0xffffffffffffffffffffffffffffffffffffffff\n      and\n        /* \"contracts/sector.sol\":960:968  selector */\n      dup6\n        /* \"contracts/sector.sol\":970:971  x */\n      dup6\n        /* \"contracts/sector.sol\":937:972  abi.encodeWithSelector(selector, x) */\n      add(0x24, mload(0x40))\n      tag_33\n      swap2\n      swap1\n      tag_13\n      jump\t// in\n    tag_33:\n      mload(0x40)\n      0x20\n      dup2\n      dup4\n      sub\n      sub\n      dup2\n      mstore\n      swap1\n      0x40\n      mstore\n      swap1\n      not(0xffffffffffffffffffffffffffffffffffffffffffffffffffffffff)\n      and\n      0x20\n      dup3\n      add\n      dup1\n      mload\n      0xffffffffffffffffffffffffffffffffffffffffffffffffffffffff\n      dup4\n      dup2\n      dup4\n      and\n      or\n      dup4\n      mstore\n      pop\n      pop\n      pop\n      pop\n        /* \"contracts/sector.sol\":918:973  address(this).call(abi.encodeWithSelector(selector, x)) */\n      mload(0x40)\n      tag_34\n      swap2\n      swap1\n      tag_35\n      jump\t// in\n    tag_34:\n      0x00\n      mload(0x40)\n      dup1\n      dup4\n      sub\n      dup2\n      0x00\n      dup7\n      gas\n      call\n      swap2\n      pop\n      pop\n      returndatasize\n      dup1\n      0x00\n      dup2\n      eq\n      tag_38\n      jumpi\n      mload(0x40)\n      swap2\n      pop\n      and(add(returndatasize, 0x3f), not(0x1f))\n      dup3\n      add\n      0x40\n      mstore\n      returndatasize\n      dup3\n      mstore\n      returndatasize\n      0x00\n      0x20\n      dup5\n      add\n      returndatacopy\n      jump(tag_37)\n    tag_38:\n      0x60\n      swap2\n      pop\n    tag_37:\n      pop\n        /* \"contracts/sector.sol\":882:973  (bool success, bytes memory data) = address(this).call(abi.encodeWithSelector(selector, x)) */\n      swap2\n      pop\n      swap2\n      pop\n        /* \"contracts/sector.sol\":991:998  success */\n      dup2\n        /* \"contracts/sector.sol\":983:1014  require(success, \"Call failed\") */\n      tag_39\n      jumpi\n      mload(0x40)\n      0x08c379a000000000000000000000000000000000000000000000000000000000\n      dup2\n      mstore\n      0x04\n      add\n      tag_40\n      swap1\n      tag_41\n      jump\t// in\n    tag_40:\n      mload(0x40)\n      dup1\n      swap2\n      sub\n      swap1\n      revert\n    tag_39:\n        /* \"contracts/sector.sol\":1111:1115  data */\n      dup1\n        /* \"contracts/sector.sol\":1100:1123  abi.decode(data,(uint)) */\n      dup1\n      0x20\n      add\n      swap1\n      mload\n      dup2\n      add\n      swap1\n      tag_42\n      swap2\n      swap1\n      tag_43\n      jump\t// in\n    tag_42:\n        /* \"contracts/sector.sol\":1096:1123  z = abi.decode(data,(uint)) */\n      swap3\n      pop\n        /* \"contracts/sector.sol\":820:1130  {... */\n      pop\n      pop\n        /* \"contracts/sector.sol\":752:1130  function execute(bytes4 selector, uint x) external returns (uint z) {... */\n      swap3\n      swap2\n      pop\n      pop\n      jump\t// out\n        /* \"contracts/sector.sol\":437:545  function getSelectorSquare(uint x) public pure returns (bytes4) {... */\n    tag_17:\n        /* \"contracts/sector.sol\":493:499  bytes4 */\n      0x00\n        /* \"contracts/sector.sol\":518:538  this.square.selector */\n      shl(0xe0, 0x7b292909)\n        /* \"contracts/sector.sol\":511:538  return this.square.selector */\n      swap1\n      pop\n        /* \"contracts/sector.sol\":437:545  function getSelectorSquare(uint x) public pure returns (bytes4) {... */\n      swap2\n      swap1\n      pop\n      jump\t// out\n        /* \"contracts/sector.sol\":135:215  function square(uint x) public pure returns (uint z) {... */\n    tag_22:\n        /* \"contracts/sector.sol\":180:186  uint z */\n      0x00\n        /* \"contracts/sector.sol\":207:208  x */\n      dup2\n        /* \"contracts/sector.sol\":205:206  x */\n      dup3\n        /* \"contracts/sector.sol\":205:208  x*x */\n      tag_46\n      swap2\n      swap1\n      tag_47\n      jump\t// in\n    tag_46:\n        /* \"contracts/sector.sol\":198:208  return x*x */\n      swap1\n      pop\n        /* \"contracts/sector.sol\":135:215  function square(uint x) public pure returns (uint z) {... */\n      swap2\n      swap1\n      pop\n      jump\t// out\n        /* \"contracts/sector.sol\":622:746  function getSelectorDouble(uint x) public pure returns (bytes4) {... */\n    tag_26:\n        /* \"contracts/sector.sol\":678:684  bytes4 */\n      0x00\n        /* \"contracts/sector.sol\":710:738  keccak256(\"double(uint256)\") */\n      0xeee972066698d890c32fec0edb38a360c32b71d0a29ffc75b6ab6d2774ec9901\n        /* \"contracts/sector.sol\":696:739  return bytes4(keccak256(\"double(uint256)\")) */\n      swap1\n      pop\n        /* \"contracts/sector.sol\":622:746  function getSelectorDouble(uint x) public pure returns (bytes4) {... */\n      swap2\n      swap1\n      pop\n      jump\t// out\n        /* \"contracts/sector.sol\":280:360  function double(uint x) public pure returns (uint z) {... */\n    tag_30:\n        /* \"contracts/sector.sol\":325:331  uint z */\n      0x00\n        /* \"contracts/sector.sol\":352:353  2 */\n      0x02\n        /* \"contracts/sector.sol\":350:351  x */\n      dup3\n        /* \"contracts/sector.sol\":350:353  x*2 */\n      tag_50\n      swap2\n      swap1\n      tag_47\n      jump\t// in\n    tag_50:\n        /* \"contracts/sector.sol\":343:353  return x*2 */\n      swap1\n      pop\n        /* \"contracts/sector.sol\":280:360  function double(uint x) public pure returns (uint z) {... */\n      swap2\n      swap1\n      pop\n      jump\t// out\n        /* \"#utility.yul\":88:205   */\n    tag_52:\n        /* \"#utility.yul\":197:198   */\n      0x00\n        /* \"#utility.yul\":194:195   */\n      dup1\n        /* \"#utility.yul\":187:199   */\n      revert\n        /* \"#utility.yul\":334:483   */\n    tag_54:\n        /* \"#utility.yul\":370:377   */\n      0x00\n        /* \"#utility.yul\":410:476   */\n      0xffffffff00000000000000000000000000000000000000000000000000000000\n        /* \"#utility.yul\":403:408   */\n      dup3\n        /* \"#utility.yul\":399:477   */\n      and\n        /* \"#utility.yul\":388:477   */\n      swap1\n      pop\n        /* \"#utility.yul\":334:483   */\n      swap2\n      swap1\n      pop\n      jump\t// out\n        /* \"#utility.yul\":489:609   */\n    tag_55:\n        /* \"#utility.yul\":561:584   */\n      tag_77\n        /* \"#utility.yul\":578:583   */\n      dup2\n        /* \"#utility.yul\":561:584   */\n      tag_54\n      jump\t// in\n    tag_77:\n        /* \"#utility.yul\":554:559   */\n      dup2\n        /* \"#utility.yul\":551:585   */\n      eq\n        /* \"#utility.yul\":541:603   */\n      tag_78\n      jumpi\n        /* \"#utility.yul\":599:600   */\n      0x00\n        /* \"#utility.yul\":596:597   */\n      dup1\n        /* \"#utility.yul\":589:601   */\n      revert\n        /* \"#utility.yul\":541:603   */\n    tag_78:\n        /* \"#utility.yul\":489:609   */\n      pop\n      jump\t// out\n        /* \"#utility.yul\":615:752   */\n    tag_56:\n        /* \"#utility.yul\":660:665   */\n      0x00\n        /* \"#utility.yul\":698:704   */\n      dup2\n        /* \"#utility.yul\":685:705   */\n      calldataload\n        /* \"#utility.yul\":676:705   */\n      swap1\n      pop\n        /* \"#utility.yul\":714:746   */\n      tag_80\n        /* \"#utility.yul\":740:745   */\n      dup2\n        /* \"#utility.yul\":714:746   */\n      tag_55\n      jump\t// in\n    tag_80:\n        /* \"#utility.yul\":615:752   */\n      swap3\n      swap2\n      pop\n      pop\n      jump\t// out\n        /* \"#utility.yul\":758:835   */\n    tag_57:\n        /* \"#utility.yul\":795:802   */\n      0x00\n        /* \"#utility.yul\":824:829   */\n      dup2\n        /* \"#utility.yul\":813:829   */\n      swap1\n      pop\n        /* \"#utility.yul\":758:835   */\n      swap2\n      swap1\n      pop\n      jump\t// out\n        /* \"#utility.yul\":841:963   */\n    tag_58:\n        /* \"#utility.yul\":914:938   */\n      tag_83\n        /* \"#utility.yul\":932:937   */\n      dup2\n        /* \"#utility.yul\":914:938   */\n      tag_57\n      jump\t// in\n    tag_83:\n        /* \"#utility.yul\":907:912   */\n      dup2\n        /* \"#utility.yul\":904:939   */\n      eq\n        /* \"#utility.yul\":894:957   */\n      tag_84\n      jumpi\n        /* \"#utility.yul\":953:954   */\n      0x00\n        /* \"#utility.yul\":950:951   */\n      dup1\n        /* \"#utility.yul\":943:955   */\n      revert\n        /* \"#utility.yul\":894:957   */\n    tag_84:\n        /* \"#utility.yul\":841:963   */\n      pop\n      jump\t// out\n        /* \"#utility.yul\":969:1108   */\n    tag_59:\n        /* \"#utility.yul\":1015:1020   */\n      0x00\n        /* \"#utility.yul\":1053:1059   */\n      dup2\n        /* \"#utility.yul\":1040:1060   */\n      calldataload\n        /* \"#utility.yul\":1031:1060   */\n      swap1\n      pop\n        /* \"#utility.yul\":1069:1102   */\n      tag_86\n        /* \"#utility.yul\":1096:1101   */\n      dup2\n        /* \"#utility.yul\":1069:1102   */\n      tag_58\n      jump\t// in\n    tag_86:\n        /* \"#utility.yul\":969:1108   */\n      swap3\n      swap2\n      pop\n      pop\n      jump\t// out\n        /* \"#utility.yul\":1114:1586   */\n    tag_10:\n        /* \"#utility.yul\":1181:1187   */\n      0x00\n        /* \"#utility.yul\":1189:1195   */\n      dup1\n        /* \"#utility.yul\":1238:1240   */\n      0x40\n        /* \"#utility.yul\":1226:1235   */\n      dup4\n        /* \"#utility.yul\":1217:1224   */\n      dup6\n        /* \"#utility.yul\":1213:1236   */\n      sub\n        /* \"#utility.yul\":1209:1241   */\n      slt\n        /* \"#utility.yul\":1206:1325   */\n      iszero\n      tag_88\n      jumpi\n        /* \"#utility.yul\":1244:1323   */\n      tag_89\n      tag_52\n      jump\t// in\n    tag_89:\n        /* \"#utility.yul\":1206:1325   */\n    tag_88:\n        /* \"#utility.yul\":1364:1365   */\n      0x00\n        /* \"#utility.yul\":1389:1441   */\n      tag_90\n        /* \"#utility.yul\":1433:1440   */\n      dup6\n        /* \"#utility.yul\":1424:1430   */\n      dup3\n        /* \"#utility.yul\":1413:1422   */\n      dup7\n        /* \"#utility.yul\":1409:1431   */\n      add\n        /* \"#utility.yul\":1389:1441   */\n      tag_56\n      jump\t// in\n    tag_90:\n        /* \"#utility.yul\":1379:1441   */\n      swap3\n      pop\n        /* \"#utility.yul\":1335:1451   */\n      pop\n        /* \"#utility.yul\":1490:1492   */\n      0x20\n        /* \"#utility.yul\":1516:1569   */\n      tag_91\n        /* \"#utility.yul\":1561:1568   */\n      dup6\n        /* \"#utility.yul\":1552:1558   */\n      dup3\n        /* \"#utility.yul\":1541:1550   */\n      dup7\n        /* \"#utility.yul\":1537:1559   */\n      add\n        /* \"#utility.yul\":1516:1569   */\n      tag_59\n      jump\t// in\n    tag_91:\n        /* \"#utility.yul\":1506:1569   */\n      swap2\n      pop\n        /* \"#utility.yul\":1461:1579   */\n      pop\n        /* \"#utility.yul\":1114:1586   */\n      swap3\n      pop\n      swap3\n      swap1\n      pop\n      jump\t// out\n        /* \"#utility.yul\":1592:1710   */\n    tag_60:\n        /* \"#utility.yul\":1679:1703   */\n      tag_93\n        /* \"#utility.yul\":1697:1702   */\n      dup2\n        /* \"#utility.yul\":1679:1703   */\n      tag_57\n      jump\t// in\n    tag_93:\n        /* \"#utility.yul\":1674:1677   */\n      dup3\n        /* \"#utility.yul\":1667:1704   */\n      mstore\n        /* \"#utility.yul\":1592:1710   */\n      pop\n      pop\n      jump\t// out\n        /* \"#utility.yul\":1716:1938   */\n    tag_13:\n        /* \"#utility.yul\":1809:1813   */\n      0x00\n        /* \"#utility.yul\":1847:1849   */\n      0x20\n        /* \"#utility.yul\":1836:1845   */\n      dup3\n        /* \"#utility.yul\":1832:1850   */\n      add\n        /* \"#utility.yul\":1824:1850   */\n      swap1\n      pop\n        /* \"#utility.yul\":1860:1931   */\n      tag_95\n        /* \"#utility.yul\":1928:1929   */\n      0x00\n        /* \"#utility.yul\":1917:1926   */\n      dup4\n        /* \"#utility.yul\":1913:1930   */\n      add\n        /* \"#utility.yul\":1904:1910   */\n      dup5\n        /* \"#utility.yul\":1860:1931   */\n      tag_60\n      jump\t// in\n    tag_95:\n        /* \"#utility.yul\":1716:1938   */\n      swap3\n      swap2\n      pop\n      pop\n      jump\t// out\n        /* \"#utility.yul\":1944:2273   */\n    tag_16:\n        /* \"#utility.yul\":2003:2009   */\n      0x00\n        /* \"#utility.yul\":2052:2054   */\n      0x20\n        /* \"#utility.yul\":2040:2049   */\n      dup3\n        /* \"#utility.yul\":2031:2038   */\n      dup5\n        /* \"#utility.yul\":2027:2050   */\n      sub\n        /* \"#utility.yul\":2023:2055   */\n      slt\n        /* \"#utility.yul\":2020:2139   */\n      iszero\n      tag_97\n      jumpi\n        /* \"#utility.yul\":2058:2137   */\n      tag_98\n      tag_52\n      jump\t// in\n    tag_98:\n        /* \"#utility.yul\":2020:2139   */\n    tag_97:\n        /* \"#utility.yul\":2178:2179   */\n      0x00\n        /* \"#utility.yul\":2203:2256   */\n      tag_99\n        /* \"#utility.yul\":2248:2255   */\n      dup5\n        /* \"#utility.yul\":2239:2245   */\n      dup3\n        /* \"#utility.yul\":2228:2237   */\n      dup6\n        /* \"#utility.yul\":2224:2246   */\n      add\n        /* \"#utility.yul\":2203:2256   */\n      tag_59\n      jump\t// in\n    tag_99:\n        /* \"#utility.yul\":2193:2256   */\n      swap2\n      pop\n        /* \"#utility.yul\":2149:2266   */\n      pop\n        /* \"#utility.yul\":1944:2273   */\n      swap3\n      swap2\n      pop\n      pop\n      jump\t// out\n        /* \"#utility.yul\":2279:2394   */\n    tag_61:\n        /* \"#utility.yul\":2364:2387   */\n      tag_101\n        /* \"#utility.yul\":2381:2386   */\n      dup2\n        /* \"#utility.yul\":2364:2387   */\n      tag_54\n      jump\t// in\n    tag_101:\n        /* \"#utility.yul\":2359:2362   */\n      dup3\n        /* \"#utility.yul\":2352:2388   */\n      mstore\n        /* \"#utility.yul\":2279:2394   */\n      pop\n      pop\n      jump\t// out\n        /* \"#utility.yul\":2400:2618   */\n    tag_19:\n        /* \"#utility.yul\":2491:2495   */\n      0x00\n        /* \"#utility.yul\":2529:2531   */\n      0x20\n        /* \"#utility.yul\":2518:2527   */\n      dup3\n        /* \"#utility.yul\":2514:2532   */\n      add\n        /* \"#utility.yul\":2506:2532   */\n      swap1\n      pop\n        /* \"#utility.yul\":2542:2611   */\n      tag_103\n        /* \"#utility.yul\":2608:2609   */\n      0x00\n        /* \"#utility.yul\":2597:2606   */\n      dup4\n        /* \"#utility.yul\":2593:2610   */\n      add\n        /* \"#utility.yul\":2584:2590   */\n      dup5\n        /* \"#utility.yul\":2542:2611   */\n      tag_61\n      jump\t// in\n    tag_103:\n        /* \"#utility.yul\":2400:2618   */\n      swap3\n      swap2\n      pop\n      pop\n      jump\t// out\n        /* \"#utility.yul\":2624:2722   */\n    tag_62:\n        /* \"#utility.yul\":2675:2681   */\n      0x00\n        /* \"#utility.yul\":2709:2714   */\n      dup2\n        /* \"#utility.yul\":2703:2715   */\n      mload\n        /* \"#utility.yul\":2693:2715   */\n      swap1\n      pop\n        /* \"#utility.yul\":2624:2722   */\n      swap2\n      swap1\n      pop\n      jump\t// out\n        /* \"#utility.yul\":2728:2875   */\n    tag_63:\n        /* \"#utility.yul\":2829:2840   */\n      0x00\n        /* \"#utility.yul\":2866:2869   */\n      dup2\n        /* \"#utility.yul\":2851:2869   */\n      swap1\n      pop\n        /* \"#utility.yul\":2728:2875   */\n      swap3\n      swap2\n      pop\n      pop\n      jump\t// out\n        /* \"#utility.yul\":2881:3127   */\n    tag_64:\n        /* \"#utility.yul\":2962:2963   */\n      0x00\n        /* \"#utility.yul\":2972:3085   */\n    tag_107:\n        /* \"#utility.yul\":2986:2992   */\n      dup4\n        /* \"#utility.yul\":2983:2984   */\n      dup2\n        /* \"#utility.yul\":2980:2993   */\n      lt\n        /* \"#utility.yul\":2972:3085   */\n      iszero\n      tag_109\n      jumpi\n        /* \"#utility.yul\":3071:3072   */\n      dup1\n        /* \"#utility.yul\":3066:3069   */\n      dup3\n        /* \"#utility.yul\":3062:3073   */\n      add\n        /* \"#utility.yul\":3056:3074   */\n      mload\n        /* \"#utility.yul\":3052:3053   */\n      dup2\n        /* \"#utility.yul\":3047:3050   */\n      dup5\n        /* \"#utility.yul\":3043:3054   */\n      add\n        /* \"#utility.yul\":3036:3075   */\n      mstore\n        /* \"#utility.yul\":3008:3010   */\n      0x20\n        /* \"#utility.yul\":3005:3006   */\n      dup2\n        /* \"#utility.yul\":3001:3011   */\n      add\n        /* \"#utility.yul\":2996:3011   */\n      swap1\n      pop\n        /* \"#utility.yul\":2972:3085   */\n      jump(tag_107)\n    tag_109:\n        /* \"#utility.yul\":3119:3120   */\n      0x00\n        /* \"#utility.yul\":3110:3116   */\n      dup5\n        /* \"#utility.yul\":3105:3108   */\n      dup5\n        /* \"#utility.yul\":3101:3117   */\n      add\n        /* \"#utility.yul\":3094:3121   */\n      mstore\n        /* \"#utility.yul\":2943:3127   */\n      pop\n        /* \"#utility.yul\":2881:3127   */\n      pop\n      pop\n      pop\n      jump\t// out\n        /* \"#utility.yul\":3133:3519   */\n    tag_65:\n        /* \"#utility.yul\":3237:3240   */\n      0x00\n        /* \"#utility.yul\":3265:3303   */\n      tag_111\n        /* \"#utility.yul\":3297:3302   */\n      dup3\n        /* \"#utility.yul\":3265:3303   */\n      tag_62\n      jump\t// in\n    tag_111:\n        /* \"#utility.yul\":3319:3407   */\n      tag_112\n        /* \"#utility.yul\":3400:3406   */\n      dup2\n        /* \"#utility.yul\":3395:3398   */\n      dup6\n        /* \"#utility.yul\":3319:3407   */\n      tag_63\n      jump\t// in\n    tag_112:\n        /* \"#utility.yul\":3312:3407   */\n      swap4\n      pop\n        /* \"#utility.yul\":3416:3481   */\n      tag_113\n        /* \"#utility.yul\":3474:3480   */\n      dup2\n        /* \"#utility.yul\":3469:3472   */\n      dup6\n        /* \"#utility.yul\":3462:3466   */\n      0x20\n        /* \"#utility.yul\":3455:3460   */\n      dup7\n        /* \"#utility.yul\":3451:3467   */\n      add\n        /* \"#utility.yul\":3416:3481   */\n      tag_64\n      jump\t// in\n    tag_113:\n        /* \"#utility.yul\":3506:3512   */\n      dup1\n        /* \"#utility.yul\":3501:3504   */\n      dup5\n        /* \"#utility.yul\":3497:3513   */\n      add\n        /* \"#utility.yul\":3490:3513   */\n      swap2\n      pop\n        /* \"#utility.yul\":3241:3519   */\n      pop\n        /* \"#utility.yul\":3133:3519   */\n      swap3\n      swap2\n      pop\n      pop\n      jump\t// out\n        /* \"#utility.yul\":3525:3796   */\n    tag_35:\n        /* \"#utility.yul\":3655:3658   */\n      0x00\n        /* \"#utility.yul\":3677:3770   */\n      tag_115\n        /* \"#utility.yul\":3766:3769   */\n      dup3\n        /* \"#utility.yul\":3757:3763   */\n      dup5\n        /* \"#utility.yul\":3677:3770   */\n      tag_65\n      jump\t// in\n    tag_115:\n        /* \"#utility.yul\":3670:3770   */\n      swap2\n      pop\n        /* \"#utility.yul\":3787:3790   */\n      dup2\n        /* \"#utility.yul\":3780:3790   */\n      swap1\n      pop\n        /* \"#utility.yul\":3525:3796   */\n      swap3\n      swap2\n      pop\n      pop\n      jump\t// out\n        /* \"#utility.yul\":3802:3971   */\n    tag_66:\n        /* \"#utility.yul\":3886:3897   */\n      0x00\n        /* \"#utility.yul\":3920:3926   */\n      dup3\n        /* \"#utility.yul\":3915:3918   */\n      dup3\n        /* \"#utility.yul\":3908:3927   */\n      mstore\n        /* \"#utility.yul\":3960:3964   */\n      0x20\n        /* \"#utility.yul\":3955:3958   */\n      dup3\n        /* \"#utility.yul\":3951:3965   */\n      add\n        /* \"#utility.yul\":3936:3965   */\n      swap1\n      pop\n        /* \"#utility.yul\":3802:3971   */\n      swap3\n      swap2\n      pop\n      pop\n      jump\t// out\n        /* \"#utility.yul\":3977:4138   */\n    tag_67:\n        /* \"#utility.yul\":4117:4130   */\n      0x43616c6c206661696c6564000000000000000000000000000000000000000000\n        /* \"#utility.yul\":4113:4114   */\n      0x00\n        /* \"#utility.yul\":4105:4111   */\n      dup3\n        /* \"#utility.yul\":4101:4115   */\n      add\n        /* \"#utility.yul\":4094:4131   */\n      mstore\n        /* \"#utility.yul\":3977:4138   */\n      pop\n      jump\t// out\n        /* \"#utility.yul\":4144:4510   */\n    tag_68:\n        /* \"#utility.yul\":4286:4289   */\n      0x00\n        /* \"#utility.yul\":4307:4374   */\n      tag_119\n        /* \"#utility.yul\":4371:4373   */\n      0x0b\n        /* \"#utility.yul\":4366:4369   */\n      dup4\n        /* \"#utility.yul\":4307:4374   */\n      tag_66\n      jump\t// in\n    tag_119:\n        /* \"#utility.yul\":4300:4374   */\n      swap2\n      pop\n        /* \"#utility.yul\":4383:4476   */\n      tag_120\n        /* \"#utility.yul\":4472:4475   */\n      dup3\n        /* \"#utility.yul\":4383:4476   */\n      tag_67\n      jump\t// in\n    tag_120:\n        /* \"#utility.yul\":4501:4503   */\n      0x20\n        /* \"#utility.yul\":4496:4499   */\n      dup3\n        /* \"#utility.yul\":4492:4504   */\n      add\n        /* \"#utility.yul\":4485:4504   */\n      swap1\n      pop\n        /* \"#utility.yul\":4144:4510   */\n      swap2\n      swap1\n      pop\n      jump\t// out\n        /* \"#utility.yul\":4516:4935   */\n    tag_41:\n        /* \"#utility.yul\":4682:4686   */\n      0x00\n        /* \"#utility.yul\":4720:4722   */\n      0x20\n        /* \"#utility.yul\":4709:4718   */\n      dup3\n        /* \"#utility.yul\":4705:4723   */\n      add\n        /* \"#utility.yul\":4697:4723   */\n      swap1\n      pop\n        /* \"#utility.yul\":4769:4778   */\n      dup2\n        /* \"#utility.yul\":4763:4767   */\n      dup2\n        /* \"#utility.yul\":4759:4779   */\n      sub\n        /* \"#utility.yul\":4755:4756   */\n      0x00\n        /* \"#utility.yul\":4744:4753   */\n      dup4\n        /* \"#utility.yul\":4740:4757   */\n      add\n        /* \"#utility.yul\":4733:4780   */\n      mstore\n        /* \"#utility.yul\":4797:4928   */\n      tag_122\n        /* \"#utility.yul\":4923:4927   */\n      dup2\n        /* \"#utility.yul\":4797:4928   */\n      tag_68\n      jump\t// in\n    tag_122:\n        /* \"#utility.yul\":4789:4928   */\n      swap1\n      pop\n        /* \"#utility.yul\":4516:4935   */\n      swap2\n      swap1\n      pop\n      jump\t// out\n        /* \"#utility.yul\":4941:5084   */\n    tag_69:\n        /* \"#utility.yul\":4998:5003   */\n      0x00\n        /* \"#utility.yul\":5029:5035   */\n      dup2\n        /* \"#utility.yul\":5023:5036   */\n      mload\n        /* \"#utility.yul\":5014:5036   */\n      swap1\n      pop\n        /* \"#utility.yul\":5045:5078   */\n      tag_124\n        /* \"#utility.yul\":5072:5077   */\n      dup2\n        /* \"#utility.yul\":5045:5078   */\n      tag_58\n      jump\t// in\n    tag_124:\n        /* \"#utility.yul\":4941:5084   */\n      swap3\n      swap2\n      pop\n      pop\n      jump\t// out\n        /* \"#utility.yul\":5090:5441   */\n    tag_43:\n        /* \"#utility.yul\":5160:5166   */\n      0x00\n        /* \"#utility.yul\":5209:5211   */\n      0x20\n        /* \"#utility.yul\":5197:5206   */\n      dup3\n        /* \"#utility.yul\":5188:5195   */\n      dup5\n        /* \"#utility.yul\":5184:5207   */\n      sub\n        /* \"#utility.yul\":5180:5212   */\n      slt\n        /* \"#utility.yul\":5177:5296   */\n      iszero\n      tag_126\n      jumpi\n        /* \"#utility.yul\":5215:5294   */\n      tag_127\n      tag_52\n      jump\t// in\n    tag_127:\n        /* \"#utility.yul\":5177:5296   */\n    tag_126:\n        /* \"#utility.yul\":5335:5336   */\n      0x00\n        /* \"#utility.yul\":5360:5424   */\n      tag_128\n        /* \"#utility.yul\":5416:5423   */\n      dup5\n        /* \"#utility.yul\":5407:5413   */\n      dup3\n        /* \"#utility.yul\":5396:5405   */\n      dup6\n        /* \"#utility.yul\":5392:5414   */\n      add\n        /* \"#utility.yul\":5360:5424   */\n      tag_69\n      jump\t// in\n    tag_128:\n        /* \"#utility.yul\":5350:5424   */\n      swap2\n      pop\n        /* \"#utility.yul\":5306:5434   */\n      pop\n        /* \"#utility.yul\":5090:5441   */\n      swap3\n      swap2\n      pop\n      pop\n      jump\t// out\n        /* \"#utility.yul\":5447:5627   */\n    tag_70:\n        /* \"#utility.yul\":5495:5572   */\n      0x4e487b7100000000000000000000000000000000000000000000000000000000\n        /* \"#utility.yul\":5492:5493   */\n      0x00\n        /* \"#utility.yul\":5485:5573   */\n      mstore\n        /* \"#utility.yul\":5592:5596   */\n      0x11\n        /* \"#utility.yul\":5589:5590   */\n      0x04\n        /* \"#utility.yul\":5582:5597   */\n      mstore\n        /* \"#utility.yul\":5616:5620   */\n      0x24\n        /* \"#utility.yul\":5613:5614   */\n      0x00\n        /* \"#utility.yul\":5606:5621   */\n      revert\n        /* \"#utility.yul\":5633:6043   */\n    tag_47:\n        /* \"#utility.yul\":5673:5680   */\n      0x00\n        /* \"#utility.yul\":5696:5716   */\n      tag_131\n        /* \"#utility.yul\":5714:5715   */\n      dup3\n        /* \"#utility.yul\":5696:5716   */\n      tag_57\n      jump\t// in\n    tag_131:\n        /* \"#utility.yul\":5691:5716   */\n      swap2\n      pop\n        /* \"#utility.yul\":5730:5750   */\n      tag_132\n        /* \"#utility.yul\":5748:5749   */\n      dup4\n        /* \"#utility.yul\":5730:5750   */\n      tag_57\n      jump\t// in\n    tag_132:\n        /* \"#utility.yul\":5725:5750   */\n      swap3\n      pop\n        /* \"#utility.yul\":5785:5786   */\n      dup3\n        /* \"#utility.yul\":5782:5783   */\n      dup3\n        /* \"#utility.yul\":5778:5787   */\n      mul\n        /* \"#utility.yul\":5807:5837   */\n      tag_133\n        /* \"#utility.yul\":5825:5836   */\n      dup2\n        /* \"#utility.yul\":5807:5837   */\n      tag_57\n      jump\t// in\n    tag_133:\n        /* \"#utility.yul\":5796:5837   */\n      swap2\n      pop\n        /* \"#utility.yul\":5986:5987   */\n      dup3\n        /* \"#utility.yul\":5977:5984   */\n      dup3\n        /* \"#utility.yul\":5973:5988   */\n      div\n        /* \"#utility.yul\":5970:5971   */\n      dup5\n        /* \"#utility.yul\":5967:5989   */\n      eq\n        /* \"#utility.yul\":5947:5948   */\n      dup4\n        /* \"#utility.yul\":5940:5949   */\n      iszero\n        /* \"#utility.yul\":5920:6003   */\n      or\n        /* \"#utility.yul\":5897:6036   */\n      tag_134\n      jumpi\n        /* \"#utility.yul\":6016:6034   */\n      tag_135\n      tag_70\n      jump\t// in\n    tag_135:\n        /* \"#utility.yul\":5897:6036   */\n    tag_134:\n        /* \"#utility.yul\":5681:6043   */\n      pop\n        /* \"#utility.yul\":5633:6043   */\n      swap3\n      swap2\n      pop\n      pop\n      jump\t// out\n\n    auxdata: 0xa2646970667358221220437cd2a5eca6c38fcbdcb81182b960a13e371e141ddce04035db74a443944c1464736f6c63430008140033\n}\n",
				"bytecode": {
					"linkReferences": {},
					"object": "608060405234801561000f575f80fd5b506106048061001d5f395ff3fe608060405234801561000f575f80fd5b5060043610610055575f3560e01c80630198929e1461005957806358c4576d146100895780637b292909146100b9578063902c5198146100e9578063eee9720614610119575b5f80fd5b610073600480360381019061006e919061036e565b610149565b60405161008091906103bb565b60405180910390f35b6100a3600480360381019061009e91906103d4565b610280565b6040516100b0919061040e565b60405180910390f35b6100d360048036038101906100ce91906103d4565b610290565b6040516100e091906103bb565b60405180910390f35b61010360048036038101906100fe91906103d4565b6102a4565b604051610110919061040e565b60405180910390f35b610133600480360381019061012e91906103d4565b6102cd565b60405161014091906103bb565b60405180910390f35b5f805f3073ffffffffffffffffffffffffffffffffffffffff16858560405160240161017591906103bb565b604051602081830303815290604052907bffffffffffffffffffffffffffffffffffffffffffffffffffffffff19166020820180517bffffffffffffffffffffffffffffffffffffffffffffffffffffffff83818316178352505050506040516101df9190610493565b5f604051808303815f865af19150503d805f8114610218576040519150601f19603f3d011682016040523d82523d5f602084013e61021d565b606091505b509150915081610262576040517f08c379a000000000000000000000000000000000000000000000000000000000815260040161025990610503565b60405180910390fd5b808060200190518101906102769190610535565b9250505092915050565b5f637b29290960e01b9050919050565b5f818261029d919061058d565b9050919050565b5f7feee972066698d890c32fec0edb38a360c32b71d0a29ffc75b6ab6d2774ec99019050919050565b5f6002826102db919061058d565b9050919050565b5f80fd5b5f7fffffffff0000000000000000000000000000000000000000000000000000000082169050919050565b61031a816102e6565b8114610324575f80fd5b50565b5f8135905061033581610311565b92915050565b5f819050919050565b61034d8161033b565b8114610357575f80fd5b50565b5f8135905061036881610344565b92915050565b5f8060408385031215610384576103836102e2565b5b5f61039185828601610327565b92505060206103a28582860161035a565b9150509250929050565b6103b58161033b565b82525050565b5f6020820190506103ce5f8301846103ac565b92915050565b5f602082840312156103e9576103e86102e2565b5b5f6103f68482850161035a565b91505092915050565b610408816102e6565b82525050565b5f6020820190506104215f8301846103ff565b92915050565b5f81519050919050565b5f81905092915050565b5f5b8381101561045857808201518184015260208101905061043d565b5f8484015250505050565b5f61046d82610427565b6104778185610431565b935061048781856020860161043b565b80840191505092915050565b5f61049e8284610463565b915081905092915050565b5f82825260208201905092915050565b7f43616c6c206661696c65640000000000000000000000000000000000000000005f82015250565b5f6104ed600b836104a9565b91506104f8826104b9565b602082019050919050565b5f6020820190508181035f83015261051a816104e1565b9050919050565b5f8151905061052f81610344565b92915050565b5f6020828403121561054a576105496102e2565b5b5f61055784828501610521565b91505092915050565b7f4e487b71000000000000000000000000000000000000000000000000000000005f52601160045260245ffd5b5f6105978261033b565b91506105a28361033b565b92508282026105b08161033b565b915082820484148315176105c7576105c6610560565b5b509291505056fea2646970667358221220437cd2a5eca6c38fcbdcb81182b960a13e371e141ddce04035db74a443944c1464736f6c63430008140033",
					"opcodes": "PUSH1 0x80 PUSH1 0x40 MSTORE CALLVALUE DUP1 ISZERO PUSH2 0xF JUMPI PUSH0 DUP1 REVERT JUMPDEST POP PUSH2 0x604 DUP1 PUSH2 0x1D PUSH0 CODECOPY PUSH0 RETURN INVALID PUSH1 0x80 PUSH1 0x40 MSTORE CALLVALUE DUP1 ISZERO PUSH2 0xF JUMPI PUSH0 DUP1 REVERT JUMPDEST POP PUSH1 0x4 CALLDATASIZE LT PUSH2 0x55 JUMPI PUSH0 CALLDATALOAD PUSH1 0xE0 SHR DUP1 PUSH4 0x198929E EQ PUSH2 0x59 JUMPI DUP1 PUSH4 0x58C4576D EQ PUSH2 0x89 JUMPI DUP1 PUSH4 0x7B292909 EQ PUSH2 0xB9 JUMPI DUP1 PUSH4 0x902C5198 EQ PUSH2 0xE9 JUMPI DUP1 PUSH4 0xEEE97206 EQ PUSH2 0x119 JUMPI JUMPDEST PUSH0 DUP1 REVERT JUMPDEST PUSH2 0x73 PUSH1 0x4 DUP1 CALLDATASIZE SUB DUP2 ADD SWAP1 PUSH2 0x6E SWAP2 SWAP1 PUSH2 0x36E JUMP JUMPDEST PUSH2 0x149 JUMP JUMPDEST PUSH1 0x40 MLOAD PUSH2 0x80 SWAP2 SWAP1 PUSH2 0x3BB JUMP JUMPDEST PUSH1 0x40 MLOAD DUP1 SWAP2 SUB SWAP1 RETURN JUMPDEST PUSH2 0xA3 PUSH1 0x4 DUP1 CALLDATASIZE SUB DUP2 ADD SWAP1 PUSH2 0x9E SWAP2 SWAP1 PUSH2 0x3D4 JUMP JUMPDEST PUSH2 0x280 JUMP JUMPDEST PUSH1 0x40 MLOAD PUSH2 0xB0 SWAP2 SWAP1 PUSH2 0x40E JUMP JUMPDEST PUSH1 0x40 MLOAD DUP1 SWAP2 SUB SWAP1 RETURN JUMPDEST PUSH2 0xD3 PUSH1 0x4 DUP1 CALLDATASIZE SUB DUP2 ADD SWAP1 PUSH2 0xCE SWAP2 SWAP1 PUSH2 0x3D4 JUMP JUMPDEST PUSH2 0x290 JUMP JUMPDEST PUSH1 0x40 MLOAD PUSH2 0xE0 SWAP2 SWAP1 PUSH2 0x3BB JUMP JUMPDEST PUSH1 0x40 MLOAD DUP1 SWAP2 SUB SWAP1 RETURN JUMPDEST PUSH2 0x103 PUSH1 0x4 DUP1 CALLDATASIZE SUB DUP2 ADD SWAP1 PUSH2 0xFE SWAP2 SWAP1 PUSH2 0x3D4 JUMP JUMPDEST PUSH2 0x2A4 JUMP JUMPDEST PUSH1 0x40 MLOAD PUSH2 0x110 SWAP2 SWAP1 PUSH2 0x40E JUMP JUMPDEST PUSH1 0x40 MLOAD DUP1 SWAP2 SUB SWAP1 RETURN JUMPDEST PUSH2 0x133 PUSH1 0x4 DUP1 CALLDATASIZE SUB DUP2 ADD SWAP1 PUSH2 0x12E SWAP2 SWAP1 PUSH2 0x3D4 JUMP JUMPDEST PUSH2 0x2CD JUMP JUMPDEST PUSH1 0x40 MLOAD PUSH2 0x140 SWAP2 SWAP1 PUSH2 0x3BB JUMP JUMPDEST PUSH1 0x40 MLOAD DUP1 SWAP2 SUB SWAP1 RETURN JUMPDEST PUSH0 DUP1 PUSH0 ADDRESS PUSH20 0xFFFFFFFFFFFFFFFFFFFFFFFFFFFFFFFFFFFFFFFF AND DUP6 DUP6 PUSH1 0x40 MLOAD PUSH1 0x24 ADD PUSH2 0x175 SWAP2 SWAP1 PUSH2 0x3BB JUMP JUMPDEST PUSH1 0x40 MLOAD PUSH1 0x20 DUP2 DUP4 SUB SUB DUP2 MSTORE SWAP1 PUSH1 0x40 MSTORE SWAP1 PUSH28 0xFFFFFFFFFFFFFFFFFFFFFFFFFFFFFFFFFFFFFFFFFFFFFFFFFFFFFFFF NOT AND PUSH1 0x20 DUP3 ADD DUP1 MLOAD PUSH28 0xFFFFFFFFFFFFFFFFFFFFFFFFFFFFFFFFFFFFFFFFFFFFFFFFFFFFFFFF DUP4 DUP2 DUP4 AND OR DUP4 MSTORE POP POP POP POP PUSH1 0x40 MLOAD PUSH2 0x1DF SWAP2 SWAP1 PUSH2 0x493 JUMP JUMPDEST PUSH0 PUSH1 0x40 MLOAD DUP1 DUP4 SUB DUP2 PUSH0 DUP7 GAS CALL SWAP2 POP POP RETURNDATASIZE DUP1 PUSH0 DUP2 EQ PUSH2 0x218 JUMPI PUSH1 0x40 MLOAD SWAP2 POP PUSH1 0x1F NOT PUSH1 0x3F RETURNDATASIZE ADD AND DUP3 ADD PUSH1 0x40 MSTORE RETURNDATASIZE DUP3 MSTORE RETURNDATASIZE PUSH0 PUSH1 0x20 DUP5 ADD RETURNDATACOPY PUSH2 0x21D JUMP JUMPDEST PUSH1 0x60 SWAP2 POP JUMPDEST POP SWAP2 POP SWAP2 POP DUP2 PUSH2 0x262 JUMPI PUSH1 0x40 MLOAD PUSH32 0x8C379A000000000000000000000000000000000000000000000000000000000 DUP2 MSTORE PUSH1 0x4 ADD PUSH2 0x259 SWAP1 PUSH2 0x503 JUMP JUMPDEST PUSH1 0x40 MLOAD DUP1 SWAP2 SUB SWAP1 REVERT JUMPDEST DUP1 DUP1 PUSH1 0x20 ADD SWAP1 MLOAD DUP2 ADD SWAP1 PUSH2 0x276 SWAP2 SWAP1 PUSH2 0x535 JUMP JUMPDEST SWAP3 POP POP POP SWAP3 SWAP2 POP POP JUMP JUMPDEST PUSH0 PUSH4 0x7B292909 PUSH1 0xE0 SHL SWAP1 POP SWAP2 SWAP1 POP JUMP JUMPDEST PUSH0 DUP2 DUP3 PUSH2 0x29D SWAP2 SWAP1 PUSH2 0x58D JUMP JUMPDEST SWAP1 POP SWAP2 SWAP1 POP JUMP JUMPDEST PUSH0 PUSH32 0xEEE972066698D890C32FEC0EDB38A360C32B71D0A29FFC75B6AB6D2774EC9901 SWAP1 POP SWAP2 SWAP1 POP JUMP JUMPDEST PUSH0 PUSH1 0x2 DUP3 PUSH2 0x2DB SWAP2 SWAP1 PUSH2 0x58D JUMP JUMPDEST SWAP1 POP SWAP2 SWAP1 POP JUMP JUMPDEST PUSH0 DUP1 REVERT JUMPDEST PUSH0 PUSH32 0xFFFFFFFF00000000000000000000000000000000000000000000000000000000 DUP3 AND SWAP1 POP SWAP2 SWAP1 POP JUMP JUMPDEST PUSH2 0x31A DUP2 PUSH2 0x2E6 JUMP JUMPDEST DUP2 EQ PUSH2 0x324 JUMPI PUSH0 DUP1 REVERT JUMPDEST POP JUMP JUMPDEST PUSH0 DUP2 CALLDATALOAD SWAP1 POP PUSH2 0x335 DUP2 PUSH2 0x311 JUMP JUMPDEST SWAP3 SWAP2 POP POP JUMP JUMPDEST PUSH0 DUP2 SWAP1 POP SWAP2 SWAP1 POP JUMP JUMPDEST PUSH2 0x34D DUP2 PUSH2 0x33B JUMP JUMPDEST DUP2 EQ PUSH2 0x357 JUMPI PUSH0 DUP1 REVERT JUMPDEST POP JUMP JUMPDEST PUSH0 DUP2 CALLDATALOAD SWAP1 POP PUSH2 0x368 DUP2 PUSH2 0x344 JUMP JUMPDEST SWAP3 SWAP2 POP POP JUMP JUMPDEST PUSH0 DUP1 PUSH1 0x40 DUP4 DUP6 SUB SLT ISZERO PUSH2 0x384 JUMPI PUSH2 0x383 PUSH2 0x2E2 JUMP JUMPDEST JUMPDEST PUSH0 PUSH2 0x391 DUP6 DUP3 DUP7 ADD PUSH2 0x327 JUMP JUMPDEST SWAP3 POP POP PUSH1 0x20 PUSH2 0x3A2 DUP6 DUP3 DUP7 ADD PUSH2 0x35A JUMP JUMPDEST SWAP2 POP POP SWAP3 POP SWAP3 SWAP1 POP JUMP JUMPDEST PUSH2 0x3B5 DUP2 PUSH2 0x33B JUMP JUMPDEST DUP3 MSTORE POP POP JUMP JUMPDEST PUSH0 PUSH1 0x20 DUP3 ADD SWAP1 POP PUSH2 0x3CE PUSH0 DUP4 ADD DUP5 PUSH2 0x3AC JUMP JUMPDEST SWAP3 SWAP2 POP POP JUMP JUMPDEST PUSH0 PUSH1 0x20 DUP3 DUP5 SUB SLT ISZERO PUSH2 0x3E9 JUMPI PUSH2 0x3E8 PUSH2 0x2E2 JUMP JUMPDEST JUMPDEST PUSH0 PUSH2 0x3F6 DUP5 DUP3 DUP6 ADD PUSH2 0x35A JUMP JUMPDEST SWAP2 POP POP SWAP3 SWAP2 POP POP JUMP JUMPDEST PUSH2 0x408 DUP2 PUSH2 0x2E6 JUMP JUMPDEST DUP3 MSTORE POP POP JUMP JUMPDEST PUSH0 PUSH1 0x20 DUP3 ADD SWAP1 POP PUSH2 0x421 PUSH0 DUP4 ADD DUP5 PUSH2 0x3FF JUMP JUMPDEST SWAP3 SWAP2 POP POP JUMP JUMPDEST PUSH0 DUP2 MLOAD SWAP1 POP SWAP2 SWAP1 POP JUMP JUMPDEST PUSH0 DUP2 SWAP1 POP SWAP3 SWAP2 POP POP JUMP JUMPDEST PUSH0 JUMPDEST DUP4 DUP2 LT ISZERO PUSH2 0x458 JUMPI DUP1 DUP3 ADD MLOAD DUP2 DUP5 ADD MSTORE PUSH1 0x20 DUP2 ADD SWAP1 POP PUSH2 0x43D JUMP JUMPDEST PUSH0 DUP5 DUP5 ADD MSTORE POP POP POP POP JUMP JUMPDEST PUSH0 PUSH2 0x46D DUP3 PUSH2 0x427 JUMP JUMPDEST PUSH2 0x477 DUP2 DUP6 PUSH2 0x431 JUMP JUMPDEST SWAP4 POP PUSH2 0x487 DUP2 DUP6 PUSH1 0x20 DUP7 ADD PUSH2 0x43B JUMP JUMPDEST DUP1 DUP5 ADD SWAP2 POP POP SWAP3 SWAP2 POP POP JUMP JUMPDEST PUSH0 PUSH2 0x49E DUP3 DUP5 PUSH2 0x463 JUMP JUMPDEST SWAP2 POP DUP2 SWAP1 POP SWAP3 SWAP2 POP POP JUMP JUMPDEST PUSH0 DUP3 DUP3 MSTORE PUSH1 0x20 DUP3 ADD SWAP1 POP SWAP3 SWAP2 POP POP JUMP JUMPDEST PUSH32 0x43616C6C206661696C6564000000000000000000000000000000000000000000 PUSH0 DUP3 ADD MSTORE POP JUMP JUMPDEST PUSH0 PUSH2 0x4ED PUSH1 0xB DUP4 PUSH2 0x4A9 JUMP JUMPDEST SWAP2 POP PUSH2 0x4F8 DUP3 PUSH2 0x4B9 JUMP JUMPDEST PUSH1 0x20 DUP3 ADD SWAP1 POP SWAP2 SWAP1 POP JUMP JUMPDEST PUSH0 PUSH1 0x20 DUP3 ADD SWAP1 POP DUP2 DUP2 SUB PUSH0 DUP4 ADD MSTORE PUSH2 0x51A DUP2 PUSH2 0x4E1 JUMP JUMPDEST SWAP1 POP SWAP2 SWAP1 POP JUMP JUMPDEST PUSH0 DUP2 MLOAD SWAP1 POP PUSH2 0x52F DUP2 PUSH2 0x344 JUMP JUMPDEST SWAP3 SWAP2 POP POP JUMP JUMPDEST PUSH0 PUSH1 0x20 DUP3 DUP5 SUB SLT ISZERO PUSH2 0x54A JUMPI PUSH2 0x549 PUSH2 0x2E2 JUMP JUMPDEST JUMPDEST PUSH0 PUSH2 0x557 DUP5 DUP3 DUP6 ADD PUSH2 0x521 JUMP JUMPDEST SWAP2 POP POP SWAP3 SWAP2 POP POP JUMP JUMPDEST PUSH32 0x4E487B7100000000000000000000000000000000000000000000000000000000 PUSH0 MSTORE PUSH1 0x11 PUSH1 0x4 MSTORE PUSH1 0x24 PUSH0 REVERT JUMPDEST PUSH0 PUSH2 0x597 DUP3 PUSH2 0x33B JUMP JUMPDEST SWAP2 POP PUSH2 0x5A2 DUP4 PUSH2 0x33B JUMP JUMPDEST SWAP3 POP DUP3 DUP3 MUL PUSH2 0x5B0 DUP2 PUSH2 0x33B JUMP JUMPDEST SWAP2 POP DUP3 DUP3 DIV DUP5 EQ DUP4 ISZERO OR PUSH2 0x5C7 JUMPI PUSH2 0x5C6 PUSH2 0x560 JUMP JUMPDEST JUMPDEST POP SWAP3 SWAP2 POP POP JUMP INVALID LOG2 PUSH5 0x6970667358 0x22 SLT KECCAK256 NUMBER PUSH29 0xD2A5ECA6C38FCBDCB81182B960A13E371E141DDCE04035DB74A443944C EQ PUSH5 0x736F6C6343 STOP ADDMOD EQ STOP CALLER "
				},
				"gasEstimates": {
					"creation": {
						"codeDepositCost": "308000",
						"executionCost": "347",
						"totalCost": "308347"
					},
					"external": {
						"double(uint256)": "infinite",
						"execute(bytes4,uint256)": "infinite",
						"getSelectorDouble(uint256)": "643",
						"getSelectorSquare(uint256)": "605",
						"square(uint256)": "infinite"
					}
				},
				"methodIdentifiers": {
					"double(uint256)": "eee97206",
					"execute(bytes4,uint256)": "0198929e",
					"getSelectorDouble(uint256)": "902c5198",
					"getSelectorSquare(uint256)": "58c4576d",
					"square(uint256)": "7b292909"
				}
			},
			"storageLayout": {
				"storage": [],
				"types": null
			},
			"userdoc": {
				"kind": "user",
				"methods": {},
				"version": 1
			}
		}
	}
}