{
	"contracts/contract.sol": {
		"Hello": {
			"abi": [
				{
					"inputs": [
						{
							"internalType": "address payable",
							"name": "recipient",
							"type": "address"
						}
					],
					"name": "destoryContract",
					"outputs": [],
					"stateMutability": "nonpayable",
					"type": "function"
				},
				{
					"inputs": [],
					"name": "getAddress",
					"outputs": [
						{
							"internalType": "address",
							"name": "",
							"type": "address"
						}
					],
					"stateMutability": "view",
					"type": "function"
				},
				{
					"inputs": [
						{
							"internalType": "address",
							"name": "addr",
							"type": "address"
						}
					],
					"name": "isContract",
					"outputs": [
						{
							"internalType": "bool",
							"name": "",
							"type": "bool"
						}
					],
					"stateMutability": "view",
					"type": "function"
				},
				{
					"inputs": [],
					"name": "sayHi",
					"outputs": [],
					"stateMutability": "nonpayable",
					"type": "function"
				},
				{
					"stateMutability": "payable",
					"type": "receive"
				}
			],
			"devdoc": {
				"kind": "dev",
				"methods": {},
				"version": 1
			},
			"evm": {
				"assembly": "    /* \"contracts/contract.sol\":57:1138  contract Hello {... */\n  mstore(0x40, 0x80)\n  callvalue\n  dup1\n  iszero\n  tag_1\n  jumpi\n  0x00\n  dup1\n  revert\ntag_1:\n  pop\n  dataSize(sub_0)\n  dup1\n  dataOffset(sub_0)\n  0x00\n  codecopy\n  0x00\n  return\nstop\n\nsub_0: assembly {\n        /* \"contracts/contract.sol\":57:1138  contract Hello {... */\n      mstore(0x40, 0x80)\n      jumpi(tag_1, lt(calldatasize, 0x04))\n      shr(0xe0, calldataload(0x00))\n      dup1\n      0x0c49c36c\n      eq\n      tag_3\n      jumpi\n      dup1\n      0x16279055\n      eq\n      tag_4\n      jumpi\n      dup1\n      0x38cc4831\n      eq\n      tag_5\n      jumpi\n      dup1\n      0x9d02a866\n      eq\n      tag_6\n      jumpi\n      jump(tag_2)\n    tag_1:\n      jumpi(tag_2, calldatasize)\n      stop\n    tag_2:\n      0x00\n      dup1\n      revert\n        /* \"contracts/contract.sol\":78:145  function sayHi() public {... */\n    tag_3:\n      callvalue\n      dup1\n      iszero\n      tag_9\n      jumpi\n      0x00\n      dup1\n      revert\n    tag_9:\n      pop\n      tag_10\n      tag_11\n      jump\t// in\n    tag_10:\n      stop\n        /* \"contracts/contract.sol\":967:1129  function isContract(address addr) public view returns (bool) {... */\n    tag_4:\n      callvalue\n      dup1\n      iszero\n      tag_12\n      jumpi\n      0x00\n      dup1\n      revert\n    tag_12:\n      pop\n      tag_13\n      0x04\n      dup1\n      calldatasize\n      sub\n      dup2\n      add\n      swap1\n      tag_14\n      swap2\n      swap1\n      tag_15\n      jump\t// in\n    tag_14:\n      tag_16\n      jump\t// in\n    tag_13:\n      mload(0x40)\n      tag_17\n      swap2\n      swap1\n      tag_18\n      jump\t// in\n    tag_17:\n      mload(0x40)\n      dup1\n      swap2\n      sub\n      swap1\n      return\n        /* \"contracts/contract.sol\":540:657  function getAddress() public view returns (address) {... */\n    tag_5:\n      callvalue\n      dup1\n      iszero\n      tag_19\n      jumpi\n      0x00\n      dup1\n      revert\n    tag_19:\n      pop\n      tag_20\n      tag_21\n      jump\t// in\n    tag_20:\n      mload(0x40)\n      tag_22\n      swap2\n      swap1\n      tag_23\n      jump\t// in\n    tag_22:\n      mload(0x40)\n      dup1\n      swap2\n      sub\n      swap1\n      return\n        /* \"contracts/contract.sol\":663:762  function destoryContract(address payable recipient) public {... */\n    tag_6:\n      callvalue\n      dup1\n      iszero\n      tag_24\n      jumpi\n      0x00\n      dup1\n      revert\n    tag_24:\n      pop\n      tag_25\n      0x04\n      dup1\n      calldatasize\n      sub\n      dup2\n      add\n      swap1\n      tag_26\n      swap2\n      swap1\n      tag_27\n      jump\t// in\n    tag_26:\n      tag_28\n      jump\t// in\n    tag_25:\n      stop\n        /* \"contracts/contract.sol\":78:145  function sayHi() public {... */\n    tag_11:\n      jump\t// out\n        /* \"contracts/contract.sol\":967:1129  function isContract(address addr) public view returns (bool) {... */\n    tag_16:\n        /* \"contracts/contract.sol\":1022:1026  bool */\n      0x00\n        /* \"contracts/contract.sol\":1038:1050  uint256 size */\n      dup1\n        /* \"contracts/contract.sol\":1091:1095  addr */\n      dup3\n        /* \"contracts/contract.sol\":1079:1096  extcodesize(addr) */\n      extcodesize\n        /* \"contracts/contract.sol\":1071:1096  size := extcodesize(addr) */\n      swap1\n      pop\n        /* \"contracts/contract.sol\":1121:1122  0 */\n      0x00\n        /* \"contracts/contract.sol\":1114:1118  size */\n      dup2\n        /* \"contracts/contract.sol\":1114:1122  size > 0 */\n      gt\n        /* \"contracts/contract.sol\":1107:1122  return size > 0 */\n      swap2\n      pop\n      pop\n        /* \"contracts/contract.sol\":967:1129  function isContract(address addr) public view returns (bool) {... */\n      swap2\n      swap1\n      pop\n      jump\t// out\n        /* \"contracts/contract.sol\":540:657  function getAddress() public view returns (address) {... */\n    tag_21:\n        /* \"contracts/contract.sol\":583:590  address */\n      0x00\n        /* \"contracts/contract.sol\":617:621  this */\n      address\n        /* \"contracts/contract.sol\":602:622  return address(this) */\n      swap1\n      pop\n        /* \"contracts/contract.sol\":540:657  function getAddress() public view returns (address) {... */\n      swap1\n      jump\t// out\n        /* \"contracts/contract.sol\":663:762  function destoryContract(address payable recipient) public {... */\n    tag_28:\n        /* \"contracts/contract.sol\":745:754  recipient */\n      dup1\n        /* \"contracts/contract.sol\":732:755  selfdestruct(recipient) */\n      0xffffffffffffffffffffffffffffffffffffffff\n      and\n      selfdestruct\n        /* \"#utility.yul\":88:205   */\n    tag_34:\n        /* \"#utility.yul\":197:198   */\n      0x00\n        /* \"#utility.yul\":194:195   */\n      dup1\n        /* \"#utility.yul\":187:199   */\n      revert\n        /* \"#utility.yul\":334:460   */\n    tag_36:\n        /* \"#utility.yul\":371:378   */\n      0x00\n        /* \"#utility.yul\":411:453   */\n      0xffffffffffffffffffffffffffffffffffffffff\n        /* \"#utility.yul\":404:409   */\n      dup3\n        /* \"#utility.yul\":400:454   */\n      and\n        /* \"#utility.yul\":389:454   */\n      swap1\n      pop\n        /* \"#utility.yul\":334:460   */\n      swap2\n      swap1\n      pop\n      jump\t// out\n        /* \"#utility.yul\":466:562   */\n    tag_37:\n        /* \"#utility.yul\":503:510   */\n      0x00\n        /* \"#utility.yul\":532:556   */\n      tag_52\n        /* \"#utility.yul\":550:555   */\n      dup3\n        /* \"#utility.yul\":532:556   */\n      tag_36\n      jump\t// in\n    tag_52:\n        /* \"#utility.yul\":521:556   */\n      swap1\n      pop\n        /* \"#utility.yul\":466:562   */\n      swap2\n      swap1\n      pop\n      jump\t// out\n        /* \"#utility.yul\":568:690   */\n    tag_38:\n        /* \"#utility.yul\":641:665   */\n      tag_54\n        /* \"#utility.yul\":659:664   */\n      dup2\n        /* \"#utility.yul\":641:665   */\n      tag_37\n      jump\t// in\n    tag_54:\n        /* \"#utility.yul\":634:639   */\n      dup2\n        /* \"#utility.yul\":631:666   */\n      eq\n        /* \"#utility.yul\":621:684   */\n      tag_55\n      jumpi\n        /* \"#utility.yul\":680:681   */\n      0x00\n        /* \"#utility.yul\":677:678   */\n      dup1\n        /* \"#utility.yul\":670:682   */\n      revert\n        /* \"#utility.yul\":621:684   */\n    tag_55:\n        /* \"#utility.yul\":568:690   */\n      pop\n      jump\t// out\n        /* \"#utility.yul\":696:835   */\n    tag_39:\n        /* \"#utility.yul\":742:747   */\n      0x00\n        /* \"#utility.yul\":780:786   */\n      dup2\n        /* \"#utility.yul\":767:787   */\n      calldataload\n        /* \"#utility.yul\":758:787   */\n      swap1\n      pop\n        /* \"#utility.yul\":796:829   */\n      tag_57\n        /* \"#utility.yul\":823:828   */\n      dup2\n        /* \"#utility.yul\":796:829   */\n      tag_38\n      jump\t// in\n    tag_57:\n        /* \"#utility.yul\":696:835   */\n      swap3\n      swap2\n      pop\n      pop\n      jump\t// out\n        /* \"#utility.yul\":841:1170   */\n    tag_15:\n        /* \"#utility.yul\":900:906   */\n      0x00\n        /* \"#utility.yul\":949:951   */\n      0x20\n        /* \"#utility.yul\":937:946   */\n      dup3\n        /* \"#utility.yul\":928:935   */\n      dup5\n        /* \"#utility.yul\":924:947   */\n      sub\n        /* \"#utility.yul\":920:952   */\n      slt\n        /* \"#utility.yul\":917:1036   */\n      iszero\n      tag_59\n      jumpi\n        /* \"#utility.yul\":955:1034   */\n      tag_60\n      tag_34\n      jump\t// in\n    tag_60:\n        /* \"#utility.yul\":917:1036   */\n    tag_59:\n        /* \"#utility.yul\":1075:1076   */\n      0x00\n        /* \"#utility.yul\":1100:1153   */\n      tag_61\n        /* \"#utility.yul\":1145:1152   */\n      dup5\n        /* \"#utility.yul\":1136:1142   */\n      dup3\n        /* \"#utility.yul\":1125:1134   */\n      dup6\n        /* \"#utility.yul\":1121:1143   */\n      add\n        /* \"#utility.yul\":1100:1153   */\n      tag_39\n      jump\t// in\n    tag_61:\n        /* \"#utility.yul\":1090:1153   */\n      swap2\n      pop\n        /* \"#utility.yul\":1046:1163   */\n      pop\n        /* \"#utility.yul\":841:1170   */\n      swap3\n      swap2\n      pop\n      pop\n      jump\t// out\n        /* \"#utility.yul\":1176:1266   */\n    tag_40:\n        /* \"#utility.yul\":1210:1217   */\n      0x00\n        /* \"#utility.yul\":1253:1258   */\n      dup2\n        /* \"#utility.yul\":1246:1259   */\n      iszero\n        /* \"#utility.yul\":1239:1260   */\n      iszero\n        /* \"#utility.yul\":1228:1260   */\n      swap1\n      pop\n        /* \"#utility.yul\":1176:1266   */\n      swap2\n      swap1\n      pop\n      jump\t// out\n        /* \"#utility.yul\":1272:1381   */\n    tag_41:\n        /* \"#utility.yul\":1353:1374   */\n      tag_64\n        /* \"#utility.yul\":1368:1373   */\n      dup2\n        /* \"#utility.yul\":1353:1374   */\n      tag_40\n      jump\t// in\n    tag_64:\n        /* \"#utility.yul\":1348:1351   */\n      dup3\n        /* \"#utility.yul\":1341:1375   */\n      mstore\n        /* \"#utility.yul\":1272:1381   */\n      pop\n      pop\n      jump\t// out\n        /* \"#utility.yul\":1387:1597   */\n    tag_18:\n        /* \"#utility.yul\":1474:1478   */\n      0x00\n        /* \"#utility.yul\":1512:1514   */\n      0x20\n        /* \"#utility.yul\":1501:1510   */\n      dup3\n        /* \"#utility.yul\":1497:1515   */\n      add\n        /* \"#utility.yul\":1489:1515   */\n      swap1\n      pop\n        /* \"#utility.yul\":1525:1590   */\n      tag_66\n        /* \"#utility.yul\":1587:1588   */\n      0x00\n        /* \"#utility.yul\":1576:1585   */\n      dup4\n        /* \"#utility.yul\":1572:1589   */\n      add\n        /* \"#utility.yul\":1563:1569   */\n      dup5\n        /* \"#utility.yul\":1525:1590   */\n      tag_41\n      jump\t// in\n    tag_66:\n        /* \"#utility.yul\":1387:1597   */\n      swap3\n      swap2\n      pop\n      pop\n      jump\t// out\n        /* \"#utility.yul\":1603:1721   */\n    tag_42:\n        /* \"#utility.yul\":1690:1714   */\n      tag_68\n        /* \"#utility.yul\":1708:1713   */\n      dup2\n        /* \"#utility.yul\":1690:1714   */\n      tag_37\n      jump\t// in\n    tag_68:\n        /* \"#utility.yul\":1685:1688   */\n      dup3\n        /* \"#utility.yul\":1678:1715   */\n      mstore\n        /* \"#utility.yul\":1603:1721   */\n      pop\n      pop\n      jump\t// out\n        /* \"#utility.yul\":1727:1949   */\n    tag_23:\n        /* \"#utility.yul\":1820:1824   */\n      0x00\n        /* \"#utility.yul\":1858:1860   */\n      0x20\n        /* \"#utility.yul\":1847:1856   */\n      dup3\n        /* \"#utility.yul\":1843:1861   */\n      add\n        /* \"#utility.yul\":1835:1861   */\n      swap1\n      pop\n        /* \"#utility.yul\":1871:1942   */\n      tag_70\n        /* \"#utility.yul\":1939:1940   */\n      0x00\n        /* \"#utility.yul\":1928:1937   */\n      dup4\n        /* \"#utility.yul\":1924:1941   */\n      add\n        /* \"#utility.yul\":1915:1921   */\n      dup5\n        /* \"#utility.yul\":1871:1942   */\n      tag_42\n      jump\t// in\n    tag_70:\n        /* \"#utility.yul\":1727:1949   */\n      swap3\n      swap2\n      pop\n      pop\n      jump\t// out\n        /* \"#utility.yul\":1955:2059   */\n    tag_43:\n        /* \"#utility.yul\":2000:2007   */\n      0x00\n        /* \"#utility.yul\":2029:2053   */\n      tag_72\n        /* \"#utility.yul\":2047:2052   */\n      dup3\n        /* \"#utility.yul\":2029:2053   */\n      tag_36\n      jump\t// in\n    tag_72:\n        /* \"#utility.yul\":2018:2053   */\n      swap1\n      pop\n        /* \"#utility.yul\":1955:2059   */\n      swap2\n      swap1\n      pop\n      jump\t// out\n        /* \"#utility.yul\":2065:2203   */\n    tag_44:\n        /* \"#utility.yul\":2146:2178   */\n      tag_74\n        /* \"#utility.yul\":2172:2177   */\n      dup2\n        /* \"#utility.yul\":2146:2178   */\n      tag_43\n      jump\t// in\n    tag_74:\n        /* \"#utility.yul\":2139:2144   */\n      dup2\n        /* \"#utility.yul\":2136:2179   */\n      eq\n        /* \"#utility.yul\":2126:2197   */\n      tag_75\n      jumpi\n        /* \"#utility.yul\":2193:2194   */\n      0x00\n        /* \"#utility.yul\":2190:2191   */\n      dup1\n        /* \"#utility.yul\":2183:2195   */\n      revert\n        /* \"#utility.yul\":2126:2197   */\n    tag_75:\n        /* \"#utility.yul\":2065:2203   */\n      pop\n      jump\t// out\n        /* \"#utility.yul\":2209:2364   */\n    tag_45:\n        /* \"#utility.yul\":2263:2268   */\n      0x00\n        /* \"#utility.yul\":2301:2307   */\n      dup2\n        /* \"#utility.yul\":2288:2308   */\n      calldataload\n        /* \"#utility.yul\":2279:2308   */\n      swap1\n      pop\n        /* \"#utility.yul\":2317:2358   */\n      tag_77\n        /* \"#utility.yul\":2352:2357   */\n      dup2\n        /* \"#utility.yul\":2317:2358   */\n      tag_44\n      jump\t// in\n    tag_77:\n        /* \"#utility.yul\":2209:2364   */\n      swap3\n      swap2\n      pop\n      pop\n      jump\t// out\n        /* \"#utility.yul\":2370:2715   */\n    tag_27:\n        /* \"#utility.yul\":2437:2443   */\n      0x00\n        /* \"#utility.yul\":2486:2488   */\n      0x20\n        /* \"#utility.yul\":2474:2483   */\n      dup3\n        /* \"#utility.yul\":2465:2472   */\n      dup5\n        /* \"#utility.yul\":2461:2484   */\n      sub\n        /* \"#utility.yul\":2457:2489   */\n      slt\n        /* \"#utility.yul\":2454:2573   */\n      iszero\n      tag_79\n      jumpi\n        /* \"#utility.yul\":2492:2571   */\n      tag_80\n      tag_34\n      jump\t// in\n    tag_80:\n        /* \"#utility.yul\":2454:2573   */\n    tag_79:\n        /* \"#utility.yul\":2612:2613   */\n      0x00\n        /* \"#utility.yul\":2637:2698   */\n      tag_81\n        /* \"#utility.yul\":2690:2697   */\n      dup5\n        /* \"#utility.yul\":2681:2687   */\n      dup3\n        /* \"#utility.yul\":2670:2679   */\n      dup6\n        /* \"#utility.yul\":2666:2688   */\n      add\n        /* \"#utility.yul\":2637:2698   */\n      tag_45\n      jump\t// in\n    tag_81:\n        /* \"#utility.yul\":2627:2698   */\n      swap2\n      pop\n        /* \"#utility.yul\":2583:2708   */\n      pop\n        /* \"#utility.yul\":2370:2715   */\n      swap3\n      swap2\n      pop\n      pop\n      jump\t// out\n\n    auxdata: 0xa2646970667358221220ad38689d6a1cb0203dcb1ac52af5c65c5caf2bba0b1f084052275b00df9c810e64736f6c63430008140033\n}\n",
				"bytecode": {
					"linkReferences": {},
					"object": "608060405234801561000f575f80fd5b506102a48061001d5f395ff3fe608060405260043610610042575f3560e01c80630c49c36c1461004d578063162790551461006357806338cc48311461009f5780639d02a866146100c957610049565b3661004957005b5f80fd5b348015610058575f80fd5b506100616100f1565b005b34801561006e575f80fd5b5061008960048036038101906100849190610182565b6100f3565b60405161009691906101c7565b60405180910390f35b3480156100aa575f80fd5b506100b3610104565b6040516100c091906101ef565b60405180910390f35b3480156100d4575f80fd5b506100ef60048036038101906100ea9190610243565b61010b565b005b565b5f80823b90505f8111915050919050565b5f30905090565b8073ffffffffffffffffffffffffffffffffffffffff16ff5b5f80fd5b5f73ffffffffffffffffffffffffffffffffffffffff82169050919050565b5f61015182610128565b9050919050565b61016181610147565b811461016b575f80fd5b50565b5f8135905061017c81610158565b92915050565b5f6020828403121561019757610196610124565b5b5f6101a48482850161016e565b91505092915050565b5f8115159050919050565b6101c1816101ad565b82525050565b5f6020820190506101da5f8301846101b8565b92915050565b6101e981610147565b82525050565b5f6020820190506102025f8301846101e0565b92915050565b5f61021282610128565b9050919050565b61022281610208565b811461022c575f80fd5b50565b5f8135905061023d81610219565b92915050565b5f6020828403121561025857610257610124565b5b5f6102658482850161022f565b9150509291505056fea2646970667358221220ad38689d6a1cb0203dcb1ac52af5c65c5caf2bba0b1f084052275b00df9c810e64736f6c63430008140033",
					"opcodes": "PUSH1 0x80 PUSH1 0x40 MSTORE CALLVALUE DUP1 ISZERO PUSH2 0xF JUMPI PUSH0 DUP1 REVERT JUMPDEST POP PUSH2 0x2A4 DUP1 PUSH2 0x1D PUSH0 CODECOPY PUSH0 RETURN INVALID PUSH1 0x80 PUSH1 0x40 MSTORE PUSH1 0x4 CALLDATASIZE LT PUSH2 0x42 JUMPI PUSH0 CALLDATALOAD PUSH1 0xE0 SHR DUP1 PUSH4 0xC49C36C EQ PUSH2 0x4D JUMPI DUP1 PUSH4 0x16279055 EQ PUSH2 0x63 JUMPI DUP1 PUSH4 0x38CC4831 EQ PUSH2 0x9F JUMPI DUP1 PUSH4 0x9D02A866 EQ PUSH2 0xC9 JUMPI PUSH2 0x49 JUMP JUMPDEST CALLDATASIZE PUSH2 0x49 JUMPI STOP JUMPDEST PUSH0 DUP1 REVERT JUMPDEST CALLVALUE DUP1 ISZERO PUSH2 0x58 JUMPI PUSH0 DUP1 REVERT JUMPDEST POP PUSH2 0x61 PUSH2 0xF1 JUMP JUMPDEST STOP JUMPDEST CALLVALUE DUP1 ISZERO PUSH2 0x6E JUMPI PUSH0 DUP1 REVERT JUMPDEST POP PUSH2 0x89 PUSH1 0x4 DUP1 CALLDATASIZE SUB DUP2 ADD SWAP1 PUSH2 0x84 SWAP2 SWAP1 PUSH2 0x182 JUMP JUMPDEST PUSH2 0xF3 JUMP JUMPDEST PUSH1 0x40 MLOAD PUSH2 0x96 SWAP2 SWAP1 PUSH2 0x1C7 JUMP JUMPDEST PUSH1 0x40 MLOAD DUP1 SWAP2 SUB SWAP1 RETURN JUMPDEST CALLVALUE DUP1 ISZERO PUSH2 0xAA JUMPI PUSH0 DUP1 REVERT JUMPDEST POP PUSH2 0xB3 PUSH2 0x104 JUMP JUMPDEST PUSH1 0x40 MLOAD PUSH2 0xC0 SWAP2 SWAP1 PUSH2 0x1EF JUMP JUMPDEST PUSH1 0x40 MLOAD DUP1 SWAP2 SUB SWAP1 RETURN JUMPDEST CALLVALUE DUP1 ISZERO PUSH2 0xD4 JUMPI PUSH0 DUP1 REVERT JUMPDEST POP PUSH2 0xEF PUSH1 0x4 DUP1 CALLDATASIZE SUB DUP2 ADD SWAP1 PUSH2 0xEA SWAP2 SWAP1 PUSH2 0x243 JUMP JUMPDEST PUSH2 0x10B JUMP JUMPDEST STOP JUMPDEST JUMP JUMPDEST PUSH0 DUP1 DUP3 EXTCODESIZE SWAP1 POP PUSH0 DUP2 GT SWAP2 POP POP SWAP2 SWAP1 POP JUMP JUMPDEST PUSH0 ADDRESS SWAP1 POP SWAP1 JUMP JUMPDEST DUP1 PUSH20 0xFFFFFFFFFFFFFFFFFFFFFFFFFFFFFFFFFFFFFFFF AND SELFDESTRUCT JUMPDEST PUSH0 DUP1 REVERT JUMPDEST PUSH0 PUSH20 0xFFFFFFFFFFFFFFFFFFFFFFFFFFFFFFFFFFFFFFFF DUP3 AND SWAP1 POP SWAP2 SWAP1 POP JUMP JUMPDEST PUSH0 PUSH2 0x151 DUP3 PUSH2 0x128 JUMP JUMPDEST SWAP1 POP SWAP2 SWAP1 POP JUMP JUMPDEST PUSH2 0x161 DUP2 PUSH2 0x147 JUMP JUMPDEST DUP2 EQ PUSH2 0x16B JUMPI PUSH0 DUP1 REVERT JUMPDEST POP JUMP JUMPDEST PUSH0 DUP2 CALLDATALOAD SWAP1 POP PUSH2 0x17C DUP2 PUSH2 0x158 JUMP JUMPDEST SWAP3 SWAP2 POP POP JUMP JUMPDEST PUSH0 PUSH1 0x20 DUP3 DUP5 SUB SLT ISZERO PUSH2 0x197 JUMPI PUSH2 0x196 PUSH2 0x124 JUMP JUMPDEST JUMPDEST PUSH0 PUSH2 0x1A4 DUP5 DUP3 DUP6 ADD PUSH2 0x16E JUMP JUMPDEST SWAP2 POP POP SWAP3 SWAP2 POP POP JUMP JUMPDEST PUSH0 DUP2 ISZERO ISZERO SWAP1 POP SWAP2 SWAP1 POP JUMP JUMPDEST PUSH2 0x1C1 DUP2 PUSH2 0x1AD JUMP JUMPDEST DUP3 MSTORE POP POP JUMP JUMPDEST PUSH0 PUSH1 0x20 DUP3 ADD SWAP1 POP PUSH2 0x1DA PUSH0 DUP4 ADD DUP5 PUSH2 0x1B8 JUMP JUMPDEST SWAP3 SWAP2 POP POP JUMP JUMPDEST PUSH2 0x1E9 DUP2 PUSH2 0x147 JUMP JUMPDEST DUP3 MSTORE POP POP JUMP JUMPDEST PUSH0 PUSH1 0x20 DUP3 ADD SWAP1 POP PUSH2 0x202 PUSH0 DUP4 ADD DUP5 PUSH2 0x1E0 JUMP JUMPDEST SWAP3 SWAP2 POP POP JUMP JUMPDEST PUSH0 PUSH2 0x212 DUP3 PUSH2 0x128 JUMP JUMPDEST SWAP1 POP SWAP2 SWAP1 POP JUMP JUMPDEST PUSH2 0x222 DUP2 PUSH2 0x208 JUMP JUMPDEST DUP2 EQ PUSH2 0x22C JUMPI PUSH0 DUP1 REVERT JUMPDEST POP JUMP JUMPDEST PUSH0 DUP2 CALLDATALOAD SWAP1 POP PUSH2 0x23D DUP2 PUSH2 0x219 JUMP JUMPDEST SWAP3 SWAP2 POP POP JUMP JUMPDEST PUSH0 PUSH1 0x20 DUP3 DUP5 SUB SLT ISZERO PUSH2 0x258 JUMPI PUSH2 0x257 PUSH2 0x124 JUMP JUMPDEST JUMPDEST PUSH0 PUSH2 0x265 DUP5 DUP3 DUP6 ADD PUSH2 0x22F JUMP JUMPDEST SWAP2 POP POP SWAP3 SWAP2 POP POP JUMP INVALID LOG2 PUSH5 0x6970667358 0x22 SLT KECCAK256 0xAD CODESIZE PUSH9 0x9D6A1CB0203DCB1AC5 0x2A CREATE2 0xC6 0x5C 0x5C 0xAF 0x2B 0xBA SIGNEXTEND 0x1F ADDMOD BLOCKHASH MSTORE 0x27 JUMPDEST STOP 0xDF SWAP13 DUP2 0xE PUSH5 0x736F6C6343 STOP ADDMOD EQ STOP CALLER "
				},
				"gasEstimates": {
					"creation": {
						"codeDepositCost": "135200",
						"executionCost": "181",
						"totalCost": "135381"
					},
					"external": {
						"destoryContract(address)": "28091",
						"getAddress()": "401",
						"isContract(address)": "3265",
						"sayHi()": "121"
					}
				},
				"methodIdentifiers": {
					"destoryContract(address)": "9d02a866",
					"getAddress()": "38cc4831",
					"isContract(address)": "16279055",
					"sayHi()": "0c49c36c"
				}
			},
			"storageLayout": {
				"storage": [],
				"types": null
			},
			"userdoc": {
				"kind": "user",
				"methods": {},
				"version": 1
			}
		}
	}
}