{
	"contracts/homework/act3/2.interfaes/interfaces.sol": {
		"Bank": {
			"abi": [
				{
					"inputs": [],
					"name": "deposit",
					"outputs": [],
					"stateMutability": "payable",
					"type": "function"
				},
				{
					"inputs": [
						{
							"internalType": "uint256",
							"name": "amount",
							"type": "uint256"
						}
					],
					"name": "withdraw",
					"outputs": [],
					"stateMutability": "nonpayable",
					"type": "function"
				}
			],
			"devdoc": {
				"kind": "dev",
				"methods": {},
				"version": 1
			},
			"evm": {
				"assembly": "    /* \"contracts/homework/act3/2.interfaes/interfaces.sol\":648:1089  contract Bank is IVault {... */\n  mstore(0x40, 0x80)\n  callvalue\n  dup1\n  iszero\n  tag_1\n  jumpi\n  0x00\n  dup1\n  revert\ntag_1:\n  pop\n  dataSize(sub_0)\n  dup1\n  dataOffset(sub_0)\n  0x00\n  codecopy\n  0x00\n  return\nstop\n\nsub_0: assembly {\n        /* \"contracts/homework/act3/2.interfaes/interfaces.sol\":648:1089  contract Bank is IVault {... */\n      mstore(0x40, 0x80)\n      jumpi(tag_1, lt(calldatasize, 0x04))\n      shr(0xe0, calldataload(0x00))\n      dup1\n      0x2e1a7d4d\n      eq\n      tag_2\n      jumpi\n      dup1\n      0xd0e30db0\n      eq\n      tag_3\n      jumpi\n    tag_1:\n      0x00\n      dup1\n      revert\n        /* \"contracts/homework/act3/2.interfaes/interfaces.sol\":831:1087  function withdraw(uint256 amount) external override  {... */\n    tag_2:\n      callvalue\n      dup1\n      iszero\n      tag_4\n      jumpi\n      0x00\n      dup1\n      revert\n    tag_4:\n      pop\n      tag_5\n      0x04\n      dup1\n      calldatasize\n      sub\n      dup2\n      add\n      swap1\n      tag_6\n      swap2\n      swap1\n      tag_7\n      jump\t// in\n    tag_6:\n      tag_8\n      jump\t// in\n    tag_5:\n      stop\n        /* \"contracts/homework/act3/2.interfaes/interfaces.sol\":729:825  function deposit() payable external override  {... */\n    tag_3:\n      tag_9\n      tag_10\n      jump\t// in\n    tag_9:\n      stop\n        /* \"contracts/homework/act3/2.interfaes/interfaces.sol\":831:1087  function withdraw(uint256 amount) external override  {... */\n    tag_8:\n        /* \"contracts/homework/act3/2.interfaes/interfaces.sol\":909:910  0 */\n      0x00\n        /* \"contracts/homework/act3/2.interfaes/interfaces.sol\":902:908  amount */\n      dup2\n        /* \"contracts/homework/act3/2.interfaes/interfaces.sol\":902:910  amount>0 */\n      gt\n        /* \"contracts/homework/act3/2.interfaes/interfaces.sol\":894:911  require(amount>0) */\n      tag_12\n      jumpi\n      0x00\n      dup1\n      revert\n    tag_12:\n        /* \"contracts/homework/act3/2.interfaes/interfaces.sol\":950:951  0 */\n      0x00\n        /* \"contracts/homework/act3/2.interfaes/interfaces.sol\":929:937  balances */\n      dup1\n        /* \"contracts/homework/act3/2.interfaes/interfaces.sol\":929:949  balances[msg.sender] */\n      0x00\n        /* \"contracts/homework/act3/2.interfaes/interfaces.sol\":938:948  msg.sender */\n      caller\n        /* \"contracts/homework/act3/2.interfaes/interfaces.sol\":929:949  balances[msg.sender] */\n      0xffffffffffffffffffffffffffffffffffffffff\n      and\n      0xffffffffffffffffffffffffffffffffffffffff\n      and\n      dup2\n      mstore\n      0x20\n      add\n      swap1\n      dup2\n      mstore\n      0x20\n      add\n      0x00\n      keccak256\n      sload\n        /* \"contracts/homework/act3/2.interfaes/interfaces.sol\":929:951  balances[msg.sender]>0 */\n      gt\n        /* \"contracts/homework/act3/2.interfaes/interfaces.sol\":921:952  require(balances[msg.sender]>0) */\n      tag_13\n      jumpi\n      0x00\n      dup1\n      revert\n    tag_13:\n        /* \"contracts/homework/act3/2.interfaes/interfaces.sol\":986:992  amount */\n      dup1\n        /* \"contracts/homework/act3/2.interfaes/interfaces.sol\":962:970  balances */\n      0x00\n        /* \"contracts/homework/act3/2.interfaes/interfaces.sol\":962:982  balances[msg.sender] */\n      dup1\n        /* \"contracts/homework/act3/2.interfaes/interfaces.sol\":971:981  msg.sender */\n      caller\n        /* \"contracts/homework/act3/2.interfaes/interfaces.sol\":962:982  balances[msg.sender] */\n      0xffffffffffffffffffffffffffffffffffffffff\n      and\n      0xffffffffffffffffffffffffffffffffffffffff\n      and\n      dup2\n      mstore\n      0x20\n      add\n      swap1\n      dup2\n      mstore\n      0x20\n      add\n      0x00\n      keccak256\n      0x00\n        /* \"contracts/homework/act3/2.interfaes/interfaces.sol\":962:992  balances[msg.sender] -= amount */\n      dup3\n      dup3\n      sload\n      tag_14\n      swap2\n      swap1\n      tag_15\n      jump\t// in\n    tag_14:\n      swap3\n      pop\n      pop\n      dup2\n      swap1\n      sstore\n      pop\n        /* \"contracts/homework/act3/2.interfaes/interfaces.sol\":1003:1015  bool success */\n      0x00\n        /* \"contracts/homework/act3/2.interfaes/interfaces.sol\":1020:1030  msg.sender */\n      caller\n        /* \"contracts/homework/act3/2.interfaes/interfaces.sol\":1020:1035  msg.sender.call */\n      0xffffffffffffffffffffffffffffffffffffffff\n      and\n        /* \"contracts/homework/act3/2.interfaes/interfaces.sol\":1043:1049  amount */\n      dup3\n        /* \"contracts/homework/act3/2.interfaes/interfaces.sol\":1020:1054  msg.sender.call{value: amount}(\"\") */\n      mload(0x40)\n      tag_16\n      swap1\n      tag_17\n      jump\t// in\n    tag_16:\n      0x00\n      mload(0x40)\n      dup1\n      dup4\n      sub\n      dup2\n      dup6\n      dup8\n      gas\n      call\n      swap3\n      pop\n      pop\n      pop\n      returndatasize\n      dup1\n      0x00\n      dup2\n      eq\n      tag_20\n      jumpi\n      mload(0x40)\n      swap2\n      pop\n      and(add(returndatasize, 0x3f), not(0x1f))\n      dup3\n      add\n      0x40\n      mstore\n      returndatasize\n      dup3\n      mstore\n      returndatasize\n      0x00\n      0x20\n      dup5\n      add\n      returndatacopy\n      jump(tag_19)\n    tag_20:\n      0x60\n      swap2\n      pop\n    tag_19:\n      pop\n        /* \"contracts/homework/act3/2.interfaes/interfaces.sol\":1002:1054  (bool success,) = msg.sender.call{value: amount}(\"\") */\n      pop\n      swap1\n      pop\n        /* \"contracts/homework/act3/2.interfaes/interfaces.sol\":1072:1079  success */\n      dup1\n        /* \"contracts/homework/act3/2.interfaes/interfaces.sol\":1064:1080  require(success) */\n      tag_21\n      jumpi\n      0x00\n      dup1\n      revert\n    tag_21:\n        /* \"contracts/homework/act3/2.interfaes/interfaces.sol\":884:1087  {... */\n      pop\n        /* \"contracts/homework/act3/2.interfaes/interfaces.sol\":831:1087  function withdraw(uint256 amount) external override  {... */\n      pop\n      jump\t// out\n        /* \"contracts/homework/act3/2.interfaes/interfaces.sol\":729:825  function deposit() payable external override  {... */\n    tag_10:\n        /* \"contracts/homework/act3/2.interfaes/interfaces.sol\":809:818  msg.value */\n      callvalue\n        /* \"contracts/homework/act3/2.interfaes/interfaces.sol\":785:793  balances */\n      0x00\n        /* \"contracts/homework/act3/2.interfaes/interfaces.sol\":785:805  balances[msg.sender] */\n      dup1\n        /* \"contracts/homework/act3/2.interfaes/interfaces.sol\":794:804  msg.sender */\n      caller\n        /* \"contracts/homework/act3/2.interfaes/interfaces.sol\":785:805  balances[msg.sender] */\n      0xffffffffffffffffffffffffffffffffffffffff\n      and\n      0xffffffffffffffffffffffffffffffffffffffff\n      and\n      dup2\n      mstore\n      0x20\n      add\n      swap1\n      dup2\n      mstore\n      0x20\n      add\n      0x00\n      keccak256\n      0x00\n        /* \"contracts/homework/act3/2.interfaes/interfaces.sol\":785:818  balances[msg.sender] += msg.value */\n      dup3\n      dup3\n      sload\n      tag_23\n      swap2\n      swap1\n      tag_24\n      jump\t// in\n    tag_23:\n      swap3\n      pop\n      pop\n      dup2\n      swap1\n      sstore\n      pop\n        /* \"contracts/homework/act3/2.interfaes/interfaces.sol\":729:825  function deposit() payable external override  {... */\n      jump\t// out\n        /* \"#utility.yul\":88:205   */\n    tag_26:\n        /* \"#utility.yul\":197:198   */\n      0x00\n        /* \"#utility.yul\":194:195   */\n      dup1\n        /* \"#utility.yul\":187:199   */\n      revert\n        /* \"#utility.yul\":334:411   */\n    tag_28:\n        /* \"#utility.yul\":371:378   */\n      0x00\n        /* \"#utility.yul\":400:405   */\n      dup2\n        /* \"#utility.yul\":389:405   */\n      swap1\n      pop\n        /* \"#utility.yul\":334:411   */\n      swap2\n      swap1\n      pop\n      jump\t// out\n        /* \"#utility.yul\":417:539   */\n    tag_29:\n        /* \"#utility.yul\":490:514   */\n      tag_41\n        /* \"#utility.yul\":508:513   */\n      dup2\n        /* \"#utility.yul\":490:514   */\n      tag_28\n      jump\t// in\n    tag_41:\n        /* \"#utility.yul\":483:488   */\n      dup2\n        /* \"#utility.yul\":480:515   */\n      eq\n        /* \"#utility.yul\":470:533   */\n      tag_42\n      jumpi\n        /* \"#utility.yul\":529:530   */\n      0x00\n        /* \"#utility.yul\":526:527   */\n      dup1\n        /* \"#utility.yul\":519:531   */\n      revert\n        /* \"#utility.yul\":470:533   */\n    tag_42:\n        /* \"#utility.yul\":417:539   */\n      pop\n      jump\t// out\n        /* \"#utility.yul\":545:684   */\n    tag_30:\n        /* \"#utility.yul\":591:596   */\n      0x00\n        /* \"#utility.yul\":629:635   */\n      dup2\n        /* \"#utility.yul\":616:636   */\n      calldataload\n        /* \"#utility.yul\":607:636   */\n      swap1\n      pop\n        /* \"#utility.yul\":645:678   */\n      tag_44\n        /* \"#utility.yul\":672:677   */\n      dup2\n        /* \"#utility.yul\":645:678   */\n      tag_29\n      jump\t// in\n    tag_44:\n        /* \"#utility.yul\":545:684   */\n      swap3\n      swap2\n      pop\n      pop\n      jump\t// out\n        /* \"#utility.yul\":690:1019   */\n    tag_7:\n        /* \"#utility.yul\":749:755   */\n      0x00\n        /* \"#utility.yul\":798:800   */\n      0x20\n        /* \"#utility.yul\":786:795   */\n      dup3\n        /* \"#utility.yul\":777:784   */\n      dup5\n        /* \"#utility.yul\":773:796   */\n      sub\n        /* \"#utility.yul\":769:801   */\n      slt\n        /* \"#utility.yul\":766:885   */\n      iszero\n      tag_46\n      jumpi\n        /* \"#utility.yul\":804:883   */\n      tag_47\n      tag_26\n      jump\t// in\n    tag_47:\n        /* \"#utility.yul\":766:885   */\n    tag_46:\n        /* \"#utility.yul\":924:925   */\n      0x00\n        /* \"#utility.yul\":949:1002   */\n      tag_48\n        /* \"#utility.yul\":994:1001   */\n      dup5\n        /* \"#utility.yul\":985:991   */\n      dup3\n        /* \"#utility.yul\":974:983   */\n      dup6\n        /* \"#utility.yul\":970:992   */\n      add\n        /* \"#utility.yul\":949:1002   */\n      tag_30\n      jump\t// in\n    tag_48:\n        /* \"#utility.yul\":939:1002   */\n      swap2\n      pop\n        /* \"#utility.yul\":895:1012   */\n      pop\n        /* \"#utility.yul\":690:1019   */\n      swap3\n      swap2\n      pop\n      pop\n      jump\t// out\n        /* \"#utility.yul\":1025:1205   */\n    tag_31:\n        /* \"#utility.yul\":1073:1150   */\n      0x4e487b7100000000000000000000000000000000000000000000000000000000\n        /* \"#utility.yul\":1070:1071   */\n      0x00\n        /* \"#utility.yul\":1063:1151   */\n      mstore\n        /* \"#utility.yul\":1170:1174   */\n      0x11\n        /* \"#utility.yul\":1167:1168   */\n      0x04\n        /* \"#utility.yul\":1160:1175   */\n      mstore\n        /* \"#utility.yul\":1194:1198   */\n      0x24\n        /* \"#utility.yul\":1191:1192   */\n      0x00\n        /* \"#utility.yul\":1184:1199   */\n      revert\n        /* \"#utility.yul\":1211:1405   */\n    tag_15:\n        /* \"#utility.yul\":1251:1255   */\n      0x00\n        /* \"#utility.yul\":1271:1291   */\n      tag_51\n        /* \"#utility.yul\":1289:1290   */\n      dup3\n        /* \"#utility.yul\":1271:1291   */\n      tag_28\n      jump\t// in\n    tag_51:\n        /* \"#utility.yul\":1266:1291   */\n      swap2\n      pop\n        /* \"#utility.yul\":1305:1325   */\n      tag_52\n        /* \"#utility.yul\":1323:1324   */\n      dup4\n        /* \"#utility.yul\":1305:1325   */\n      tag_28\n      jump\t// in\n    tag_52:\n        /* \"#utility.yul\":1300:1325   */\n      swap3\n      pop\n        /* \"#utility.yul\":1349:1350   */\n      dup3\n        /* \"#utility.yul\":1346:1347   */\n      dup3\n        /* \"#utility.yul\":1342:1351   */\n      sub\n        /* \"#utility.yul\":1334:1351   */\n      swap1\n      pop\n        /* \"#utility.yul\":1373:1374   */\n      dup2\n        /* \"#utility.yul\":1367:1371   */\n      dup2\n        /* \"#utility.yul\":1364:1375   */\n      gt\n        /* \"#utility.yul\":1361:1398   */\n      iszero\n      tag_53\n      jumpi\n        /* \"#utility.yul\":1378:1396   */\n      tag_54\n      tag_31\n      jump\t// in\n    tag_54:\n        /* \"#utility.yul\":1361:1398   */\n    tag_53:\n        /* \"#utility.yul\":1211:1405   */\n      swap3\n      swap2\n      pop\n      pop\n      jump\t// out\n        /* \"#utility.yul\":1411:1558   */\n    tag_32:\n        /* \"#utility.yul\":1512:1523   */\n      0x00\n        /* \"#utility.yul\":1549:1552   */\n      dup2\n        /* \"#utility.yul\":1534:1552   */\n      swap1\n      pop\n        /* \"#utility.yul\":1411:1558   */\n      swap3\n      swap2\n      pop\n      pop\n      jump\t// out\n        /* \"#utility.yul\":1564:1678   */\n    tag_33:\n      pop\n      jump\t// out\n        /* \"#utility.yul\":1684:2082   */\n    tag_34:\n        /* \"#utility.yul\":1843:1846   */\n      0x00\n        /* \"#utility.yul\":1864:1947   */\n      tag_58\n        /* \"#utility.yul\":1945:1946   */\n      0x00\n        /* \"#utility.yul\":1940:1943   */\n      dup4\n        /* \"#utility.yul\":1864:1947   */\n      tag_32\n      jump\t// in\n    tag_58:\n        /* \"#utility.yul\":1857:1947   */\n      swap2\n      pop\n        /* \"#utility.yul\":1956:2049   */\n      tag_59\n        /* \"#utility.yul\":2045:2048   */\n      dup3\n        /* \"#utility.yul\":1956:2049   */\n      tag_33\n      jump\t// in\n    tag_59:\n        /* \"#utility.yul\":2074:2075   */\n      0x00\n        /* \"#utility.yul\":2069:2072   */\n      dup3\n        /* \"#utility.yul\":2065:2076   */\n      add\n        /* \"#utility.yul\":2058:2076   */\n      swap1\n      pop\n        /* \"#utility.yul\":1684:2082   */\n      swap2\n      swap1\n      pop\n      jump\t// out\n        /* \"#utility.yul\":2088:2467   */\n    tag_17:\n        /* \"#utility.yul\":2272:2275   */\n      0x00\n        /* \"#utility.yul\":2294:2441   */\n      tag_61\n        /* \"#utility.yul\":2437:2440   */\n      dup3\n        /* \"#utility.yul\":2294:2441   */\n      tag_34\n      jump\t// in\n    tag_61:\n        /* \"#utility.yul\":2287:2441   */\n      swap2\n      pop\n        /* \"#utility.yul\":2458:2461   */\n      dup2\n        /* \"#utility.yul\":2451:2461   */\n      swap1\n      pop\n        /* \"#utility.yul\":2088:2467   */\n      swap2\n      swap1\n      pop\n      jump\t// out\n        /* \"#utility.yul\":2473:2664   */\n    tag_24:\n        /* \"#utility.yul\":2513:2516   */\n      0x00\n        /* \"#utility.yul\":2532:2552   */\n      tag_63\n        /* \"#utility.yul\":2550:2551   */\n      dup3\n        /* \"#utility.yul\":2532:2552   */\n      tag_28\n      jump\t// in\n    tag_63:\n        /* \"#utility.yul\":2527:2552   */\n      swap2\n      pop\n        /* \"#utility.yul\":2566:2586   */\n      tag_64\n        /* \"#utility.yul\":2584:2585   */\n      dup4\n        /* \"#utility.yul\":2566:2586   */\n      tag_28\n      jump\t// in\n    tag_64:\n        /* \"#utility.yul\":2561:2586   */\n      swap3\n      pop\n        /* \"#utility.yul\":2609:2610   */\n      dup3\n        /* \"#utility.yul\":2606:2607   */\n      dup3\n        /* \"#utility.yul\":2602:2611   */\n      add\n        /* \"#utility.yul\":2595:2611   */\n      swap1\n      pop\n        /* \"#utility.yul\":2630:2633   */\n      dup1\n        /* \"#utility.yul\":2627:2628   */\n      dup3\n        /* \"#utility.yul\":2624:2634   */\n      gt\n        /* \"#utility.yul\":2621:2657   */\n      iszero\n      tag_65\n      jumpi\n        /* \"#utility.yul\":2637:2655   */\n      tag_66\n      tag_31\n      jump\t// in\n    tag_66:\n        /* \"#utility.yul\":2621:2657   */\n    tag_65:\n        /* \"#utility.yul\":2473:2664   */\n      swap3\n      swap2\n      pop\n      pop\n      jump\t// out\n\n    auxdata: 0xa2646970667358221220cee298471915ff4284aed9d3aba3159ea3c5a059753d59e4ce82ac8a58c8b1db64736f6c63430008140033\n}\n",
				"bytecode": {
					"linkReferences": {},
					"object": "608060405234801561000f575f80fd5b506103378061001d5f395ff3fe608060405260043610610028575f3560e01c80632e1a7d4d1461002c578063d0e30db014610054575b5f80fd5b348015610037575f80fd5b50610052600480360381019061004d9190610202565b61005e565b005b61005c610177565b005b5f8111610069575f80fd5b5f805f3373ffffffffffffffffffffffffffffffffffffffff1673ffffffffffffffffffffffffffffffffffffffff1681526020019081526020015f2054116100b0575f80fd5b805f803373ffffffffffffffffffffffffffffffffffffffff1673ffffffffffffffffffffffffffffffffffffffff1681526020019081526020015f205f8282546100fb919061025a565b925050819055505f3373ffffffffffffffffffffffffffffffffffffffff1682604051610127906102ba565b5f6040518083038185875af1925050503d805f8114610161576040519150601f19603f3d011682016040523d82523d5f602084013e610166565b606091505b5050905080610173575f80fd5b5050565b345f803373ffffffffffffffffffffffffffffffffffffffff1673ffffffffffffffffffffffffffffffffffffffff1681526020019081526020015f205f8282546101c291906102ce565b92505081905550565b5f80fd5b5f819050919050565b6101e1816101cf565b81146101eb575f80fd5b50565b5f813590506101fc816101d8565b92915050565b5f60208284031215610217576102166101cb565b5b5f610224848285016101ee565b91505092915050565b7f4e487b71000000000000000000000000000000000000000000000000000000005f52601160045260245ffd5b5f610264826101cf565b915061026f836101cf565b92508282039050818111156102875761028661022d565b5b92915050565b5f81905092915050565b50565b5f6102a55f8361028d565b91506102b082610297565b5f82019050919050565b5f6102c48261029a565b9150819050919050565b5f6102d8826101cf565b91506102e3836101cf565b92508282019050808211156102fb576102fa61022d565b5b9291505056fea2646970667358221220cee298471915ff4284aed9d3aba3159ea3c5a059753d59e4ce82ac8a58c8b1db64736f6c63430008140033",
					"opcodes": "PUSH1 0x80 PUSH1 0x40 MSTORE CALLVALUE DUP1 ISZERO PUSH2 0xF JUMPI PUSH0 DUP1 REVERT JUMPDEST POP PUSH2 0x337 DUP1 PUSH2 0x1D PUSH0 CODECOPY PUSH0 RETURN INVALID PUSH1 0x80 PUSH1 0x40 MSTORE PUSH1 0x4 CALLDATASIZE LT PUSH2 0x28 JUMPI PUSH0 CALLDATALOAD PUSH1 0xE0 SHR DUP1 PUSH4 0x2E1A7D4D EQ PUSH2 0x2C JUMPI DUP1 PUSH4 0xD0E30DB0 EQ PUSH2 0x54 JUMPI JUMPDEST PUSH0 DUP1 REVERT JUMPDEST CALLVALUE DUP1 ISZERO PUSH2 0x37 JUMPI PUSH0 DUP1 REVERT JUMPDEST POP PUSH2 0x52 PUSH1 0x4 DUP1 CALLDATASIZE SUB DUP2 ADD SWAP1 PUSH2 0x4D SWAP2 SWAP1 PUSH2 0x202 JUMP JUMPDEST PUSH2 0x5E JUMP JUMPDEST STOP JUMPDEST PUSH2 0x5C PUSH2 0x177 JUMP JUMPDEST STOP JUMPDEST PUSH0 DUP2 GT PUSH2 0x69 JUMPI PUSH0 DUP1 REVERT JUMPDEST PUSH0 DUP1 PUSH0 CALLER PUSH20 0xFFFFFFFFFFFFFFFFFFFFFFFFFFFFFFFFFFFFFFFF AND PUSH20 0xFFFFFFFFFFFFFFFFFFFFFFFFFFFFFFFFFFFFFFFF AND DUP2 MSTORE PUSH1 0x20 ADD SWAP1 DUP2 MSTORE PUSH1 0x20 ADD PUSH0 KECCAK256 SLOAD GT PUSH2 0xB0 JUMPI PUSH0 DUP1 REVERT JUMPDEST DUP1 PUSH0 DUP1 CALLER PUSH20 0xFFFFFFFFFFFFFFFFFFFFFFFFFFFFFFFFFFFFFFFF AND PUSH20 0xFFFFFFFFFFFFFFFFFFFFFFFFFFFFFFFFFFFFFFFF AND DUP2 MSTORE PUSH1 0x20 ADD SWAP1 DUP2 MSTORE PUSH1 0x20 ADD PUSH0 KECCAK256 PUSH0 DUP3 DUP3 SLOAD PUSH2 0xFB SWAP2 SWAP1 PUSH2 0x25A JUMP JUMPDEST SWAP3 POP POP DUP2 SWAP1 SSTORE POP PUSH0 CALLER PUSH20 0xFFFFFFFFFFFFFFFFFFFFFFFFFFFFFFFFFFFFFFFF AND DUP3 PUSH1 0x40 MLOAD PUSH2 0x127 SWAP1 PUSH2 0x2BA JUMP JUMPDEST PUSH0 PUSH1 0x40 MLOAD DUP1 DUP4 SUB DUP2 DUP6 DUP8 GAS CALL SWAP3 POP POP POP RETURNDATASIZE DUP1 PUSH0 DUP2 EQ PUSH2 0x161 JUMPI PUSH1 0x40 MLOAD SWAP2 POP PUSH1 0x1F NOT PUSH1 0x3F RETURNDATASIZE ADD AND DUP3 ADD PUSH1 0x40 MSTORE RETURNDATASIZE DUP3 MSTORE RETURNDATASIZE PUSH0 PUSH1 0x20 DUP5 ADD RETURNDATACOPY PUSH2 0x166 JUMP JUMPDEST PUSH1 0x60 SWAP2 POP JUMPDEST POP POP SWAP1 POP DUP1 PUSH2 0x173 JUMPI PUSH0 DUP1 REVERT JUMPDEST POP POP JUMP JUMPDEST CALLVALUE PUSH0 DUP1 CALLER PUSH20 0xFFFFFFFFFFFFFFFFFFFFFFFFFFFFFFFFFFFFFFFF AND PUSH20 0xFFFFFFFFFFFFFFFFFFFFFFFFFFFFFFFFFFFFFFFF AND DUP2 MSTORE PUSH1 0x20 ADD SWAP1 DUP2 MSTORE PUSH1 0x20 ADD PUSH0 KECCAK256 PUSH0 DUP3 DUP3 SLOAD PUSH2 0x1C2 SWAP2 SWAP1 PUSH2 0x2CE JUMP JUMPDEST SWAP3 POP POP DUP2 SWAP1 SSTORE POP JUMP JUMPDEST PUSH0 DUP1 REVERT JUMPDEST PUSH0 DUP2 SWAP1 POP SWAP2 SWAP1 POP JUMP JUMPDEST PUSH2 0x1E1 DUP2 PUSH2 0x1CF JUMP JUMPDEST DUP2 EQ PUSH2 0x1EB JUMPI PUSH0 DUP1 REVERT JUMPDEST POP JUMP JUMPDEST PUSH0 DUP2 CALLDATALOAD SWAP1 POP PUSH2 0x1FC DUP2 PUSH2 0x1D8 JUMP JUMPDEST SWAP3 SWAP2 POP POP JUMP JUMPDEST PUSH0 PUSH1 0x20 DUP3 DUP5 SUB SLT ISZERO PUSH2 0x217 JUMPI PUSH2 0x216 PUSH2 0x1CB JUMP JUMPDEST JUMPDEST PUSH0 PUSH2 0x224 DUP5 DUP3 DUP6 ADD PUSH2 0x1EE JUMP JUMPDEST SWAP2 POP POP SWAP3 SWAP2 POP POP JUMP JUMPDEST PUSH32 0x4E487B7100000000000000000000000000000000000000000000000000000000 PUSH0 MSTORE PUSH1 0x11 PUSH1 0x4 MSTORE PUSH1 0x24 PUSH0 REVERT JUMPDEST PUSH0 PUSH2 0x264 DUP3 PUSH2 0x1CF JUMP JUMPDEST SWAP2 POP PUSH2 0x26F DUP4 PUSH2 0x1CF JUMP JUMPDEST SWAP3 POP DUP3 DUP3 SUB SWAP1 POP DUP2 DUP2 GT ISZERO PUSH2 0x287 JUMPI PUSH2 0x286 PUSH2 0x22D JUMP JUMPDEST JUMPDEST SWAP3 SWAP2 POP POP JUMP JUMPDEST PUSH0 DUP2 SWAP1 POP SWAP3 SWAP2 POP POP JUMP JUMPDEST POP JUMP JUMPDEST PUSH0 PUSH2 0x2A5 PUSH0 DUP4 PUSH2 0x28D JUMP JUMPDEST SWAP2 POP PUSH2 0x2B0 DUP3 PUSH2 0x297 JUMP JUMPDEST PUSH0 DUP3 ADD SWAP1 POP SWAP2 SWAP1 POP JUMP JUMPDEST PUSH0 PUSH2 0x2C4 DUP3 PUSH2 0x29A JUMP JUMPDEST SWAP2 POP DUP2 SWAP1 POP SWAP2 SWAP1 POP JUMP JUMPDEST PUSH0 PUSH2 0x2D8 DUP3 PUSH2 0x1CF JUMP JUMPDEST SWAP2 POP PUSH2 0x2E3 DUP4 PUSH2 0x1CF JUMP JUMPDEST SWAP3 POP DUP3 DUP3 ADD SWAP1 POP DUP1 DUP3 GT ISZERO PUSH2 0x2FB JUMPI PUSH2 0x2FA PUSH2 0x22D JUMP JUMPDEST JUMPDEST SWAP3 SWAP2 POP POP JUMP INVALID LOG2 PUSH5 0x6970667358 0x22 SLT KECCAK256 0xCE 0xE2 SWAP9 SELFBALANCE NOT ISZERO SELFDESTRUCT TIMESTAMP DUP5 0xAE 0xD9 0xD3 0xAB LOG3 ISZERO SWAP15 LOG3 0xC5 LOG0 MSIZE PUSH22 0x3D59E4CE82AC8A58C8B1DB64736F6C63430008140033 "
				},
				"gasEstimates": {
					"creation": {
						"codeDepositCost": "164600",
						"executionCost": "206",
						"totalCost": "164806"
					},
					"external": {
						"deposit()": "infinite",
						"withdraw(uint256)": "infinite"
					}
				},
				"methodIdentifiers": {
					"deposit()": "d0e30db0",
					"withdraw(uint256)": "2e1a7d4d"
				}
			},
			"storageLayout": {
				"storage": [
					{
						"astId": 16,
						"contract": "contracts/homework/act3/2.interfaes/interfaces.sol:Bank",
						"label": "balances",
						"offset": 0,
						"slot": "0",
						"type": "t_mapping(t_address,t_uint256)"
					}
				],
				"types": {
					"t_address": {
						"encoding": "inplace",
						"label": "address",
						"numberOfBytes": "20"
					},
					"t_mapping(t_address,t_uint256)": {
						"encoding": "mapping",
						"key": "t_address",
						"label": "mapping(address => uint256)",
						"numberOfBytes": "32",
						"value": "t_uint256"
					},
					"t_uint256": {
						"encoding": "inplace",
						"label": "uint256",
						"numberOfBytes": "32"
					}
				}
			},
			"userdoc": {
				"kind": "user",
				"methods": {},
				"version": 1
			}
		}
	}
}