{
	"contracts/homework/3.solidityFunctionCall/functionCall.sol": {
		"FunctionCall": {
			"abi": [
				{
					"inputs": [],
					"name": "count",
					"outputs": [
						{
							"internalType": "uint256",
							"name": "",
							"type": "uint256"
						}
					],
					"stateMutability": "view",
					"type": "function"
				},
				{
					"inputs": [
						{
							"internalType": "uint256",
							"name": "n",
							"type": "uint256"
						},
						{
							"internalType": "uint256",
							"name": "m",
							"type": "uint256"
						}
					],
					"name": "countAll",
					"outputs": [
						{
							"internalType": "uint256",
							"name": "sum",
							"type": "uint256"
						},
						{
							"internalType": "uint256",
							"name": "product",
							"type": "uint256"
						}
					],
					"stateMutability": "pure",
					"type": "function"
				},
				{
					"inputs": [
						{
							"internalType": "address",
							"name": "_address",
							"type": "address"
						}
					],
					"name": "doPay",
					"outputs": [],
					"stateMutability": "payable",
					"type": "function"
				}
			],
			"devdoc": {
				"kind": "dev",
				"methods": {},
				"version": 1
			},
			"evm": {
				"assembly": "    /* \"contracts/homework/3.solidityFunctionCall/functionCall.sol\":353:848  contract FunctionCall {... */\n  mstore(0x40, 0x80)\n  callvalue\n  dup1\n  iszero\n  tag_1\n  jumpi\n  0x00\n  dup1\n  revert\ntag_1:\n  pop\n  dataSize(sub_0)\n  dup1\n  dataOffset(sub_0)\n  0x00\n  codecopy\n  0x00\n  return\nstop\n\nsub_0: assembly {\n        /* \"contracts/homework/3.solidityFunctionCall/functionCall.sol\":353:848  contract FunctionCall {... */\n      mstore(0x40, 0x80)\n      jumpi(tag_1, lt(calldatasize, 0x04))\n      shr(0xe0, calldataload(0x00))\n      dup1\n      0x06661abd\n      eq\n      tag_2\n      jumpi\n      dup1\n      0x7e1511e5\n      eq\n      tag_3\n      jumpi\n      dup1\n      0x838ae0f7\n      eq\n      tag_4\n      jumpi\n    tag_1:\n      0x00\n      dup1\n      revert\n        /* \"contracts/homework/3.solidityFunctionCall/functionCall.sol\":407:428  uint256 public  count */\n    tag_2:\n      callvalue\n      dup1\n      iszero\n      tag_5\n      jumpi\n      0x00\n      dup1\n      revert\n    tag_5:\n      pop\n      tag_6\n      tag_7\n      jump\t// in\n    tag_6:\n      mload(0x40)\n      tag_8\n      swap2\n      swap1\n      tag_9\n      jump\t// in\n    tag_8:\n      mload(0x40)\n      dup1\n      swap2\n      sub\n      swap1\n      return\n        /* \"contracts/homework/3.solidityFunctionCall/functionCall.sol\":605:845  function doPay( address _address) public payable {... */\n    tag_3:\n      tag_10\n      0x04\n      dup1\n      calldatasize\n      sub\n      dup2\n      add\n      swap1\n      tag_11\n      swap2\n      swap1\n      tag_12\n      jump\t// in\n    tag_11:\n      tag_13\n      jump\t// in\n    tag_10:\n      stop\n        /* \"contracts/homework/3.solidityFunctionCall/functionCall.sol\":468:599  function countAll(uint n, uint m) public pure returns(uint sum, uint product) {... */\n    tag_4:\n      callvalue\n      dup1\n      iszero\n      tag_14\n      jumpi\n      0x00\n      dup1\n      revert\n    tag_14:\n      pop\n      tag_15\n      0x04\n      dup1\n      calldatasize\n      sub\n      dup2\n      add\n      swap1\n      tag_16\n      swap2\n      swap1\n      tag_17\n      jump\t// in\n    tag_16:\n      tag_18\n      jump\t// in\n    tag_15:\n      mload(0x40)\n      tag_19\n      swap3\n      swap2\n      swap1\n      tag_20\n      jump\t// in\n    tag_19:\n      mload(0x40)\n      dup1\n      swap2\n      sub\n      swap1\n      return\n        /* \"contracts/homework/3.solidityFunctionCall/functionCall.sol\":407:428  uint256 public  count */\n    tag_7:\n      sload(0x01)\n      dup2\n      jump\t// out\n        /* \"contracts/homework/3.solidityFunctionCall/functionCall.sol\":605:845  function doPay( address _address) public payable {... */\n    tag_13:\n        /* \"contracts/homework/3.solidityFunctionCall/functionCall.sol\":685:686  0 */\n      0x00\n        /* \"contracts/homework/3.solidityFunctionCall/functionCall.sol\":672:681  msg.value */\n      callvalue\n        /* \"contracts/homework/3.solidityFunctionCall/functionCall.sol\":672:686  msg.value >= 0 */\n      lt\n      iszero\n        /* \"contracts/homework/3.solidityFunctionCall/functionCall.sol\":664:712  require(msg.value >= 0, \"value should not be 0\") */\n      tag_22\n      jumpi\n      mload(0x40)\n      0x08c379a000000000000000000000000000000000000000000000000000000000\n      dup2\n      mstore\n      0x04\n      add\n      tag_23\n      swap1\n      tag_24\n      jump\t// in\n    tag_23:\n      mload(0x40)\n      dup1\n      swap2\n      sub\n      swap1\n      revert\n    tag_22:\n        /* \"contracts/homework/3.solidityFunctionCall/functionCall.sol\":722:749  address payable sendAddress */\n      0x00\n        /* \"contracts/homework/3.solidityFunctionCall/functionCall.sol\":760:768  _address */\n      dup2\n        /* \"contracts/homework/3.solidityFunctionCall/functionCall.sol\":722:769  address payable sendAddress = payable(_address) */\n      swap1\n      pop\n        /* \"contracts/homework/3.solidityFunctionCall/functionCall.sol\":788:797  msg.value */\n      callvalue\n        /* \"contracts/homework/3.solidityFunctionCall/functionCall.sol\":779:784  count */\n      0x01\n      0x00\n        /* \"contracts/homework/3.solidityFunctionCall/functionCall.sol\":779:797  count += msg.value */\n      dup3\n      dup3\n      sload\n      tag_25\n      swap2\n      swap1\n      tag_26\n      jump\t// in\n    tag_25:\n      swap3\n      pop\n      pop\n      dup2\n      swap1\n      sstore\n      pop\n        /* \"contracts/homework/3.solidityFunctionCall/functionCall.sol\":807:818  sendAddress */\n      dup1\n        /* \"contracts/homework/3.solidityFunctionCall/functionCall.sol\":807:827  sendAddress.transfer */\n      0xffffffffffffffffffffffffffffffffffffffff\n      and\n        /* \"contracts/homework/3.solidityFunctionCall/functionCall.sol\":807:838  sendAddress.transfer(msg.value) */\n      0x08fc\n        /* \"contracts/homework/3.solidityFunctionCall/functionCall.sol\":828:837  msg.value */\n      callvalue\n        /* \"contracts/homework/3.solidityFunctionCall/functionCall.sol\":807:838  sendAddress.transfer(msg.value) */\n      swap1\n      dup2\n      iszero\n      mul\n      swap1\n      mload(0x40)\n      0x00\n      mload(0x40)\n      dup1\n      dup4\n      sub\n      dup2\n      dup6\n      dup9\n      dup9\n      call\n      swap4\n      pop\n      pop\n      pop\n      pop\n      iszero\n      dup1\n      iszero\n      tag_28\n      jumpi\n      returndatasize\n      0x00\n      dup1\n      returndatacopy\n      revert(0x00, returndatasize)\n    tag_28:\n      pop\n        /* \"contracts/homework/3.solidityFunctionCall/functionCall.sol\":654:845  {... */\n      pop\n        /* \"contracts/homework/3.solidityFunctionCall/functionCall.sol\":605:845  function doPay( address _address) public payable {... */\n      pop\n      jump\t// out\n        /* \"contracts/homework/3.solidityFunctionCall/functionCall.sol\":468:599  function countAll(uint n, uint m) public pure returns(uint sum, uint product) {... */\n    tag_18:\n        /* \"contracts/homework/3.solidityFunctionCall/functionCall.sol\":522:530  uint sum */\n      0x00\n        /* \"contracts/homework/3.solidityFunctionCall/functionCall.sol\":532:544  uint product */\n      dup1\n        /* \"contracts/homework/3.solidityFunctionCall/functionCall.sol\":566:567  m */\n      dup3\n        /* \"contracts/homework/3.solidityFunctionCall/functionCall.sol\":562:563  n */\n      dup5\n        /* \"contracts/homework/3.solidityFunctionCall/functionCall.sol\":562:567  n + m */\n      tag_30\n      swap2\n      swap1\n      tag_26\n      jump\t// in\n    tag_30:\n        /* \"contracts/homework/3.solidityFunctionCall/functionCall.sol\":556:567  sum = n + m */\n      swap2\n      pop\n        /* \"contracts/homework/3.solidityFunctionCall/functionCall.sol\":591:592  m */\n      dup3\n        /* \"contracts/homework/3.solidityFunctionCall/functionCall.sol\":587:588  n */\n      dup5\n        /* \"contracts/homework/3.solidityFunctionCall/functionCall.sol\":587:592  n * m */\n      tag_31\n      swap2\n      swap1\n      tag_32\n      jump\t// in\n    tag_31:\n        /* \"contracts/homework/3.solidityFunctionCall/functionCall.sol\":577:592  product = n * m */\n      swap1\n      pop\n        /* \"contracts/homework/3.solidityFunctionCall/functionCall.sol\":468:599  function countAll(uint n, uint m) public pure returns(uint sum, uint product) {... */\n      swap3\n      pop\n      swap3\n      swap1\n      pop\n      jump\t// out\n        /* \"#utility.yul\":7:84   */\n    tag_33:\n        /* \"#utility.yul\":44:51   */\n      0x00\n        /* \"#utility.yul\":73:78   */\n      dup2\n        /* \"#utility.yul\":62:78   */\n      swap1\n      pop\n        /* \"#utility.yul\":7:84   */\n      swap2\n      swap1\n      pop\n      jump\t// out\n        /* \"#utility.yul\":90:208   */\n    tag_34:\n        /* \"#utility.yul\":177:201   */\n      tag_51\n        /* \"#utility.yul\":195:200   */\n      dup2\n        /* \"#utility.yul\":177:201   */\n      tag_33\n      jump\t// in\n    tag_51:\n        /* \"#utility.yul\":172:175   */\n      dup3\n        /* \"#utility.yul\":165:202   */\n      mstore\n        /* \"#utility.yul\":90:208   */\n      pop\n      pop\n      jump\t// out\n        /* \"#utility.yul\":214:436   */\n    tag_9:\n        /* \"#utility.yul\":307:311   */\n      0x00\n        /* \"#utility.yul\":345:347   */\n      0x20\n        /* \"#utility.yul\":334:343   */\n      dup3\n        /* \"#utility.yul\":330:348   */\n      add\n        /* \"#utility.yul\":322:348   */\n      swap1\n      pop\n        /* \"#utility.yul\":358:429   */\n      tag_53\n        /* \"#utility.yul\":426:427   */\n      0x00\n        /* \"#utility.yul\":415:424   */\n      dup4\n        /* \"#utility.yul\":411:428   */\n      add\n        /* \"#utility.yul\":402:408   */\n      dup5\n        /* \"#utility.yul\":358:429   */\n      tag_34\n      jump\t// in\n    tag_53:\n        /* \"#utility.yul\":214:436   */\n      swap3\n      swap2\n      pop\n      pop\n      jump\t// out\n        /* \"#utility.yul\":523:640   */\n    tag_36:\n        /* \"#utility.yul\":632:633   */\n      0x00\n        /* \"#utility.yul\":629:630   */\n      dup1\n        /* \"#utility.yul\":622:634   */\n      revert\n        /* \"#utility.yul\":769:895   */\n    tag_38:\n        /* \"#utility.yul\":806:813   */\n      0x00\n        /* \"#utility.yul\":846:888   */\n      0xffffffffffffffffffffffffffffffffffffffff\n        /* \"#utility.yul\":839:844   */\n      dup3\n        /* \"#utility.yul\":835:889   */\n      and\n        /* \"#utility.yul\":824:889   */\n      swap1\n      pop\n        /* \"#utility.yul\":769:895   */\n      swap2\n      swap1\n      pop\n      jump\t// out\n        /* \"#utility.yul\":901:997   */\n    tag_39:\n        /* \"#utility.yul\":938:945   */\n      0x00\n        /* \"#utility.yul\":967:991   */\n      tag_59\n        /* \"#utility.yul\":985:990   */\n      dup3\n        /* \"#utility.yul\":967:991   */\n      tag_38\n      jump\t// in\n    tag_59:\n        /* \"#utility.yul\":956:991   */\n      swap1\n      pop\n        /* \"#utility.yul\":901:997   */\n      swap2\n      swap1\n      pop\n      jump\t// out\n        /* \"#utility.yul\":1003:1125   */\n    tag_40:\n        /* \"#utility.yul\":1076:1100   */\n      tag_61\n        /* \"#utility.yul\":1094:1099   */\n      dup2\n        /* \"#utility.yul\":1076:1100   */\n      tag_39\n      jump\t// in\n    tag_61:\n        /* \"#utility.yul\":1069:1074   */\n      dup2\n        /* \"#utility.yul\":1066:1101   */\n      eq\n        /* \"#utility.yul\":1056:1119   */\n      tag_62\n      jumpi\n        /* \"#utility.yul\":1115:1116   */\n      0x00\n        /* \"#utility.yul\":1112:1113   */\n      dup1\n        /* \"#utility.yul\":1105:1117   */\n      revert\n        /* \"#utility.yul\":1056:1119   */\n    tag_62:\n        /* \"#utility.yul\":1003:1125   */\n      pop\n      jump\t// out\n        /* \"#utility.yul\":1131:1270   */\n    tag_41:\n        /* \"#utility.yul\":1177:1182   */\n      0x00\n        /* \"#utility.yul\":1215:1221   */\n      dup2\n        /* \"#utility.yul\":1202:1222   */\n      calldataload\n        /* \"#utility.yul\":1193:1222   */\n      swap1\n      pop\n        /* \"#utility.yul\":1231:1264   */\n      tag_64\n        /* \"#utility.yul\":1258:1263   */\n      dup2\n        /* \"#utility.yul\":1231:1264   */\n      tag_40\n      jump\t// in\n    tag_64:\n        /* \"#utility.yul\":1131:1270   */\n      swap3\n      swap2\n      pop\n      pop\n      jump\t// out\n        /* \"#utility.yul\":1276:1605   */\n    tag_12:\n        /* \"#utility.yul\":1335:1341   */\n      0x00\n        /* \"#utility.yul\":1384:1386   */\n      0x20\n        /* \"#utility.yul\":1372:1381   */\n      dup3\n        /* \"#utility.yul\":1363:1370   */\n      dup5\n        /* \"#utility.yul\":1359:1382   */\n      sub\n        /* \"#utility.yul\":1355:1387   */\n      slt\n        /* \"#utility.yul\":1352:1471   */\n      iszero\n      tag_66\n      jumpi\n        /* \"#utility.yul\":1390:1469   */\n      tag_67\n      tag_36\n      jump\t// in\n    tag_67:\n        /* \"#utility.yul\":1352:1471   */\n    tag_66:\n        /* \"#utility.yul\":1510:1511   */\n      0x00\n        /* \"#utility.yul\":1535:1588   */\n      tag_68\n        /* \"#utility.yul\":1580:1587   */\n      dup5\n        /* \"#utility.yul\":1571:1577   */\n      dup3\n        /* \"#utility.yul\":1560:1569   */\n      dup6\n        /* \"#utility.yul\":1556:1578   */\n      add\n        /* \"#utility.yul\":1535:1588   */\n      tag_41\n      jump\t// in\n    tag_68:\n        /* \"#utility.yul\":1525:1588   */\n      swap2\n      pop\n        /* \"#utility.yul\":1481:1598   */\n      pop\n        /* \"#utility.yul\":1276:1605   */\n      swap3\n      swap2\n      pop\n      pop\n      jump\t// out\n        /* \"#utility.yul\":1611:1733   */\n    tag_42:\n        /* \"#utility.yul\":1684:1708   */\n      tag_70\n        /* \"#utility.yul\":1702:1707   */\n      dup2\n        /* \"#utility.yul\":1684:1708   */\n      tag_33\n      jump\t// in\n    tag_70:\n        /* \"#utility.yul\":1677:1682   */\n      dup2\n        /* \"#utility.yul\":1674:1709   */\n      eq\n        /* \"#utility.yul\":1664:1727   */\n      tag_71\n      jumpi\n        /* \"#utility.yul\":1723:1724   */\n      0x00\n        /* \"#utility.yul\":1720:1721   */\n      dup1\n        /* \"#utility.yul\":1713:1725   */\n      revert\n        /* \"#utility.yul\":1664:1727   */\n    tag_71:\n        /* \"#utility.yul\":1611:1733   */\n      pop\n      jump\t// out\n        /* \"#utility.yul\":1739:1878   */\n    tag_43:\n        /* \"#utility.yul\":1785:1790   */\n      0x00\n        /* \"#utility.yul\":1823:1829   */\n      dup2\n        /* \"#utility.yul\":1810:1830   */\n      calldataload\n        /* \"#utility.yul\":1801:1830   */\n      swap1\n      pop\n        /* \"#utility.yul\":1839:1872   */\n      tag_73\n        /* \"#utility.yul\":1866:1871   */\n      dup2\n        /* \"#utility.yul\":1839:1872   */\n      tag_42\n      jump\t// in\n    tag_73:\n        /* \"#utility.yul\":1739:1878   */\n      swap3\n      swap2\n      pop\n      pop\n      jump\t// out\n        /* \"#utility.yul\":1884:2358   */\n    tag_17:\n        /* \"#utility.yul\":1952:1958   */\n      0x00\n        /* \"#utility.yul\":1960:1966   */\n      dup1\n        /* \"#utility.yul\":2009:2011   */\n      0x40\n        /* \"#utility.yul\":1997:2006   */\n      dup4\n        /* \"#utility.yul\":1988:1995   */\n      dup6\n        /* \"#utility.yul\":1984:2007   */\n      sub\n        /* \"#utility.yul\":1980:2012   */\n      slt\n        /* \"#utility.yul\":1977:2096   */\n      iszero\n      tag_75\n      jumpi\n        /* \"#utility.yul\":2015:2094   */\n      tag_76\n      tag_36\n      jump\t// in\n    tag_76:\n        /* \"#utility.yul\":1977:2096   */\n    tag_75:\n        /* \"#utility.yul\":2135:2136   */\n      0x00\n        /* \"#utility.yul\":2160:2213   */\n      tag_77\n        /* \"#utility.yul\":2205:2212   */\n      dup6\n        /* \"#utility.yul\":2196:2202   */\n      dup3\n        /* \"#utility.yul\":2185:2194   */\n      dup7\n        /* \"#utility.yul\":2181:2203   */\n      add\n        /* \"#utility.yul\":2160:2213   */\n      tag_43\n      jump\t// in\n    tag_77:\n        /* \"#utility.yul\":2150:2213   */\n      swap3\n      pop\n        /* \"#utility.yul\":2106:2223   */\n      pop\n        /* \"#utility.yul\":2262:2264   */\n      0x20\n        /* \"#utility.yul\":2288:2341   */\n      tag_78\n        /* \"#utility.yul\":2333:2340   */\n      dup6\n        /* \"#utility.yul\":2324:2330   */\n      dup3\n        /* \"#utility.yul\":2313:2322   */\n      dup7\n        /* \"#utility.yul\":2309:2331   */\n      add\n        /* \"#utility.yul\":2288:2341   */\n      tag_43\n      jump\t// in\n    tag_78:\n        /* \"#utility.yul\":2278:2341   */\n      swap2\n      pop\n        /* \"#utility.yul\":2233:2351   */\n      pop\n        /* \"#utility.yul\":1884:2358   */\n      swap3\n      pop\n      swap3\n      swap1\n      pop\n      jump\t// out\n        /* \"#utility.yul\":2364:2696   */\n    tag_20:\n        /* \"#utility.yul\":2485:2489   */\n      0x00\n        /* \"#utility.yul\":2523:2525   */\n      0x40\n        /* \"#utility.yul\":2512:2521   */\n      dup3\n        /* \"#utility.yul\":2508:2526   */\n      add\n        /* \"#utility.yul\":2500:2526   */\n      swap1\n      pop\n        /* \"#utility.yul\":2536:2607   */\n      tag_80\n        /* \"#utility.yul\":2604:2605   */\n      0x00\n        /* \"#utility.yul\":2593:2602   */\n      dup4\n        /* \"#utility.yul\":2589:2606   */\n      add\n        /* \"#utility.yul\":2580:2586   */\n      dup6\n        /* \"#utility.yul\":2536:2607   */\n      tag_34\n      jump\t// in\n    tag_80:\n        /* \"#utility.yul\":2617:2689   */\n      tag_81\n        /* \"#utility.yul\":2685:2687   */\n      0x20\n        /* \"#utility.yul\":2674:2683   */\n      dup4\n        /* \"#utility.yul\":2670:2688   */\n      add\n        /* \"#utility.yul\":2661:2667   */\n      dup5\n        /* \"#utility.yul\":2617:2689   */\n      tag_34\n      jump\t// in\n    tag_81:\n        /* \"#utility.yul\":2364:2696   */\n      swap4\n      swap3\n      pop\n      pop\n      pop\n      jump\t// out\n        /* \"#utility.yul\":2702:2871   */\n    tag_44:\n        /* \"#utility.yul\":2786:2797   */\n      0x00\n        /* \"#utility.yul\":2820:2826   */\n      dup3\n        /* \"#utility.yul\":2815:2818   */\n      dup3\n        /* \"#utility.yul\":2808:2827   */\n      mstore\n        /* \"#utility.yul\":2860:2864   */\n      0x20\n        /* \"#utility.yul\":2855:2858   */\n      dup3\n        /* \"#utility.yul\":2851:2865   */\n      add\n        /* \"#utility.yul\":2836:2865   */\n      swap1\n      pop\n        /* \"#utility.yul\":2702:2871   */\n      swap3\n      swap2\n      pop\n      pop\n      jump\t// out\n        /* \"#utility.yul\":2877:3048   */\n    tag_45:\n        /* \"#utility.yul\":3017:3040   */\n      0x76616c75652073686f756c64206e6f7420626520300000000000000000000000\n        /* \"#utility.yul\":3013:3014   */\n      0x00\n        /* \"#utility.yul\":3005:3011   */\n      dup3\n        /* \"#utility.yul\":3001:3015   */\n      add\n        /* \"#utility.yul\":2994:3041   */\n      mstore\n        /* \"#utility.yul\":2877:3048   */\n      pop\n      jump\t// out\n        /* \"#utility.yul\":3054:3420   */\n    tag_46:\n        /* \"#utility.yul\":3196:3199   */\n      0x00\n        /* \"#utility.yul\":3217:3284   */\n      tag_85\n        /* \"#utility.yul\":3281:3283   */\n      0x15\n        /* \"#utility.yul\":3276:3279   */\n      dup4\n        /* \"#utility.yul\":3217:3284   */\n      tag_44\n      jump\t// in\n    tag_85:\n        /* \"#utility.yul\":3210:3284   */\n      swap2\n      pop\n        /* \"#utility.yul\":3293:3386   */\n      tag_86\n        /* \"#utility.yul\":3382:3385   */\n      dup3\n        /* \"#utility.yul\":3293:3386   */\n      tag_45\n      jump\t// in\n    tag_86:\n        /* \"#utility.yul\":3411:3413   */\n      0x20\n        /* \"#utility.yul\":3406:3409   */\n      dup3\n        /* \"#utility.yul\":3402:3414   */\n      add\n        /* \"#utility.yul\":3395:3414   */\n      swap1\n      pop\n        /* \"#utility.yul\":3054:3420   */\n      swap2\n      swap1\n      pop\n      jump\t// out\n        /* \"#utility.yul\":3426:3845   */\n    tag_24:\n        /* \"#utility.yul\":3592:3596   */\n      0x00\n        /* \"#utility.yul\":3630:3632   */\n      0x20\n        /* \"#utility.yul\":3619:3628   */\n      dup3\n        /* \"#utility.yul\":3615:3633   */\n      add\n        /* \"#utility.yul\":3607:3633   */\n      swap1\n      pop\n        /* \"#utility.yul\":3679:3688   */\n      dup2\n        /* \"#utility.yul\":3673:3677   */\n      dup2\n        /* \"#utility.yul\":3669:3689   */\n      sub\n        /* \"#utility.yul\":3665:3666   */\n      0x00\n        /* \"#utility.yul\":3654:3663   */\n      dup4\n        /* \"#utility.yul\":3650:3667   */\n      add\n        /* \"#utility.yul\":3643:3690   */\n      mstore\n        /* \"#utility.yul\":3707:3838   */\n      tag_88\n        /* \"#utility.yul\":3833:3837   */\n      dup2\n        /* \"#utility.yul\":3707:3838   */\n      tag_46\n      jump\t// in\n    tag_88:\n        /* \"#utility.yul\":3699:3838   */\n      swap1\n      pop\n        /* \"#utility.yul\":3426:3845   */\n      swap2\n      swap1\n      pop\n      jump\t// out\n        /* \"#utility.yul\":3851:4031   */\n    tag_47:\n        /* \"#utility.yul\":3899:3976   */\n      0x4e487b7100000000000000000000000000000000000000000000000000000000\n        /* \"#utility.yul\":3896:3897   */\n      0x00\n        /* \"#utility.yul\":3889:3977   */\n      mstore\n        /* \"#utility.yul\":3996:4000   */\n      0x11\n        /* \"#utility.yul\":3993:3994   */\n      0x04\n        /* \"#utility.yul\":3986:4001   */\n      mstore\n        /* \"#utility.yul\":4020:4024   */\n      0x24\n        /* \"#utility.yul\":4017:4018   */\n      0x00\n        /* \"#utility.yul\":4010:4025   */\n      revert\n        /* \"#utility.yul\":4037:4228   */\n    tag_26:\n        /* \"#utility.yul\":4077:4080   */\n      0x00\n        /* \"#utility.yul\":4096:4116   */\n      tag_91\n        /* \"#utility.yul\":4114:4115   */\n      dup3\n        /* \"#utility.yul\":4096:4116   */\n      tag_33\n      jump\t// in\n    tag_91:\n        /* \"#utility.yul\":4091:4116   */\n      swap2\n      pop\n        /* \"#utility.yul\":4130:4150   */\n      tag_92\n        /* \"#utility.yul\":4148:4149   */\n      dup4\n        /* \"#utility.yul\":4130:4150   */\n      tag_33\n      jump\t// in\n    tag_92:\n        /* \"#utility.yul\":4125:4150   */\n      swap3\n      pop\n        /* \"#utility.yul\":4173:4174   */\n      dup3\n        /* \"#utility.yul\":4170:4171   */\n      dup3\n        /* \"#utility.yul\":4166:4175   */\n      add\n        /* \"#utility.yul\":4159:4175   */\n      swap1\n      pop\n        /* \"#utility.yul\":4194:4197   */\n      dup1\n        /* \"#utility.yul\":4191:4192   */\n      dup3\n        /* \"#utility.yul\":4188:4198   */\n      gt\n        /* \"#utility.yul\":4185:4221   */\n      iszero\n      tag_93\n      jumpi\n        /* \"#utility.yul\":4201:4219   */\n      tag_94\n      tag_47\n      jump\t// in\n    tag_94:\n        /* \"#utility.yul\":4185:4221   */\n    tag_93:\n        /* \"#utility.yul\":4037:4228   */\n      swap3\n      swap2\n      pop\n      pop\n      jump\t// out\n        /* \"#utility.yul\":4234:4644   */\n    tag_32:\n        /* \"#utility.yul\":4274:4281   */\n      0x00\n        /* \"#utility.yul\":4297:4317   */\n      tag_96\n        /* \"#utility.yul\":4315:4316   */\n      dup3\n        /* \"#utility.yul\":4297:4317   */\n      tag_33\n      jump\t// in\n    tag_96:\n        /* \"#utility.yul\":4292:4317   */\n      swap2\n      pop\n        /* \"#utility.yul\":4331:4351   */\n      tag_97\n        /* \"#utility.yul\":4349:4350   */\n      dup4\n        /* \"#utility.yul\":4331:4351   */\n      tag_33\n      jump\t// in\n    tag_97:\n        /* \"#utility.yul\":4326:4351   */\n      swap3\n      pop\n        /* \"#utility.yul\":4386:4387   */\n      dup3\n        /* \"#utility.yul\":4383:4384   */\n      dup3\n        /* \"#utility.yul\":4379:4388   */\n      mul\n        /* \"#utility.yul\":4408:4438   */\n      tag_98\n        /* \"#utility.yul\":4426:4437   */\n      dup2\n        /* \"#utility.yul\":4408:4438   */\n      tag_33\n      jump\t// in\n    tag_98:\n        /* \"#utility.yul\":4397:4438   */\n      swap2\n      pop\n        /* \"#utility.yul\":4587:4588   */\n      dup3\n        /* \"#utility.yul\":4578:4585   */\n      dup3\n        /* \"#utility.yul\":4574:4589   */\n      div\n        /* \"#utility.yul\":4571:4572   */\n      dup5\n        /* \"#utility.yul\":4568:4590   */\n      eq\n        /* \"#utility.yul\":4548:4549   */\n      dup4\n        /* \"#utility.yul\":4541:4550   */\n      iszero\n        /* \"#utility.yul\":4521:4604   */\n      or\n        /* \"#utility.yul\":4498:4637   */\n      tag_99\n      jumpi\n        /* \"#utility.yul\":4617:4635   */\n      tag_100\n      tag_47\n      jump\t// in\n    tag_100:\n        /* \"#utility.yul\":4498:4637   */\n    tag_99:\n        /* \"#utility.yul\":4282:4644   */\n      pop\n        /* \"#utility.yul\":4234:4644   */\n      swap3\n      swap2\n      pop\n      pop\n      jump\t// out\n\n    auxdata: 0xa2646970667358221220728ce673db1c82c7e6eac4c3e6200204f571815989f36c38f3792b817662e49764736f6c63430008140033\n}\n",
				"bytecode": {
					"linkReferences": {},
					"object": "608060405234801561000f575f80fd5b506104248061001d5f395ff3fe608060405260043610610033575f3560e01c806306661abd146100375780637e1511e514610061578063838ae0f71461007d575b5f80fd5b348015610042575f80fd5b5061004b6100ba565b60405161005891906101a4565b60405180910390f35b61007b6004803603810190610076919061021b565b6100c0565b005b348015610088575f80fd5b506100a3600480360381019061009e9190610270565b610167565b6040516100b19291906102ae565b60405180910390f35b60015481565b5f341015610103576040517f08c379a00000000000000000000000000000000000000000000000000000000081526004016100fa9061032f565b60405180910390fd5b5f8190503460015f828254610118919061037a565b925050819055508073ffffffffffffffffffffffffffffffffffffffff166108fc3490811502906040515f60405180830381858888f19350505050158015610162573d5f803e3d5ffd5b505050565b5f808284610175919061037a565b9150828461018391906103ad565b90509250929050565b5f819050919050565b61019e8161018c565b82525050565b5f6020820190506101b75f830184610195565b92915050565b5f80fd5b5f73ffffffffffffffffffffffffffffffffffffffff82169050919050565b5f6101ea826101c1565b9050919050565b6101fa816101e0565b8114610204575f80fd5b50565b5f81359050610215816101f1565b92915050565b5f602082840312156102305761022f6101bd565b5b5f61023d84828501610207565b91505092915050565b61024f8161018c565b8114610259575f80fd5b50565b5f8135905061026a81610246565b92915050565b5f8060408385031215610286576102856101bd565b5b5f6102938582860161025c565b92505060206102a48582860161025c565b9150509250929050565b5f6040820190506102c15f830185610195565b6102ce6020830184610195565b9392505050565b5f82825260208201905092915050565b7f76616c75652073686f756c64206e6f74206265203000000000000000000000005f82015250565b5f6103196015836102d5565b9150610324826102e5565b602082019050919050565b5f6020820190508181035f8301526103468161030d565b9050919050565b7f4e487b71000000000000000000000000000000000000000000000000000000005f52601160045260245ffd5b5f6103848261018c565b915061038f8361018c565b92508282019050808211156103a7576103a661034d565b5b92915050565b5f6103b78261018c565b91506103c28361018c565b92508282026103d08161018c565b915082820484148315176103e7576103e661034d565b5b509291505056fea2646970667358221220728ce673db1c82c7e6eac4c3e6200204f571815989f36c38f3792b817662e49764736f6c63430008140033",
					"opcodes": "PUSH1 0x80 PUSH1 0x40 MSTORE CALLVALUE DUP1 ISZERO PUSH2 0xF JUMPI PUSH0 DUP1 REVERT JUMPDEST POP PUSH2 0x424 DUP1 PUSH2 0x1D PUSH0 CODECOPY PUSH0 RETURN INVALID PUSH1 0x80 PUSH1 0x40 MSTORE PUSH1 0x4 CALLDATASIZE LT PUSH2 0x33 JUMPI PUSH0 CALLDATALOAD PUSH1 0xE0 SHR DUP1 PUSH4 0x6661ABD EQ PUSH2 0x37 JUMPI DUP1 PUSH4 0x7E1511E5 EQ PUSH2 0x61 JUMPI DUP1 PUSH4 0x838AE0F7 EQ PUSH2 0x7D JUMPI JUMPDEST PUSH0 DUP1 REVERT JUMPDEST CALLVALUE DUP1 ISZERO PUSH2 0x42 JUMPI PUSH0 DUP1 REVERT JUMPDEST POP PUSH2 0x4B PUSH2 0xBA JUMP JUMPDEST PUSH1 0x40 MLOAD PUSH2 0x58 SWAP2 SWAP1 PUSH2 0x1A4 JUMP JUMPDEST PUSH1 0x40 MLOAD DUP1 SWAP2 SUB SWAP1 RETURN JUMPDEST PUSH2 0x7B PUSH1 0x4 DUP1 CALLDATASIZE SUB DUP2 ADD SWAP1 PUSH2 0x76 SWAP2 SWAP1 PUSH2 0x21B JUMP JUMPDEST PUSH2 0xC0 JUMP JUMPDEST STOP JUMPDEST CALLVALUE DUP1 ISZERO PUSH2 0x88 JUMPI PUSH0 DUP1 REVERT JUMPDEST POP PUSH2 0xA3 PUSH1 0x4 DUP1 CALLDATASIZE SUB DUP2 ADD SWAP1 PUSH2 0x9E SWAP2 SWAP1 PUSH2 0x270 JUMP JUMPDEST PUSH2 0x167 JUMP JUMPDEST PUSH1 0x40 MLOAD PUSH2 0xB1 SWAP3 SWAP2 SWAP1 PUSH2 0x2AE JUMP JUMPDEST PUSH1 0x40 MLOAD DUP1 SWAP2 SUB SWAP1 RETURN JUMPDEST PUSH1 0x1 SLOAD DUP2 JUMP JUMPDEST PUSH0 CALLVALUE LT ISZERO PUSH2 0x103 JUMPI PUSH1 0x40 MLOAD PUSH32 0x8C379A000000000000000000000000000000000000000000000000000000000 DUP2 MSTORE PUSH1 0x4 ADD PUSH2 0xFA SWAP1 PUSH2 0x32F JUMP JUMPDEST PUSH1 0x40 MLOAD DUP1 SWAP2 SUB SWAP1 REVERT JUMPDEST PUSH0 DUP2 SWAP1 POP CALLVALUE PUSH1 0x1 PUSH0 DUP3 DUP3 SLOAD PUSH2 0x118 SWAP2 SWAP1 PUSH2 0x37A JUMP JUMPDEST SWAP3 POP POP DUP2 SWAP1 SSTORE POP DUP1 PUSH20 0xFFFFFFFFFFFFFFFFFFFFFFFFFFFFFFFFFFFFFFFF AND PUSH2 0x8FC CALLVALUE SWAP1 DUP2 ISZERO MUL SWAP1 PUSH1 0x40 MLOAD PUSH0 PUSH1 0x40 MLOAD DUP1 DUP4 SUB DUP2 DUP6 DUP9 DUP9 CALL SWAP4 POP POP POP POP ISZERO DUP1 ISZERO PUSH2 0x162 JUMPI RETURNDATASIZE PUSH0 DUP1 RETURNDATACOPY RETURNDATASIZE PUSH0 REVERT JUMPDEST POP POP POP JUMP JUMPDEST PUSH0 DUP1 DUP3 DUP5 PUSH2 0x175 SWAP2 SWAP1 PUSH2 0x37A JUMP JUMPDEST SWAP2 POP DUP3 DUP5 PUSH2 0x183 SWAP2 SWAP1 PUSH2 0x3AD JUMP JUMPDEST SWAP1 POP SWAP3 POP SWAP3 SWAP1 POP JUMP JUMPDEST PUSH0 DUP2 SWAP1 POP SWAP2 SWAP1 POP JUMP JUMPDEST PUSH2 0x19E DUP2 PUSH2 0x18C JUMP JUMPDEST DUP3 MSTORE POP POP JUMP JUMPDEST PUSH0 PUSH1 0x20 DUP3 ADD SWAP1 POP PUSH2 0x1B7 PUSH0 DUP4 ADD DUP5 PUSH2 0x195 JUMP JUMPDEST SWAP3 SWAP2 POP POP JUMP JUMPDEST PUSH0 DUP1 REVERT JUMPDEST PUSH0 PUSH20 0xFFFFFFFFFFFFFFFFFFFFFFFFFFFFFFFFFFFFFFFF DUP3 AND SWAP1 POP SWAP2 SWAP1 POP JUMP JUMPDEST PUSH0 PUSH2 0x1EA DUP3 PUSH2 0x1C1 JUMP JUMPDEST SWAP1 POP SWAP2 SWAP1 POP JUMP JUMPDEST PUSH2 0x1FA DUP2 PUSH2 0x1E0 JUMP JUMPDEST DUP2 EQ PUSH2 0x204 JUMPI PUSH0 DUP1 REVERT JUMPDEST POP JUMP JUMPDEST PUSH0 DUP2 CALLDATALOAD SWAP1 POP PUSH2 0x215 DUP2 PUSH2 0x1F1 JUMP JUMPDEST SWAP3 SWAP2 POP POP JUMP JUMPDEST PUSH0 PUSH1 0x20 DUP3 DUP5 SUB SLT ISZERO PUSH2 0x230 JUMPI PUSH2 0x22F PUSH2 0x1BD JUMP JUMPDEST JUMPDEST PUSH0 PUSH2 0x23D DUP5 DUP3 DUP6 ADD PUSH2 0x207 JUMP JUMPDEST SWAP2 POP POP SWAP3 SWAP2 POP POP JUMP JUMPDEST PUSH2 0x24F DUP2 PUSH2 0x18C JUMP JUMPDEST DUP2 EQ PUSH2 0x259 JUMPI PUSH0 DUP1 REVERT JUMPDEST POP JUMP JUMPDEST PUSH0 DUP2 CALLDATALOAD SWAP1 POP PUSH2 0x26A DUP2 PUSH2 0x246 JUMP JUMPDEST SWAP3 SWAP2 POP POP JUMP JUMPDEST PUSH0 DUP1 PUSH1 0x40 DUP4 DUP6 SUB SLT ISZERO PUSH2 0x286 JUMPI PUSH2 0x285 PUSH2 0x1BD JUMP JUMPDEST JUMPDEST PUSH0 PUSH2 0x293 DUP6 DUP3 DUP7 ADD PUSH2 0x25C JUMP JUMPDEST SWAP3 POP POP PUSH1 0x20 PUSH2 0x2A4 DUP6 DUP3 DUP7 ADD PUSH2 0x25C JUMP JUMPDEST SWAP2 POP POP SWAP3 POP SWAP3 SWAP1 POP JUMP JUMPDEST PUSH0 PUSH1 0x40 DUP3 ADD SWAP1 POP PUSH2 0x2C1 PUSH0 DUP4 ADD DUP6 PUSH2 0x195 JUMP JUMPDEST PUSH2 0x2CE PUSH1 0x20 DUP4 ADD DUP5 PUSH2 0x195 JUMP JUMPDEST SWAP4 SWAP3 POP POP POP JUMP JUMPDEST PUSH0 DUP3 DUP3 MSTORE PUSH1 0x20 DUP3 ADD SWAP1 POP SWAP3 SWAP2 POP POP JUMP JUMPDEST PUSH32 0x76616C75652073686F756C64206E6F7420626520300000000000000000000000 PUSH0 DUP3 ADD MSTORE POP JUMP JUMPDEST PUSH0 PUSH2 0x319 PUSH1 0x15 DUP4 PUSH2 0x2D5 JUMP JUMPDEST SWAP2 POP PUSH2 0x324 DUP3 PUSH2 0x2E5 JUMP JUMPDEST PUSH1 0x20 DUP3 ADD SWAP1 POP SWAP2 SWAP1 POP JUMP JUMPDEST PUSH0 PUSH1 0x20 DUP3 ADD SWAP1 POP DUP2 DUP2 SUB PUSH0 DUP4 ADD MSTORE PUSH2 0x346 DUP2 PUSH2 0x30D JUMP JUMPDEST SWAP1 POP SWAP2 SWAP1 POP JUMP JUMPDEST PUSH32 0x4E487B7100000000000000000000000000000000000000000000000000000000 PUSH0 MSTORE PUSH1 0x11 PUSH1 0x4 MSTORE PUSH1 0x24 PUSH0 REVERT JUMPDEST PUSH0 PUSH2 0x384 DUP3 PUSH2 0x18C JUMP JUMPDEST SWAP2 POP PUSH2 0x38F DUP4 PUSH2 0x18C JUMP JUMPDEST SWAP3 POP DUP3 DUP3 ADD SWAP1 POP DUP1 DUP3 GT ISZERO PUSH2 0x3A7 JUMPI PUSH2 0x3A6 PUSH2 0x34D JUMP JUMPDEST JUMPDEST SWAP3 SWAP2 POP POP JUMP JUMPDEST PUSH0 PUSH2 0x3B7 DUP3 PUSH2 0x18C JUMP JUMPDEST SWAP2 POP PUSH2 0x3C2 DUP4 PUSH2 0x18C JUMP JUMPDEST SWAP3 POP DUP3 DUP3 MUL PUSH2 0x3D0 DUP2 PUSH2 0x18C JUMP JUMPDEST SWAP2 POP DUP3 DUP3 DIV DUP5 EQ DUP4 ISZERO OR PUSH2 0x3E7 JUMPI PUSH2 0x3E6 PUSH2 0x34D JUMP JUMPDEST JUMPDEST POP SWAP3 SWAP2 POP POP JUMP INVALID LOG2 PUSH5 0x6970667358 0x22 SLT KECCAK256 PUSH19 0x8CE673DB1C82C7E6EAC4C3E6200204F5718159 DUP10 RETURN PUSH13 0x38F3792B817662E49764736F6C PUSH4 0x43000814 STOP CALLER "
				},
				"gasEstimates": {
					"creation": {
						"codeDepositCost": "212000",
						"executionCost": "255",
						"totalCost": "212255"
					},
					"external": {
						"count()": "2403",
						"countAll(uint256,uint256)": "infinite",
						"doPay(address)": "infinite"
					}
				},
				"methodIdentifiers": {
					"count()": "06661abd",
					"countAll(uint256,uint256)": "838ae0f7",
					"doPay(address)": "7e1511e5"
				}
			},
			"storageLayout": {
				"storage": [
					{
						"astId": 4,
						"contract": "contracts/homework/3.solidityFunctionCall/functionCall.sol:FunctionCall",
						"label": "data",
						"offset": 0,
						"slot": "0",
						"type": "t_uint256"
					},
					{
						"astId": 6,
						"contract": "contracts/homework/3.solidityFunctionCall/functionCall.sol:FunctionCall",
						"label": "count",
						"offset": 0,
						"slot": "1",
						"type": "t_uint256"
					},
					{
						"astId": 8,
						"contract": "contracts/homework/3.solidityFunctionCall/functionCall.sol:FunctionCall",
						"label": "interCount",
						"offset": 0,
						"slot": "2",
						"type": "t_uint256"
					}
				],
				"types": {
					"t_uint256": {
						"encoding": "inplace",
						"label": "uint256",
						"numberOfBytes": "32"
					}
				}
			},
			"userdoc": {
				"kind": "user",
				"methods": {},
				"notice": "1.3 solidity函数调用 作业 编写一个合约，定义不同可见性和状态可变性的函数，并进行测试。 实现一个函数，接受两个参数并返回它们的和与积。 创建一个 payable 函数，允许用户向合约发送以太币，并记录发送金额。*",
				"version": 1
			}
		}
	}
}