{
	"contracts/homework/7.errorCustomHandle/errorCustomHandle.sol": {
		"ErrorCustomHandle": {
			"abi": [
				{
					"inputs": [],
					"stateMutability": "nonpayable",
					"type": "constructor"
				},
				{
					"inputs": [
						{
							"internalType": "address",
							"name": "caller",
							"type": "address"
						}
					],
					"name": "Unauthorized",
					"type": "error"
				},
				{
					"inputs": [
						{
							"internalType": "uint256",
							"name": "a",
							"type": "uint256"
						},
						{
							"internalType": "uint256",
							"name": "b",
							"type": "uint256"
						}
					],
					"name": "addCustom",
					"outputs": [
						{
							"internalType": "uint256",
							"name": "c",
							"type": "uint256"
						}
					],
					"stateMutability": "pure",
					"type": "function"
				},
				{
					"inputs": [],
					"name": "owner",
					"outputs": [
						{
							"internalType": "address",
							"name": "",
							"type": "address"
						}
					],
					"stateMutability": "view",
					"type": "function"
				},
				{
					"inputs": [],
					"name": "validUser",
					"outputs": [],
					"stateMutability": "nonpayable",
					"type": "function"
				}
			],
			"devdoc": {
				"kind": "dev",
				"methods": {},
				"version": 1
			},
			"evm": {
				"assembly": "    /* \"contracts/homework/7.errorCustomHandle/errorCustomHandle.sol\":405:925  contract ErrorCustomHandle {... */\n  mstore(0x40, 0x80)\n    /* \"contracts/homework/7.errorCustomHandle/errorCustomHandle.sol\":511:560  constructor() {... */\n  callvalue\n  dup1\n  iszero\n  tag_1\n  jumpi\n  0x00\n  dup1\n  revert\ntag_1:\n  pop\n    /* \"contracts/homework/7.errorCustomHandle/errorCustomHandle.sol\":543:553  msg.sender */\n  caller\n    /* \"contracts/homework/7.errorCustomHandle/errorCustomHandle.sol\":535:540  owner */\n  0x00\n  dup1\n    /* \"contracts/homework/7.errorCustomHandle/errorCustomHandle.sol\":535:553  owner = msg.sender */\n  0x0100\n  exp\n  dup2\n  sload\n  dup2\n  0xffffffffffffffffffffffffffffffffffffffff\n  mul\n  not\n  and\n  swap1\n  dup4\n  0xffffffffffffffffffffffffffffffffffffffff\n  and\n  mul\n  or\n  swap1\n  sstore\n  pop\n    /* \"contracts/homework/7.errorCustomHandle/errorCustomHandle.sol\":405:925  contract ErrorCustomHandle {... */\n  dataSize(sub_0)\n  dup1\n  dataOffset(sub_0)\n  0x00\n  codecopy\n  0x00\n  return\nstop\n\nsub_0: assembly {\n        /* \"contracts/homework/7.errorCustomHandle/errorCustomHandle.sol\":405:925  contract ErrorCustomHandle {... */\n      mstore(0x40, 0x80)\n      callvalue\n      dup1\n      iszero\n      tag_1\n      jumpi\n      0x00\n      dup1\n      revert\n    tag_1:\n      pop\n      jumpi(tag_2, lt(calldatasize, 0x04))\n      shr(0xe0, calldataload(0x00))\n      dup1\n      0x3b36f9aa\n      eq\n      tag_3\n      jumpi\n      dup1\n      0x8da5cb5b\n      eq\n      tag_4\n      jumpi\n      dup1\n      0xcaf7d197\n      eq\n      tag_5\n      jumpi\n    tag_2:\n      0x00\n      dup1\n      revert\n        /* \"contracts/homework/7.errorCustomHandle/errorCustomHandle.sol\":566:790  function addCustom(uint a, uint b) public pure returns(uint c) {... */\n    tag_3:\n      tag_6\n      0x04\n      dup1\n      calldatasize\n      sub\n      dup2\n      add\n      swap1\n      tag_7\n      swap2\n      swap1\n      tag_8\n      jump\t// in\n    tag_7:\n      tag_9\n      jump\t// in\n    tag_6:\n      mload(0x40)\n      tag_10\n      swap2\n      swap1\n      tag_11\n      jump\t// in\n    tag_10:\n      mload(0x40)\n      dup1\n      swap2\n      sub\n      swap1\n      return\n        /* \"contracts/homework/7.errorCustomHandle/errorCustomHandle.sol\":484:504  address public owner */\n    tag_4:\n      tag_12\n      tag_13\n      jump\t// in\n    tag_12:\n      mload(0x40)\n      tag_14\n      swap2\n      swap1\n      tag_15\n      jump\t// in\n    tag_14:\n      mload(0x40)\n      dup1\n      swap2\n      sub\n      swap1\n      return\n        /* \"contracts/homework/7.errorCustomHandle/errorCustomHandle.sol\":796:921  function validUser() public {... */\n    tag_5:\n      tag_16\n      tag_17\n      jump\t// in\n    tag_16:\n      stop\n        /* \"contracts/homework/7.errorCustomHandle/errorCustomHandle.sol\":566:790  function addCustom(uint a, uint b) public pure returns(uint c) {... */\n    tag_9:\n        /* \"contracts/homework/7.errorCustomHandle/errorCustomHandle.sol\":621:627  uint c */\n      0x00\n        /* \"contracts/homework/7.errorCustomHandle/errorCustomHandle.sol\":651:652  0 */\n      dup1\n        /* \"contracts/homework/7.errorCustomHandle/errorCustomHandle.sol\":647:648  a */\n      dup4\n        /* \"contracts/homework/7.errorCustomHandle/errorCustomHandle.sol\":647:652  a > 0 */\n      gt\n        /* \"contracts/homework/7.errorCustomHandle/errorCustomHandle.sol\":647:661  a > 0 && b > 0 */\n      dup1\n      iszero\n      tag_19\n      jumpi\n      pop\n        /* \"contracts/homework/7.errorCustomHandle/errorCustomHandle.sol\":660:661  0 */\n      0x00\n        /* \"contracts/homework/7.errorCustomHandle/errorCustomHandle.sol\":656:657  b */\n      dup3\n        /* \"contracts/homework/7.errorCustomHandle/errorCustomHandle.sol\":656:661  b > 0 */\n      gt\n        /* \"contracts/homework/7.errorCustomHandle/errorCustomHandle.sol\":647:661  a > 0 && b > 0 */\n    tag_19:\n        /* \"contracts/homework/7.errorCustomHandle/errorCustomHandle.sol\":639:662  require(a > 0 && b > 0) */\n      tag_20\n      jumpi\n      0x00\n      dup1\n      revert\n    tag_20:\n        /* \"contracts/homework/7.errorCustomHandle/errorCustomHandle.sol\":680:681  b */\n      dup2\n        /* \"contracts/homework/7.errorCustomHandle/errorCustomHandle.sol\":676:677  a */\n      dup4\n        /* \"contracts/homework/7.errorCustomHandle/errorCustomHandle.sol\":676:681  a * b */\n      tag_21\n      swap2\n      swap1\n      tag_22\n      jump\t// in\n    tag_21:\n        /* \"contracts/homework/7.errorCustomHandle/errorCustomHandle.sol\":672:681  c = a * b */\n      swap1\n      pop\n        /* \"contracts/homework/7.errorCustomHandle/errorCustomHandle.sol\":703:704  a */\n      dup3\n        /* \"contracts/homework/7.errorCustomHandle/errorCustomHandle.sol\":698:699  c */\n      dup2\n        /* \"contracts/homework/7.errorCustomHandle/errorCustomHandle.sol\":698:704  c >= a */\n      lt\n      iszero\n        /* \"contracts/homework/7.errorCustomHandle/errorCustomHandle.sol\":698:714  c >= a && c >= b */\n      dup1\n      iszero\n      tag_23\n      jumpi\n      pop\n        /* \"contracts/homework/7.errorCustomHandle/errorCustomHandle.sol\":713:714  b */\n      dup2\n        /* \"contracts/homework/7.errorCustomHandle/errorCustomHandle.sol\":708:709  c */\n      dup2\n        /* \"contracts/homework/7.errorCustomHandle/errorCustomHandle.sol\":708:714  c >= b */\n      lt\n      iszero\n        /* \"contracts/homework/7.errorCustomHandle/errorCustomHandle.sol\":698:714  c >= a && c >= b */\n    tag_23:\n        /* \"contracts/homework/7.errorCustomHandle/errorCustomHandle.sol\":691:715  assert(c >= a && c >= b) */\n      tag_24\n      jumpi\n      tag_25\n      tag_26\n      jump\t// in\n    tag_25:\n    tag_24:\n        /* \"contracts/homework/7.errorCustomHandle/errorCustomHandle.sol\":734:735  0 */\n      0x00\n        /* \"contracts/homework/7.errorCustomHandle/errorCustomHandle.sol\":729:730  c */\n      dup2\n        /* \"contracts/homework/7.errorCustomHandle/errorCustomHandle.sol\":729:735  c == 0 */\n      sub\n        /* \"contracts/homework/7.errorCustomHandle/errorCustomHandle.sol\":725:784  if (c == 0) {... */\n      tag_27\n      jumpi\n        /* \"contracts/homework/7.errorCustomHandle/errorCustomHandle.sol\":751:773  revert(\"error handle\") */\n      mload(0x40)\n      0x08c379a000000000000000000000000000000000000000000000000000000000\n      dup2\n      mstore\n      0x04\n      add\n      tag_28\n      swap1\n      tag_29\n      jump\t// in\n    tag_28:\n      mload(0x40)\n      dup1\n      swap2\n      sub\n      swap1\n      revert\n        /* \"contracts/homework/7.errorCustomHandle/errorCustomHandle.sol\":725:784  if (c == 0) {... */\n    tag_27:\n        /* \"contracts/homework/7.errorCustomHandle/errorCustomHandle.sol\":566:790  function addCustom(uint a, uint b) public pure returns(uint c) {... */\n      swap3\n      swap2\n      pop\n      pop\n      jump\t// out\n        /* \"contracts/homework/7.errorCustomHandle/errorCustomHandle.sol\":484:504  address public owner */\n    tag_13:\n      0x00\n      dup1\n      sload\n      swap1\n      0x0100\n      exp\n      swap1\n      div\n      0xffffffffffffffffffffffffffffffffffffffff\n      and\n      dup2\n      jump\t// out\n        /* \"contracts/homework/7.errorCustomHandle/errorCustomHandle.sol\":796:921  function validUser() public {... */\n    tag_17:\n        /* \"contracts/homework/7.errorCustomHandle/errorCustomHandle.sol\":852:857  owner */\n      0x00\n      dup1\n      sload\n      swap1\n      0x0100\n      exp\n      swap1\n      div\n      0xffffffffffffffffffffffffffffffffffffffff\n      and\n        /* \"contracts/homework/7.errorCustomHandle/errorCustomHandle.sol\":838:857  msg.sender != owner */\n      0xffffffffffffffffffffffffffffffffffffffff\n      and\n        /* \"contracts/homework/7.errorCustomHandle/errorCustomHandle.sol\":838:848  msg.sender */\n      caller\n        /* \"contracts/homework/7.errorCustomHandle/errorCustomHandle.sol\":838:857  msg.sender != owner */\n      0xffffffffffffffffffffffffffffffffffffffff\n      and\n      eq\n        /* \"contracts/homework/7.errorCustomHandle/errorCustomHandle.sol\":834:915  if (msg.sender != owner) {... */\n      tag_31\n      jumpi\n        /* \"contracts/homework/7.errorCustomHandle/errorCustomHandle.sol\":893:903  msg.sender */\n      caller\n        /* \"contracts/homework/7.errorCustomHandle/errorCustomHandle.sol\":880:904  Unauthorized(msg.sender) */\n      mload(0x40)\n      0x8e4a23d600000000000000000000000000000000000000000000000000000000\n      dup2\n      mstore\n      0x04\n      add\n      tag_32\n      swap2\n      swap1\n      tag_15\n      jump\t// in\n    tag_32:\n      mload(0x40)\n      dup1\n      swap2\n      sub\n      swap1\n      revert\n        /* \"contracts/homework/7.errorCustomHandle/errorCustomHandle.sol\":834:915  if (msg.sender != owner) {... */\n    tag_31:\n        /* \"contracts/homework/7.errorCustomHandle/errorCustomHandle.sol\":796:921  function validUser() public {... */\n      jump\t// out\n        /* \"#utility.yul\":88:205   */\n    tag_34:\n        /* \"#utility.yul\":197:198   */\n      0x00\n        /* \"#utility.yul\":194:195   */\n      dup1\n        /* \"#utility.yul\":187:199   */\n      revert\n        /* \"#utility.yul\":334:411   */\n    tag_36:\n        /* \"#utility.yul\":371:378   */\n      0x00\n        /* \"#utility.yul\":400:405   */\n      dup2\n        /* \"#utility.yul\":389:405   */\n      swap1\n      pop\n        /* \"#utility.yul\":334:411   */\n      swap2\n      swap1\n      pop\n      jump\t// out\n        /* \"#utility.yul\":417:539   */\n    tag_37:\n        /* \"#utility.yul\":490:514   */\n      tag_53\n        /* \"#utility.yul\":508:513   */\n      dup2\n        /* \"#utility.yul\":490:514   */\n      tag_36\n      jump\t// in\n    tag_53:\n        /* \"#utility.yul\":483:488   */\n      dup2\n        /* \"#utility.yul\":480:515   */\n      eq\n        /* \"#utility.yul\":470:533   */\n      tag_54\n      jumpi\n        /* \"#utility.yul\":529:530   */\n      0x00\n        /* \"#utility.yul\":526:527   */\n      dup1\n        /* \"#utility.yul\":519:531   */\n      revert\n        /* \"#utility.yul\":470:533   */\n    tag_54:\n        /* \"#utility.yul\":417:539   */\n      pop\n      jump\t// out\n        /* \"#utility.yul\":545:684   */\n    tag_38:\n        /* \"#utility.yul\":591:596   */\n      0x00\n        /* \"#utility.yul\":629:635   */\n      dup2\n        /* \"#utility.yul\":616:636   */\n      calldataload\n        /* \"#utility.yul\":607:636   */\n      swap1\n      pop\n        /* \"#utility.yul\":645:678   */\n      tag_56\n        /* \"#utility.yul\":672:677   */\n      dup2\n        /* \"#utility.yul\":645:678   */\n      tag_37\n      jump\t// in\n    tag_56:\n        /* \"#utility.yul\":545:684   */\n      swap3\n      swap2\n      pop\n      pop\n      jump\t// out\n        /* \"#utility.yul\":690:1164   */\n    tag_8:\n        /* \"#utility.yul\":758:764   */\n      0x00\n        /* \"#utility.yul\":766:772   */\n      dup1\n        /* \"#utility.yul\":815:817   */\n      0x40\n        /* \"#utility.yul\":803:812   */\n      dup4\n        /* \"#utility.yul\":794:801   */\n      dup6\n        /* \"#utility.yul\":790:813   */\n      sub\n        /* \"#utility.yul\":786:818   */\n      slt\n        /* \"#utility.yul\":783:902   */\n      iszero\n      tag_58\n      jumpi\n        /* \"#utility.yul\":821:900   */\n      tag_59\n      tag_34\n      jump\t// in\n    tag_59:\n        /* \"#utility.yul\":783:902   */\n    tag_58:\n        /* \"#utility.yul\":941:942   */\n      0x00\n        /* \"#utility.yul\":966:1019   */\n      tag_60\n        /* \"#utility.yul\":1011:1018   */\n      dup6\n        /* \"#utility.yul\":1002:1008   */\n      dup3\n        /* \"#utility.yul\":991:1000   */\n      dup7\n        /* \"#utility.yul\":987:1009   */\n      add\n        /* \"#utility.yul\":966:1019   */\n      tag_38\n      jump\t// in\n    tag_60:\n        /* \"#utility.yul\":956:1019   */\n      swap3\n      pop\n        /* \"#utility.yul\":912:1029   */\n      pop\n        /* \"#utility.yul\":1068:1070   */\n      0x20\n        /* \"#utility.yul\":1094:1147   */\n      tag_61\n        /* \"#utility.yul\":1139:1146   */\n      dup6\n        /* \"#utility.yul\":1130:1136   */\n      dup3\n        /* \"#utility.yul\":1119:1128   */\n      dup7\n        /* \"#utility.yul\":1115:1137   */\n      add\n        /* \"#utility.yul\":1094:1147   */\n      tag_38\n      jump\t// in\n    tag_61:\n        /* \"#utility.yul\":1084:1147   */\n      swap2\n      pop\n        /* \"#utility.yul\":1039:1157   */\n      pop\n        /* \"#utility.yul\":690:1164   */\n      swap3\n      pop\n      swap3\n      swap1\n      pop\n      jump\t// out\n        /* \"#utility.yul\":1170:1288   */\n    tag_39:\n        /* \"#utility.yul\":1257:1281   */\n      tag_63\n        /* \"#utility.yul\":1275:1280   */\n      dup2\n        /* \"#utility.yul\":1257:1281   */\n      tag_36\n      jump\t// in\n    tag_63:\n        /* \"#utility.yul\":1252:1255   */\n      dup3\n        /* \"#utility.yul\":1245:1282   */\n      mstore\n        /* \"#utility.yul\":1170:1288   */\n      pop\n      pop\n      jump\t// out\n        /* \"#utility.yul\":1294:1516   */\n    tag_11:\n        /* \"#utility.yul\":1387:1391   */\n      0x00\n        /* \"#utility.yul\":1425:1427   */\n      0x20\n        /* \"#utility.yul\":1414:1423   */\n      dup3\n        /* \"#utility.yul\":1410:1428   */\n      add\n        /* \"#utility.yul\":1402:1428   */\n      swap1\n      pop\n        /* \"#utility.yul\":1438:1509   */\n      tag_65\n        /* \"#utility.yul\":1506:1507   */\n      0x00\n        /* \"#utility.yul\":1495:1504   */\n      dup4\n        /* \"#utility.yul\":1491:1508   */\n      add\n        /* \"#utility.yul\":1482:1488   */\n      dup5\n        /* \"#utility.yul\":1438:1509   */\n      tag_39\n      jump\t// in\n    tag_65:\n        /* \"#utility.yul\":1294:1516   */\n      swap3\n      swap2\n      pop\n      pop\n      jump\t// out\n        /* \"#utility.yul\":1522:1648   */\n    tag_40:\n        /* \"#utility.yul\":1559:1566   */\n      0x00\n        /* \"#utility.yul\":1599:1641   */\n      0xffffffffffffffffffffffffffffffffffffffff\n        /* \"#utility.yul\":1592:1597   */\n      dup3\n        /* \"#utility.yul\":1588:1642   */\n      and\n        /* \"#utility.yul\":1577:1642   */\n      swap1\n      pop\n        /* \"#utility.yul\":1522:1648   */\n      swap2\n      swap1\n      pop\n      jump\t// out\n        /* \"#utility.yul\":1654:1750   */\n    tag_41:\n        /* \"#utility.yul\":1691:1698   */\n      0x00\n        /* \"#utility.yul\":1720:1744   */\n      tag_68\n        /* \"#utility.yul\":1738:1743   */\n      dup3\n        /* \"#utility.yul\":1720:1744   */\n      tag_40\n      jump\t// in\n    tag_68:\n        /* \"#utility.yul\":1709:1744   */\n      swap1\n      pop\n        /* \"#utility.yul\":1654:1750   */\n      swap2\n      swap1\n      pop\n      jump\t// out\n        /* \"#utility.yul\":1756:1874   */\n    tag_42:\n        /* \"#utility.yul\":1843:1867   */\n      tag_70\n        /* \"#utility.yul\":1861:1866   */\n      dup2\n        /* \"#utility.yul\":1843:1867   */\n      tag_41\n      jump\t// in\n    tag_70:\n        /* \"#utility.yul\":1838:1841   */\n      dup3\n        /* \"#utility.yul\":1831:1868   */\n      mstore\n        /* \"#utility.yul\":1756:1874   */\n      pop\n      pop\n      jump\t// out\n        /* \"#utility.yul\":1880:2102   */\n    tag_15:\n        /* \"#utility.yul\":1973:1977   */\n      0x00\n        /* \"#utility.yul\":2011:2013   */\n      0x20\n        /* \"#utility.yul\":2000:2009   */\n      dup3\n        /* \"#utility.yul\":1996:2014   */\n      add\n        /* \"#utility.yul\":1988:2014   */\n      swap1\n      pop\n        /* \"#utility.yul\":2024:2095   */\n      tag_72\n        /* \"#utility.yul\":2092:2093   */\n      0x00\n        /* \"#utility.yul\":2081:2090   */\n      dup4\n        /* \"#utility.yul\":2077:2094   */\n      add\n        /* \"#utility.yul\":2068:2074   */\n      dup5\n        /* \"#utility.yul\":2024:2095   */\n      tag_42\n      jump\t// in\n    tag_72:\n        /* \"#utility.yul\":1880:2102   */\n      swap3\n      swap2\n      pop\n      pop\n      jump\t// out\n        /* \"#utility.yul\":2108:2288   */\n    tag_43:\n        /* \"#utility.yul\":2156:2233   */\n      0x4e487b7100000000000000000000000000000000000000000000000000000000\n        /* \"#utility.yul\":2153:2154   */\n      0x00\n        /* \"#utility.yul\":2146:2234   */\n      mstore\n        /* \"#utility.yul\":2253:2257   */\n      0x11\n        /* \"#utility.yul\":2250:2251   */\n      0x04\n        /* \"#utility.yul\":2243:2258   */\n      mstore\n        /* \"#utility.yul\":2277:2281   */\n      0x24\n        /* \"#utility.yul\":2274:2275   */\n      0x00\n        /* \"#utility.yul\":2267:2282   */\n      revert\n        /* \"#utility.yul\":2294:2704   */\n    tag_22:\n        /* \"#utility.yul\":2334:2341   */\n      0x00\n        /* \"#utility.yul\":2357:2377   */\n      tag_75\n        /* \"#utility.yul\":2375:2376   */\n      dup3\n        /* \"#utility.yul\":2357:2377   */\n      tag_36\n      jump\t// in\n    tag_75:\n        /* \"#utility.yul\":2352:2377   */\n      swap2\n      pop\n        /* \"#utility.yul\":2391:2411   */\n      tag_76\n        /* \"#utility.yul\":2409:2410   */\n      dup4\n        /* \"#utility.yul\":2391:2411   */\n      tag_36\n      jump\t// in\n    tag_76:\n        /* \"#utility.yul\":2386:2411   */\n      swap3\n      pop\n        /* \"#utility.yul\":2446:2447   */\n      dup3\n        /* \"#utility.yul\":2443:2444   */\n      dup3\n        /* \"#utility.yul\":2439:2448   */\n      mul\n        /* \"#utility.yul\":2468:2498   */\n      tag_77\n        /* \"#utility.yul\":2486:2497   */\n      dup2\n        /* \"#utility.yul\":2468:2498   */\n      tag_36\n      jump\t// in\n    tag_77:\n        /* \"#utility.yul\":2457:2498   */\n      swap2\n      pop\n        /* \"#utility.yul\":2647:2648   */\n      dup3\n        /* \"#utility.yul\":2638:2645   */\n      dup3\n        /* \"#utility.yul\":2634:2649   */\n      div\n        /* \"#utility.yul\":2631:2632   */\n      dup5\n        /* \"#utility.yul\":2628:2650   */\n      eq\n        /* \"#utility.yul\":2608:2609   */\n      dup4\n        /* \"#utility.yul\":2601:2610   */\n      iszero\n        /* \"#utility.yul\":2581:2664   */\n      or\n        /* \"#utility.yul\":2558:2697   */\n      tag_78\n      jumpi\n        /* \"#utility.yul\":2677:2695   */\n      tag_79\n      tag_43\n      jump\t// in\n    tag_79:\n        /* \"#utility.yul\":2558:2697   */\n    tag_78:\n        /* \"#utility.yul\":2342:2704   */\n      pop\n        /* \"#utility.yul\":2294:2704   */\n      swap3\n      swap2\n      pop\n      pop\n      jump\t// out\n        /* \"#utility.yul\":2710:2890   */\n    tag_26:\n        /* \"#utility.yul\":2758:2835   */\n      0x4e487b7100000000000000000000000000000000000000000000000000000000\n        /* \"#utility.yul\":2755:2756   */\n      0x00\n        /* \"#utility.yul\":2748:2836   */\n      mstore\n        /* \"#utility.yul\":2855:2859   */\n      0x01\n        /* \"#utility.yul\":2852:2853   */\n      0x04\n        /* \"#utility.yul\":2845:2860   */\n      mstore\n        /* \"#utility.yul\":2879:2883   */\n      0x24\n        /* \"#utility.yul\":2876:2877   */\n      0x00\n        /* \"#utility.yul\":2869:2884   */\n      revert\n        /* \"#utility.yul\":2896:3065   */\n    tag_44:\n        /* \"#utility.yul\":2980:2991   */\n      0x00\n        /* \"#utility.yul\":3014:3020   */\n      dup3\n        /* \"#utility.yul\":3009:3012   */\n      dup3\n        /* \"#utility.yul\":3002:3021   */\n      mstore\n        /* \"#utility.yul\":3054:3058   */\n      0x20\n        /* \"#utility.yul\":3049:3052   */\n      dup3\n        /* \"#utility.yul\":3045:3059   */\n      add\n        /* \"#utility.yul\":3030:3059   */\n      swap1\n      pop\n        /* \"#utility.yul\":2896:3065   */\n      swap3\n      swap2\n      pop\n      pop\n      jump\t// out\n        /* \"#utility.yul\":3071:3233   */\n    tag_45:\n        /* \"#utility.yul\":3211:3225   */\n      0x6572726f722068616e646c650000000000000000000000000000000000000000\n        /* \"#utility.yul\":3207:3208   */\n      0x00\n        /* \"#utility.yul\":3199:3205   */\n      dup3\n        /* \"#utility.yul\":3195:3209   */\n      add\n        /* \"#utility.yul\":3188:3226   */\n      mstore\n        /* \"#utility.yul\":3071:3233   */\n      pop\n      jump\t// out\n        /* \"#utility.yul\":3239:3605   */\n    tag_46:\n        /* \"#utility.yul\":3381:3384   */\n      0x00\n        /* \"#utility.yul\":3402:3469   */\n      tag_84\n        /* \"#utility.yul\":3466:3468   */\n      0x0c\n        /* \"#utility.yul\":3461:3464   */\n      dup4\n        /* \"#utility.yul\":3402:3469   */\n      tag_44\n      jump\t// in\n    tag_84:\n        /* \"#utility.yul\":3395:3469   */\n      swap2\n      pop\n        /* \"#utility.yul\":3478:3571   */\n      tag_85\n        /* \"#utility.yul\":3567:3570   */\n      dup3\n        /* \"#utility.yul\":3478:3571   */\n      tag_45\n      jump\t// in\n    tag_85:\n        /* \"#utility.yul\":3596:3598   */\n      0x20\n        /* \"#utility.yul\":3591:3594   */\n      dup3\n        /* \"#utility.yul\":3587:3599   */\n      add\n        /* \"#utility.yul\":3580:3599   */\n      swap1\n      pop\n        /* \"#utility.yul\":3239:3605   */\n      swap2\n      swap1\n      pop\n      jump\t// out\n        /* \"#utility.yul\":3611:4030   */\n    tag_29:\n        /* \"#utility.yul\":3777:3781   */\n      0x00\n        /* \"#utility.yul\":3815:3817   */\n      0x20\n        /* \"#utility.yul\":3804:3813   */\n      dup3\n        /* \"#utility.yul\":3800:3818   */\n      add\n        /* \"#utility.yul\":3792:3818   */\n      swap1\n      pop\n        /* \"#utility.yul\":3864:3873   */\n      dup2\n        /* \"#utility.yul\":3858:3862   */\n      dup2\n        /* \"#utility.yul\":3854:3874   */\n      sub\n        /* \"#utility.yul\":3850:3851   */\n      0x00\n        /* \"#utility.yul\":3839:3848   */\n      dup4\n        /* \"#utility.yul\":3835:3852   */\n      add\n        /* \"#utility.yul\":3828:3875   */\n      mstore\n        /* \"#utility.yul\":3892:4023   */\n      tag_87\n        /* \"#utility.yul\":4018:4022   */\n      dup2\n        /* \"#utility.yul\":3892:4023   */\n      tag_46\n      jump\t// in\n    tag_87:\n        /* \"#utility.yul\":3884:4023   */\n      swap1\n      pop\n        /* \"#utility.yul\":3611:4030   */\n      swap2\n      swap1\n      pop\n      jump\t// out\n\n    auxdata: 0xa2646970667358221220da7a37e982d7bfe306de1c525b7ff22be95494d45ae23de0d55cf232817e78a364736f6c63430008140033\n}\n",
				"bytecode": {
					"linkReferences": {},
					"object": "608060405234801561000f575f80fd5b50335f806101000a81548173ffffffffffffffffffffffffffffffffffffffff021916908373ffffffffffffffffffffffffffffffffffffffff1602179055506104178061005c5f395ff3fe608060405234801561000f575f80fd5b506004361061003f575f3560e01c80633b36f9aa146100435780638da5cb5b14610073578063caf7d19714610091575b5f80fd5b61005d60048036038101906100589190610210565b61009b565b60405161006a919061025d565b60405180910390f35b61007b610125565b60405161008891906102b5565b60405180910390f35b610099610148565b005b5f80831180156100aa57505f82115b6100b2575f80fd5b81836100be91906102fb565b90508281101580156100d05750818110155b6100dd576100dc61033c565b5b5f810361011f576040517f08c379a0000000000000000000000000000000000000000000000000000000008152600401610116906103c3565b60405180910390fd5b92915050565b5f8054906101000a900473ffffffffffffffffffffffffffffffffffffffff1681565b5f8054906101000a900473ffffffffffffffffffffffffffffffffffffffff1673ffffffffffffffffffffffffffffffffffffffff163373ffffffffffffffffffffffffffffffffffffffff16146101d757336040517f8e4a23d60000000000000000000000000000000000000000000000000000000081526004016101ce91906102b5565b60405180910390fd5b565b5f80fd5b5f819050919050565b6101ef816101dd565b81146101f9575f80fd5b50565b5f8135905061020a816101e6565b92915050565b5f8060408385031215610226576102256101d9565b5b5f610233858286016101fc565b9250506020610244858286016101fc565b9150509250929050565b610257816101dd565b82525050565b5f6020820190506102705f83018461024e565b92915050565b5f73ffffffffffffffffffffffffffffffffffffffff82169050919050565b5f61029f82610276565b9050919050565b6102af81610295565b82525050565b5f6020820190506102c85f8301846102a6565b92915050565b7f4e487b71000000000000000000000000000000000000000000000000000000005f52601160045260245ffd5b5f610305826101dd565b9150610310836101dd565b925082820261031e816101dd565b91508282048414831517610335576103346102ce565b5b5092915050565b7f4e487b71000000000000000000000000000000000000000000000000000000005f52600160045260245ffd5b5f82825260208201905092915050565b7f6572726f722068616e646c6500000000000000000000000000000000000000005f82015250565b5f6103ad600c83610369565b91506103b882610379565b602082019050919050565b5f6020820190508181035f8301526103da816103a1565b905091905056fea2646970667358221220da7a37e982d7bfe306de1c525b7ff22be95494d45ae23de0d55cf232817e78a364736f6c63430008140033",
					"opcodes": "PUSH1 0x80 PUSH1 0x40 MSTORE CALLVALUE DUP1 ISZERO PUSH2 0xF JUMPI PUSH0 DUP1 REVERT JUMPDEST POP CALLER PUSH0 DUP1 PUSH2 0x100 EXP DUP2 SLOAD DUP2 PUSH20 0xFFFFFFFFFFFFFFFFFFFFFFFFFFFFFFFFFFFFFFFF MUL NOT AND SWAP1 DUP4 PUSH20 0xFFFFFFFFFFFFFFFFFFFFFFFFFFFFFFFFFFFFFFFF AND MUL OR SWAP1 SSTORE POP PUSH2 0x417 DUP1 PUSH2 0x5C PUSH0 CODECOPY PUSH0 RETURN INVALID PUSH1 0x80 PUSH1 0x40 MSTORE CALLVALUE DUP1 ISZERO PUSH2 0xF JUMPI PUSH0 DUP1 REVERT JUMPDEST POP PUSH1 0x4 CALLDATASIZE LT PUSH2 0x3F JUMPI PUSH0 CALLDATALOAD PUSH1 0xE0 SHR DUP1 PUSH4 0x3B36F9AA EQ PUSH2 0x43 JUMPI DUP1 PUSH4 0x8DA5CB5B EQ PUSH2 0x73 JUMPI DUP1 PUSH4 0xCAF7D197 EQ PUSH2 0x91 JUMPI JUMPDEST PUSH0 DUP1 REVERT JUMPDEST PUSH2 0x5D PUSH1 0x4 DUP1 CALLDATASIZE SUB DUP2 ADD SWAP1 PUSH2 0x58 SWAP2 SWAP1 PUSH2 0x210 JUMP JUMPDEST PUSH2 0x9B JUMP JUMPDEST PUSH1 0x40 MLOAD PUSH2 0x6A SWAP2 SWAP1 PUSH2 0x25D JUMP JUMPDEST PUSH1 0x40 MLOAD DUP1 SWAP2 SUB SWAP1 RETURN JUMPDEST PUSH2 0x7B PUSH2 0x125 JUMP JUMPDEST PUSH1 0x40 MLOAD PUSH2 0x88 SWAP2 SWAP1 PUSH2 0x2B5 JUMP JUMPDEST PUSH1 0x40 MLOAD DUP1 SWAP2 SUB SWAP1 RETURN JUMPDEST PUSH2 0x99 PUSH2 0x148 JUMP JUMPDEST STOP JUMPDEST PUSH0 DUP1 DUP4 GT DUP1 ISZERO PUSH2 0xAA JUMPI POP PUSH0 DUP3 GT JUMPDEST PUSH2 0xB2 JUMPI PUSH0 DUP1 REVERT JUMPDEST DUP2 DUP4 PUSH2 0xBE SWAP2 SWAP1 PUSH2 0x2FB JUMP JUMPDEST SWAP1 POP DUP3 DUP2 LT ISZERO DUP1 ISZERO PUSH2 0xD0 JUMPI POP DUP2 DUP2 LT ISZERO JUMPDEST PUSH2 0xDD JUMPI PUSH2 0xDC PUSH2 0x33C JUMP JUMPDEST JUMPDEST PUSH0 DUP2 SUB PUSH2 0x11F JUMPI PUSH1 0x40 MLOAD PUSH32 0x8C379A000000000000000000000000000000000000000000000000000000000 DUP2 MSTORE PUSH1 0x4 ADD PUSH2 0x116 SWAP1 PUSH2 0x3C3 JUMP JUMPDEST PUSH1 0x40 MLOAD DUP1 SWAP2 SUB SWAP1 REVERT JUMPDEST SWAP3 SWAP2 POP POP JUMP JUMPDEST PUSH0 DUP1 SLOAD SWAP1 PUSH2 0x100 EXP SWAP1 DIV PUSH20 0xFFFFFFFFFFFFFFFFFFFFFFFFFFFFFFFFFFFFFFFF AND DUP2 JUMP JUMPDEST PUSH0 DUP1 SLOAD SWAP1 PUSH2 0x100 EXP SWAP1 DIV PUSH20 0xFFFFFFFFFFFFFFFFFFFFFFFFFFFFFFFFFFFFFFFF AND PUSH20 0xFFFFFFFFFFFFFFFFFFFFFFFFFFFFFFFFFFFFFFFF AND CALLER PUSH20 0xFFFFFFFFFFFFFFFFFFFFFFFFFFFFFFFFFFFFFFFF AND EQ PUSH2 0x1D7 JUMPI CALLER PUSH1 0x40 MLOAD PUSH32 0x8E4A23D600000000000000000000000000000000000000000000000000000000 DUP2 MSTORE PUSH1 0x4 ADD PUSH2 0x1CE SWAP2 SWAP1 PUSH2 0x2B5 JUMP JUMPDEST PUSH1 0x40 MLOAD DUP1 SWAP2 SUB SWAP1 REVERT JUMPDEST JUMP JUMPDEST PUSH0 DUP1 REVERT JUMPDEST PUSH0 DUP2 SWAP1 POP SWAP2 SWAP1 POP JUMP JUMPDEST PUSH2 0x1EF DUP2 PUSH2 0x1DD JUMP JUMPDEST DUP2 EQ PUSH2 0x1F9 JUMPI PUSH0 DUP1 REVERT JUMPDEST POP JUMP JUMPDEST PUSH0 DUP2 CALLDATALOAD SWAP1 POP PUSH2 0x20A DUP2 PUSH2 0x1E6 JUMP JUMPDEST SWAP3 SWAP2 POP POP JUMP JUMPDEST PUSH0 DUP1 PUSH1 0x40 DUP4 DUP6 SUB SLT ISZERO PUSH2 0x226 JUMPI PUSH2 0x225 PUSH2 0x1D9 JUMP JUMPDEST JUMPDEST PUSH0 PUSH2 0x233 DUP6 DUP3 DUP7 ADD PUSH2 0x1FC JUMP JUMPDEST SWAP3 POP POP PUSH1 0x20 PUSH2 0x244 DUP6 DUP3 DUP7 ADD PUSH2 0x1FC JUMP JUMPDEST SWAP2 POP POP SWAP3 POP SWAP3 SWAP1 POP JUMP JUMPDEST PUSH2 0x257 DUP2 PUSH2 0x1DD JUMP JUMPDEST DUP3 MSTORE POP POP JUMP JUMPDEST PUSH0 PUSH1 0x20 DUP3 ADD SWAP1 POP PUSH2 0x270 PUSH0 DUP4 ADD DUP5 PUSH2 0x24E JUMP JUMPDEST SWAP3 SWAP2 POP POP JUMP JUMPDEST PUSH0 PUSH20 0xFFFFFFFFFFFFFFFFFFFFFFFFFFFFFFFFFFFFFFFF DUP3 AND SWAP1 POP SWAP2 SWAP1 POP JUMP JUMPDEST PUSH0 PUSH2 0x29F DUP3 PUSH2 0x276 JUMP JUMPDEST SWAP1 POP SWAP2 SWAP1 POP JUMP JUMPDEST PUSH2 0x2AF DUP2 PUSH2 0x295 JUMP JUMPDEST DUP3 MSTORE POP POP JUMP JUMPDEST PUSH0 PUSH1 0x20 DUP3 ADD SWAP1 POP PUSH2 0x2C8 PUSH0 DUP4 ADD DUP5 PUSH2 0x2A6 JUMP JUMPDEST SWAP3 SWAP2 POP POP JUMP JUMPDEST PUSH32 0x4E487B7100000000000000000000000000000000000000000000000000000000 PUSH0 MSTORE PUSH1 0x11 PUSH1 0x4 MSTORE PUSH1 0x24 PUSH0 REVERT JUMPDEST PUSH0 PUSH2 0x305 DUP3 PUSH2 0x1DD JUMP JUMPDEST SWAP2 POP PUSH2 0x310 DUP4 PUSH2 0x1DD JUMP JUMPDEST SWAP3 POP DUP3 DUP3 MUL PUSH2 0x31E DUP2 PUSH2 0x1DD JUMP JUMPDEST SWAP2 POP DUP3 DUP3 DIV DUP5 EQ DUP4 ISZERO OR PUSH2 0x335 JUMPI PUSH2 0x334 PUSH2 0x2CE JUMP JUMPDEST JUMPDEST POP SWAP3 SWAP2 POP POP JUMP JUMPDEST PUSH32 0x4E487B7100000000000000000000000000000000000000000000000000000000 PUSH0 MSTORE PUSH1 0x1 PUSH1 0x4 MSTORE PUSH1 0x24 PUSH0 REVERT JUMPDEST PUSH0 DUP3 DUP3 MSTORE PUSH1 0x20 DUP3 ADD SWAP1 POP SWAP3 SWAP2 POP POP JUMP JUMPDEST PUSH32 0x6572726F722068616E646C650000000000000000000000000000000000000000 PUSH0 DUP3 ADD MSTORE POP JUMP JUMPDEST PUSH0 PUSH2 0x3AD PUSH1 0xC DUP4 PUSH2 0x369 JUMP JUMPDEST SWAP2 POP PUSH2 0x3B8 DUP3 PUSH2 0x379 JUMP JUMPDEST PUSH1 0x20 DUP3 ADD SWAP1 POP SWAP2 SWAP1 POP JUMP JUMPDEST PUSH0 PUSH1 0x20 DUP3 ADD SWAP1 POP DUP2 DUP2 SUB PUSH0 DUP4 ADD MSTORE PUSH2 0x3DA DUP2 PUSH2 0x3A1 JUMP JUMPDEST SWAP1 POP SWAP2 SWAP1 POP JUMP INVALID LOG2 PUSH5 0x6970667358 0x22 SLT KECCAK256 0xDA PUSH27 0x37E982D7BFE306DE1C525B7FF22BE95494D45AE23DE0D55CF23281 PUSH31 0x78A364736F6C63430008140033000000000000000000000000000000000000 "
				},
				"gasEstimates": {
					"creation": {
						"codeDepositCost": "209400",
						"executionCost": "24514",
						"totalCost": "233914"
					},
					"external": {
						"addCustom(uint256,uint256)": "infinite",
						"owner()": "2505",
						"validUser()": "2565"
					}
				},
				"methodIdentifiers": {
					"addCustom(uint256,uint256)": "3b36f9aa",
					"owner()": "8da5cb5b",
					"validUser()": "caf7d197"
				}
			},
			"storageLayout": {
				"storage": [
					{
						"astId": 7,
						"contract": "contracts/homework/7.errorCustomHandle/errorCustomHandle.sol:ErrorCustomHandle",
						"label": "owner",
						"offset": 0,
						"slot": "0",
						"type": "t_address"
					}
				],
				"types": {
					"t_address": {
						"encoding": "inplace",
						"label": "address",
						"numberOfBytes": "20"
					}
				}
			},
			"userdoc": {
				"kind": "user",
				"methods": {},
				"version": 1
			}
		}
	}
}