{
	"contracts/homework/4-5.ScopeStruct/scopeStruct.sol": {
		"ExternalContract": {
			"abi": [
				{
					"inputs": [
						{
							"internalType": "uint256",
							"name": "a",
							"type": "uint256"
						}
					],
					"name": "someFunction",
					"outputs": [
						{
							"internalType": "bool",
							"name": "result",
							"type": "bool"
						}
					],
					"stateMutability": "nonpayable",
					"type": "function"
				}
			],
			"devdoc": {
				"kind": "dev",
				"methods": {},
				"version": 1
			},
			"evm": {
				"assembly": "    /* \"contracts/homework/4-5.ScopeStruct/scopeStruct.sol\":385:534  contract ExternalContract {... */\n  mstore(0x40, 0x80)\n  callvalue\n  dup1\n  iszero\n  tag_1\n  jumpi\n  0x00\n  dup1\n  revert\ntag_1:\n  pop\n  dataSize(sub_0)\n  dup1\n  dataOffset(sub_0)\n  0x00\n  codecopy\n  0x00\n  return\nstop\n\nsub_0: assembly {\n        /* \"contracts/homework/4-5.ScopeStruct/scopeStruct.sol\":385:534  contract ExternalContract {... */\n      mstore(0x40, 0x80)\n      callvalue\n      dup1\n      iszero\n      tag_1\n      jumpi\n      0x00\n      dup1\n      revert\n    tag_1:\n      pop\n      jumpi(tag_2, lt(calldatasize, 0x04))\n      shr(0xe0, calldataload(0x00))\n      dup1\n      0x7062c094\n      eq\n      tag_3\n      jumpi\n    tag_2:\n      0x00\n      dup1\n      revert\n        /* \"contracts/homework/4-5.ScopeStruct/scopeStruct.sol\":417:532  function someFunction(uint a) public returns(bool result) {... */\n    tag_3:\n      tag_4\n      0x04\n      dup1\n      calldatasize\n      sub\n      dup2\n      add\n      swap1\n      tag_5\n      swap2\n      swap1\n      tag_6\n      jump\t// in\n    tag_5:\n      tag_7\n      jump\t// in\n    tag_4:\n      mload(0x40)\n      tag_8\n      swap2\n      swap1\n      tag_9\n      jump\t// in\n    tag_8:\n      mload(0x40)\n      dup1\n      swap2\n      sub\n      swap1\n      return\n    tag_7:\n        /* \"contracts/homework/4-5.ScopeStruct/scopeStruct.sol\":462:473  bool result */\n      0x00\n        /* \"contracts/homework/4-5.ScopeStruct/scopeStruct.sol\":485:491  uint b */\n      dup1\n        /* \"contracts/homework/4-5.ScopeStruct/scopeStruct.sol\":498:499  a */\n      dup3\n        /* \"contracts/homework/4-5.ScopeStruct/scopeStruct.sol\":494:495  a */\n      dup4\n        /* \"contracts/homework/4-5.ScopeStruct/scopeStruct.sol\":494:499  a * a */\n      tag_11\n      swap2\n      swap1\n      tag_12\n      jump\t// in\n    tag_11:\n        /* \"contracts/homework/4-5.ScopeStruct/scopeStruct.sol\":485:499  uint b = a * a */\n      swap1\n      pop\n        /* \"contracts/homework/4-5.ScopeStruct/scopeStruct.sol\":522:525  100 */\n      0x64\n        /* \"contracts/homework/4-5.ScopeStruct/scopeStruct.sol\":518:519  b */\n      dup2\n        /* \"contracts/homework/4-5.ScopeStruct/scopeStruct.sol\":518:525  b > 100 */\n      gt\n        /* \"contracts/homework/4-5.ScopeStruct/scopeStruct.sol\":509:525  result = b > 100 */\n      swap2\n      pop\n        /* \"contracts/homework/4-5.ScopeStruct/scopeStruct.sol\":475:532  {... */\n      pop\n        /* \"contracts/homework/4-5.ScopeStruct/scopeStruct.sol\":417:532  function someFunction(uint a) public returns(bool result) {... */\n      swap2\n      swap1\n      pop\n      jump\t// out\n        /* \"#utility.yul\":88:205   */\n    tag_14:\n        /* \"#utility.yul\":197:198   */\n      0x00\n        /* \"#utility.yul\":194:195   */\n      dup1\n        /* \"#utility.yul\":187:199   */\n      revert\n        /* \"#utility.yul\":334:411   */\n    tag_16:\n        /* \"#utility.yul\":371:378   */\n      0x00\n        /* \"#utility.yul\":400:405   */\n      dup2\n        /* \"#utility.yul\":389:405   */\n      swap1\n      pop\n        /* \"#utility.yul\":334:411   */\n      swap2\n      swap1\n      pop\n      jump\t// out\n        /* \"#utility.yul\":417:539   */\n    tag_17:\n        /* \"#utility.yul\":490:514   */\n      tag_28\n        /* \"#utility.yul\":508:513   */\n      dup2\n        /* \"#utility.yul\":490:514   */\n      tag_16\n      jump\t// in\n    tag_28:\n        /* \"#utility.yul\":483:488   */\n      dup2\n        /* \"#utility.yul\":480:515   */\n      eq\n        /* \"#utility.yul\":470:533   */\n      tag_29\n      jumpi\n        /* \"#utility.yul\":529:530   */\n      0x00\n        /* \"#utility.yul\":526:527   */\n      dup1\n        /* \"#utility.yul\":519:531   */\n      revert\n        /* \"#utility.yul\":470:533   */\n    tag_29:\n        /* \"#utility.yul\":417:539   */\n      pop\n      jump\t// out\n        /* \"#utility.yul\":545:684   */\n    tag_18:\n        /* \"#utility.yul\":591:596   */\n      0x00\n        /* \"#utility.yul\":629:635   */\n      dup2\n        /* \"#utility.yul\":616:636   */\n      calldataload\n        /* \"#utility.yul\":607:636   */\n      swap1\n      pop\n        /* \"#utility.yul\":645:678   */\n      tag_31\n        /* \"#utility.yul\":672:677   */\n      dup2\n        /* \"#utility.yul\":645:678   */\n      tag_17\n      jump\t// in\n    tag_31:\n        /* \"#utility.yul\":545:684   */\n      swap3\n      swap2\n      pop\n      pop\n      jump\t// out\n        /* \"#utility.yul\":690:1019   */\n    tag_6:\n        /* \"#utility.yul\":749:755   */\n      0x00\n        /* \"#utility.yul\":798:800   */\n      0x20\n        /* \"#utility.yul\":786:795   */\n      dup3\n        /* \"#utility.yul\":777:784   */\n      dup5\n        /* \"#utility.yul\":773:796   */\n      sub\n        /* \"#utility.yul\":769:801   */\n      slt\n        /* \"#utility.yul\":766:885   */\n      iszero\n      tag_33\n      jumpi\n        /* \"#utility.yul\":804:883   */\n      tag_34\n      tag_14\n      jump\t// in\n    tag_34:\n        /* \"#utility.yul\":766:885   */\n    tag_33:\n        /* \"#utility.yul\":924:925   */\n      0x00\n        /* \"#utility.yul\":949:1002   */\n      tag_35\n        /* \"#utility.yul\":994:1001   */\n      dup5\n        /* \"#utility.yul\":985:991   */\n      dup3\n        /* \"#utility.yul\":974:983   */\n      dup6\n        /* \"#utility.yul\":970:992   */\n      add\n        /* \"#utility.yul\":949:1002   */\n      tag_18\n      jump\t// in\n    tag_35:\n        /* \"#utility.yul\":939:1002   */\n      swap2\n      pop\n        /* \"#utility.yul\":895:1012   */\n      pop\n        /* \"#utility.yul\":690:1019   */\n      swap3\n      swap2\n      pop\n      pop\n      jump\t// out\n        /* \"#utility.yul\":1025:1115   */\n    tag_19:\n        /* \"#utility.yul\":1059:1066   */\n      0x00\n        /* \"#utility.yul\":1102:1107   */\n      dup2\n        /* \"#utility.yul\":1095:1108   */\n      iszero\n        /* \"#utility.yul\":1088:1109   */\n      iszero\n        /* \"#utility.yul\":1077:1109   */\n      swap1\n      pop\n        /* \"#utility.yul\":1025:1115   */\n      swap2\n      swap1\n      pop\n      jump\t// out\n        /* \"#utility.yul\":1121:1230   */\n    tag_20:\n        /* \"#utility.yul\":1202:1223   */\n      tag_38\n        /* \"#utility.yul\":1217:1222   */\n      dup2\n        /* \"#utility.yul\":1202:1223   */\n      tag_19\n      jump\t// in\n    tag_38:\n        /* \"#utility.yul\":1197:1200   */\n      dup3\n        /* \"#utility.yul\":1190:1224   */\n      mstore\n        /* \"#utility.yul\":1121:1230   */\n      pop\n      pop\n      jump\t// out\n        /* \"#utility.yul\":1236:1446   */\n    tag_9:\n        /* \"#utility.yul\":1323:1327   */\n      0x00\n        /* \"#utility.yul\":1361:1363   */\n      0x20\n        /* \"#utility.yul\":1350:1359   */\n      dup3\n        /* \"#utility.yul\":1346:1364   */\n      add\n        /* \"#utility.yul\":1338:1364   */\n      swap1\n      pop\n        /* \"#utility.yul\":1374:1439   */\n      tag_40\n        /* \"#utility.yul\":1436:1437   */\n      0x00\n        /* \"#utility.yul\":1425:1434   */\n      dup4\n        /* \"#utility.yul\":1421:1438   */\n      add\n        /* \"#utility.yul\":1412:1418   */\n      dup5\n        /* \"#utility.yul\":1374:1439   */\n      tag_20\n      jump\t// in\n    tag_40:\n        /* \"#utility.yul\":1236:1446   */\n      swap3\n      swap2\n      pop\n      pop\n      jump\t// out\n        /* \"#utility.yul\":1452:1632   */\n    tag_21:\n        /* \"#utility.yul\":1500:1577   */\n      0x4e487b7100000000000000000000000000000000000000000000000000000000\n        /* \"#utility.yul\":1497:1498   */\n      0x00\n        /* \"#utility.yul\":1490:1578   */\n      mstore\n        /* \"#utility.yul\":1597:1601   */\n      0x11\n        /* \"#utility.yul\":1594:1595   */\n      0x04\n        /* \"#utility.yul\":1587:1602   */\n      mstore\n        /* \"#utility.yul\":1621:1625   */\n      0x24\n        /* \"#utility.yul\":1618:1619   */\n      0x00\n        /* \"#utility.yul\":1611:1626   */\n      revert\n        /* \"#utility.yul\":1638:2048   */\n    tag_12:\n        /* \"#utility.yul\":1678:1685   */\n      0x00\n        /* \"#utility.yul\":1701:1721   */\n      tag_43\n        /* \"#utility.yul\":1719:1720   */\n      dup3\n        /* \"#utility.yul\":1701:1721   */\n      tag_16\n      jump\t// in\n    tag_43:\n        /* \"#utility.yul\":1696:1721   */\n      swap2\n      pop\n        /* \"#utility.yul\":1735:1755   */\n      tag_44\n        /* \"#utility.yul\":1753:1754   */\n      dup4\n        /* \"#utility.yul\":1735:1755   */\n      tag_16\n      jump\t// in\n    tag_44:\n        /* \"#utility.yul\":1730:1755   */\n      swap3\n      pop\n        /* \"#utility.yul\":1790:1791   */\n      dup3\n        /* \"#utility.yul\":1787:1788   */\n      dup3\n        /* \"#utility.yul\":1783:1792   */\n      mul\n        /* \"#utility.yul\":1812:1842   */\n      tag_45\n        /* \"#utility.yul\":1830:1841   */\n      dup2\n        /* \"#utility.yul\":1812:1842   */\n      tag_16\n      jump\t// in\n    tag_45:\n        /* \"#utility.yul\":1801:1842   */\n      swap2\n      pop\n        /* \"#utility.yul\":1991:1992   */\n      dup3\n        /* \"#utility.yul\":1982:1989   */\n      dup3\n        /* \"#utility.yul\":1978:1993   */\n      div\n        /* \"#utility.yul\":1975:1976   */\n      dup5\n        /* \"#utility.yul\":1972:1994   */\n      eq\n        /* \"#utility.yul\":1952:1953   */\n      dup4\n        /* \"#utility.yul\":1945:1954   */\n      iszero\n        /* \"#utility.yul\":1925:2008   */\n      or\n        /* \"#utility.yul\":1902:2041   */\n      tag_46\n      jumpi\n        /* \"#utility.yul\":2021:2039   */\n      tag_47\n      tag_21\n      jump\t// in\n    tag_47:\n        /* \"#utility.yul\":1902:2041   */\n    tag_46:\n        /* \"#utility.yul\":1686:2048   */\n      pop\n        /* \"#utility.yul\":1638:2048   */\n      swap3\n      swap2\n      pop\n      pop\n      jump\t// out\n\n    auxdata: 0xa264697066735822122040b69a5511750c8e55b0da521c55dbabcadc5229f623489e9bf53c257fe24df064736f6c63430008140033\n}\n",
				"bytecode": {
					"linkReferences": {},
					"object": "608060405234801561000f575f80fd5b506101b28061001d5f395ff3fe608060405234801561000f575f80fd5b5060043610610029575f3560e01c80637062c0941461002d575b5f80fd5b610047600480360381019061004291906100b0565b61005d565b60405161005491906100f5565b60405180910390f35b5f80828361006b919061013b565b905060648111915050919050565b5f80fd5b5f819050919050565b61008f8161007d565b8114610099575f80fd5b50565b5f813590506100aa81610086565b92915050565b5f602082840312156100c5576100c4610079565b5b5f6100d28482850161009c565b91505092915050565b5f8115159050919050565b6100ef816100db565b82525050565b5f6020820190506101085f8301846100e6565b92915050565b7f4e487b71000000000000000000000000000000000000000000000000000000005f52601160045260245ffd5b5f6101458261007d565b91506101508361007d565b925082820261015e8161007d565b915082820484148315176101755761017461010e565b5b509291505056fea264697066735822122040b69a5511750c8e55b0da521c55dbabcadc5229f623489e9bf53c257fe24df064736f6c63430008140033",
					"opcodes": "PUSH1 0x80 PUSH1 0x40 MSTORE CALLVALUE DUP1 ISZERO PUSH2 0xF JUMPI PUSH0 DUP1 REVERT JUMPDEST POP PUSH2 0x1B2 DUP1 PUSH2 0x1D PUSH0 CODECOPY PUSH0 RETURN INVALID PUSH1 0x80 PUSH1 0x40 MSTORE CALLVALUE DUP1 ISZERO PUSH2 0xF JUMPI PUSH0 DUP1 REVERT JUMPDEST POP PUSH1 0x4 CALLDATASIZE LT PUSH2 0x29 JUMPI PUSH0 CALLDATALOAD PUSH1 0xE0 SHR DUP1 PUSH4 0x7062C094 EQ PUSH2 0x2D JUMPI JUMPDEST PUSH0 DUP1 REVERT JUMPDEST PUSH2 0x47 PUSH1 0x4 DUP1 CALLDATASIZE SUB DUP2 ADD SWAP1 PUSH2 0x42 SWAP2 SWAP1 PUSH2 0xB0 JUMP JUMPDEST PUSH2 0x5D JUMP JUMPDEST PUSH1 0x40 MLOAD PUSH2 0x54 SWAP2 SWAP1 PUSH2 0xF5 JUMP JUMPDEST PUSH1 0x40 MLOAD DUP1 SWAP2 SUB SWAP1 RETURN JUMPDEST PUSH0 DUP1 DUP3 DUP4 PUSH2 0x6B SWAP2 SWAP1 PUSH2 0x13B JUMP JUMPDEST SWAP1 POP PUSH1 0x64 DUP2 GT SWAP2 POP POP SWAP2 SWAP1 POP JUMP JUMPDEST PUSH0 DUP1 REVERT JUMPDEST PUSH0 DUP2 SWAP1 POP SWAP2 SWAP1 POP JUMP JUMPDEST PUSH2 0x8F DUP2 PUSH2 0x7D JUMP JUMPDEST DUP2 EQ PUSH2 0x99 JUMPI PUSH0 DUP1 REVERT JUMPDEST POP JUMP JUMPDEST PUSH0 DUP2 CALLDATALOAD SWAP1 POP PUSH2 0xAA DUP2 PUSH2 0x86 JUMP JUMPDEST SWAP3 SWAP2 POP POP JUMP JUMPDEST PUSH0 PUSH1 0x20 DUP3 DUP5 SUB SLT ISZERO PUSH2 0xC5 JUMPI PUSH2 0xC4 PUSH2 0x79 JUMP JUMPDEST JUMPDEST PUSH0 PUSH2 0xD2 DUP5 DUP3 DUP6 ADD PUSH2 0x9C JUMP JUMPDEST SWAP2 POP POP SWAP3 SWAP2 POP POP JUMP JUMPDEST PUSH0 DUP2 ISZERO ISZERO SWAP1 POP SWAP2 SWAP1 POP JUMP JUMPDEST PUSH2 0xEF DUP2 PUSH2 0xDB JUMP JUMPDEST DUP3 MSTORE POP POP JUMP JUMPDEST PUSH0 PUSH1 0x20 DUP3 ADD SWAP1 POP PUSH2 0x108 PUSH0 DUP4 ADD DUP5 PUSH2 0xE6 JUMP JUMPDEST SWAP3 SWAP2 POP POP JUMP JUMPDEST PUSH32 0x4E487B7100000000000000000000000000000000000000000000000000000000 PUSH0 MSTORE PUSH1 0x11 PUSH1 0x4 MSTORE PUSH1 0x24 PUSH0 REVERT JUMPDEST PUSH0 PUSH2 0x145 DUP3 PUSH2 0x7D JUMP JUMPDEST SWAP2 POP PUSH2 0x150 DUP4 PUSH2 0x7D JUMP JUMPDEST SWAP3 POP DUP3 DUP3 MUL PUSH2 0x15E DUP2 PUSH2 0x7D JUMP JUMPDEST SWAP2 POP DUP3 DUP3 DIV DUP5 EQ DUP4 ISZERO OR PUSH2 0x175 JUMPI PUSH2 0x174 PUSH2 0x10E JUMP JUMPDEST JUMPDEST POP SWAP3 SWAP2 POP POP JUMP INVALID LOG2 PUSH5 0x6970667358 0x22 SLT KECCAK256 BLOCKHASH 0xB6 SWAP11 SSTORE GT PUSH22 0xC8E55B0DA521C55DBABCADC5229F623489E9BF53C25 PUSH32 0xE24DF064736F6C63430008140033000000000000000000000000000000000000 "
				},
				"gasEstimates": {
					"creation": {
						"codeDepositCost": "86800",
						"executionCost": "133",
						"totalCost": "86933"
					},
					"external": {
						"someFunction(uint256)": "infinite"
					}
				},
				"methodIdentifiers": {
					"someFunction(uint256)": "7062c094"
				}
			},
			"storageLayout": {
				"storage": [],
				"types": null
			},
			"userdoc": {
				"kind": "user",
				"methods": {},
				"notice": "1.4-1.5变量的作用域和控制结构 作业 编写一个包含公共、内部和私有状态变量的合约，测试其在合约内部、外部以及派生合约中的访问权限。 实现一个函数，使用for循环计算1到n的所有奇数和，并使用try/catch结构处理外部合约调用中的异常。*",
				"version": 1
			}
		}
	}
}