{
	"contracts/homework/4-5.ScopeStruct/scopeStruct.sol": {
		"ScopeStruct": {
			"abi": [
				{
					"inputs": [
						{
							"internalType": "uint256",
							"name": "b",
							"type": "uint256"
						},
						{
							"internalType": "address",
							"name": "externalContractAddress",
							"type": "address"
						}
					],
					"name": "countNum",
					"outputs": [
						{
							"internalType": "bool",
							"name": "result",
							"type": "bool"
						}
					],
					"stateMutability": "nonpayable",
					"type": "function"
				},
				{
					"inputs": [
						{
							"internalType": "uint256",
							"name": "a",
							"type": "uint256"
						}
					],
					"name": "loopFunc",
					"outputs": [
						{
							"internalType": "uint256",
							"name": "sum",
							"type": "uint256"
						}
					],
					"stateMutability": "nonpayable",
					"type": "function"
				},
				{
					"inputs": [],
					"name": "outData",
					"outputs": [
						{
							"internalType": "uint256",
							"name": "",
							"type": "uint256"
						}
					],
					"stateMutability": "view",
					"type": "function"
				}
			],
			"devdoc": {
				"kind": "dev",
				"methods": {},
				"version": 1
			},
			"evm": {
				"assembly": "    /* \"contracts/homework/4-5.ScopeStruct/scopeStruct.sol\":536:1101  contract ScopeStruct {... */\n  mstore(0x40, 0x80)\n  callvalue\n  dup1\n  iszero\n  tag_1\n  jumpi\n  0x00\n  dup1\n  revert\ntag_1:\n  pop\n  dataSize(sub_0)\n  dup1\n  dataOffset(sub_0)\n  0x00\n  codecopy\n  0x00\n  return\nstop\n\nsub_0: assembly {\n        /* \"contracts/homework/4-5.ScopeStruct/scopeStruct.sol\":536:1101  contract ScopeStruct {... */\n      mstore(0x40, 0x80)\n      callvalue\n      dup1\n      iszero\n      tag_1\n      jumpi\n      0x00\n      dup1\n      revert\n    tag_1:\n      pop\n      jumpi(tag_2, lt(calldatasize, 0x04))\n      shr(0xe0, calldataload(0x00))\n      dup1\n      0xaa63cdc0\n      eq\n      tag_3\n      jumpi\n      dup1\n      0xb6fc6a30\n      eq\n      tag_4\n      jumpi\n      dup1\n      0xddffbd88\n      eq\n      tag_5\n      jumpi\n    tag_2:\n      0x00\n      dup1\n      revert\n        /* \"contracts/homework/4-5.ScopeStruct/scopeStruct.sol\":625:818  function loopFunc(uint a) public returns(uint sum) {... */\n    tag_3:\n      tag_6\n      0x04\n      dup1\n      calldatasize\n      sub\n      dup2\n      add\n      swap1\n      tag_7\n      swap2\n      swap1\n      tag_8\n      jump\t// in\n    tag_7:\n      tag_9\n      jump\t// in\n    tag_6:\n      mload(0x40)\n      tag_10\n      swap2\n      swap1\n      tag_11\n      jump\t// in\n    tag_10:\n      mload(0x40)\n      dup1\n      swap2\n      sub\n      swap1\n      return\n        /* \"contracts/homework/4-5.ScopeStruct/scopeStruct.sol\":563:585  uint256 public outData */\n    tag_4:\n      tag_12\n      tag_13\n      jump\t// in\n    tag_12:\n      mload(0x40)\n      tag_14\n      swap2\n      swap1\n      tag_11\n      jump\t// in\n    tag_14:\n      mload(0x40)\n      dup1\n      swap2\n      sub\n      swap1\n      return\n        /* \"contracts/homework/4-5.ScopeStruct/scopeStruct.sol\":824:1097  function countNum(uint b, address externalContractAddress) public  returns (bool result){... */\n    tag_5:\n      tag_15\n      0x04\n      dup1\n      calldatasize\n      sub\n      dup2\n      add\n      swap1\n      tag_16\n      swap2\n      swap1\n      tag_17\n      jump\t// in\n    tag_16:\n      tag_18\n      jump\t// in\n    tag_15:\n      mload(0x40)\n      tag_19\n      swap2\n      swap1\n      tag_20\n      jump\t// in\n    tag_19:\n      mload(0x40)\n      dup1\n      swap2\n      sub\n      swap1\n      return\n        /* \"contracts/homework/4-5.ScopeStruct/scopeStruct.sol\":625:818  function loopFunc(uint a) public returns(uint sum) {... */\n    tag_9:\n        /* \"contracts/homework/4-5.ScopeStruct/scopeStruct.sol\":666:674  uint sum */\n      0x00\n        /* \"contracts/homework/4-5.ScopeStruct/scopeStruct.sol\":708:714  uint x */\n      dup1\n        /* \"contracts/homework/4-5.ScopeStruct/scopeStruct.sol\":703:812  for (uint x = 0; x <= a; x++) {... */\n    tag_22:\n        /* \"contracts/homework/4-5.ScopeStruct/scopeStruct.sol\":725:726  a */\n      dup3\n        /* \"contracts/homework/4-5.ScopeStruct/scopeStruct.sol\":720:721  x */\n      dup2\n        /* \"contracts/homework/4-5.ScopeStruct/scopeStruct.sol\":720:726  x <= a */\n      gt\n        /* \"contracts/homework/4-5.ScopeStruct/scopeStruct.sol\":703:812  for (uint x = 0; x <= a; x++) {... */\n      tag_23\n      jumpi\n        /* \"contracts/homework/4-5.ScopeStruct/scopeStruct.sol\":758:759  1 */\n      0x01\n        /* \"contracts/homework/4-5.ScopeStruct/scopeStruct.sol\":753:754  2 */\n      0x02\n        /* \"contracts/homework/4-5.ScopeStruct/scopeStruct.sol\":751:752  x */\n      dup3\n        /* \"contracts/homework/4-5.ScopeStruct/scopeStruct.sol\":751:754  x%2 */\n      tag_25\n      swap2\n      swap1\n      tag_26\n      jump\t// in\n    tag_25:\n        /* \"contracts/homework/4-5.ScopeStruct/scopeStruct.sol\":751:759  x%2 == 1 */\n      sub\n        /* \"contracts/homework/4-5.ScopeStruct/scopeStruct.sol\":747:802  if (x%2 == 1) {... */\n      tag_27\n      jumpi\n        /* \"contracts/homework/4-5.ScopeStruct/scopeStruct.sol\":786:787  x */\n      dup1\n        /* \"contracts/homework/4-5.ScopeStruct/scopeStruct.sol\":779:787  sum += x */\n      dup3\n      tag_28\n      swap2\n      swap1\n      tag_29\n      jump\t// in\n    tag_28:\n      swap2\n      pop\n        /* \"contracts/homework/4-5.ScopeStruct/scopeStruct.sol\":747:802  if (x%2 == 1) {... */\n    tag_27:\n        /* \"contracts/homework/4-5.ScopeStruct/scopeStruct.sol\":728:731  x++ */\n      dup1\n      dup1\n      tag_30\n      swap1\n      tag_31\n      jump\t// in\n    tag_30:\n      swap2\n      pop\n      pop\n        /* \"contracts/homework/4-5.ScopeStruct/scopeStruct.sol\":703:812  for (uint x = 0; x <= a; x++) {... */\n      jump(tag_22)\n    tag_23:\n      pop\n        /* \"contracts/homework/4-5.ScopeStruct/scopeStruct.sol\":625:818  function loopFunc(uint a) public returns(uint sum) {... */\n      swap2\n      swap1\n      pop\n      jump\t// out\n        /* \"contracts/homework/4-5.ScopeStruct/scopeStruct.sol\":563:585  uint256 public outData */\n    tag_13:\n      sload(0x00)\n      dup2\n      jump\t// out\n        /* \"contracts/homework/4-5.ScopeStruct/scopeStruct.sol\":824:1097  function countNum(uint b, address externalContractAddress) public  returns (bool result){... */\n    tag_18:\n        /* \"contracts/homework/4-5.ScopeStruct/scopeStruct.sol\":900:911  bool result */\n      0x00\n        /* \"contracts/homework/4-5.ScopeStruct/scopeStruct.sol\":943:966  externalContractAddress */\n      dup2\n        /* \"contracts/homework/4-5.ScopeStruct/scopeStruct.sol\":926:980  ExternalContract(externalContractAddress).someFunction */\n      0xffffffffffffffffffffffffffffffffffffffff\n      and\n      0x7062c094\n        /* \"contracts/homework/4-5.ScopeStruct/scopeStruct.sol\":981:983  20 */\n      0x14\n        /* \"contracts/homework/4-5.ScopeStruct/scopeStruct.sol\":926:984  ExternalContract(externalContractAddress).someFunction(20) */\n      mload(0x40)\n      dup3\n      0xffffffff\n      and\n      0xe0\n      shl\n      dup2\n      mstore\n      0x04\n      add\n      tag_33\n      swap2\n      swap1\n      tag_34\n      jump\t// in\n    tag_33:\n      0x20\n      mload(0x40)\n      dup1\n      dup4\n      sub\n      dup2\n      0x00\n      dup8\n      gas\n      call\n      swap3\n      pop\n      pop\n      pop\n      dup1\n      iszero\n      tag_35\n      jumpi\n      pop\n      mload(0x40)\n      returndatasize\n      not(0x1f)\n      0x1f\n      dup3\n      add\n      and\n      dup3\n      add\n      dup1\n      0x40\n      mstore\n      pop\n      dup2\n      add\n      swap1\n      tag_36\n      swap2\n      swap1\n      tag_37\n      jump\t// in\n    tag_36:\n      0x01\n    tag_35:\n        /* \"contracts/homework/4-5.ScopeStruct/scopeStruct.sol\":922:1091  try ExternalContract(externalContractAddress).someFunction(20) returns (bool result) {... */\n      tag_38\n      jumpi\n        /* \"contracts/homework/4-5.ScopeStruct/scopeStruct.sol\":1075:1080  false */\n      0x00\n        /* \"contracts/homework/4-5.ScopeStruct/scopeStruct.sol\":1066:1080  result = false */\n      swap1\n      pop\n        /* \"contracts/homework/4-5.ScopeStruct/scopeStruct.sol\":922:1091  try ExternalContract(externalContractAddress).someFunction(20) returns (bool result) {... */\n      jump(tag_42)\n    tag_38:\n        /* \"contracts/homework/4-5.ScopeStruct/scopeStruct.sol\":1029:1033  true */\n      0x01\n        /* \"contracts/homework/4-5.ScopeStruct/scopeStruct.sol\":1020:1033  result = true */\n      swap1\n      pop\n        /* \"contracts/homework/4-5.ScopeStruct/scopeStruct.sol\":985:1045  returns (bool result) {... */\n      pop\n        /* \"contracts/homework/4-5.ScopeStruct/scopeStruct.sol\":922:1091  try ExternalContract(externalContractAddress).someFunction(20) returns (bool result) {... */\n    tag_42:\n        /* \"contracts/homework/4-5.ScopeStruct/scopeStruct.sol\":824:1097  function countNum(uint b, address externalContractAddress) public  returns (bool result){... */\n      swap3\n      swap2\n      pop\n      pop\n      jump\t// out\n        /* \"#utility.yul\":88:205   */\n    tag_44:\n        /* \"#utility.yul\":197:198   */\n      0x00\n        /* \"#utility.yul\":194:195   */\n      dup1\n        /* \"#utility.yul\":187:199   */\n      revert\n        /* \"#utility.yul\":334:411   */\n    tag_46:\n        /* \"#utility.yul\":371:378   */\n      0x00\n        /* \"#utility.yul\":400:405   */\n      dup2\n        /* \"#utility.yul\":389:405   */\n      swap1\n      pop\n        /* \"#utility.yul\":334:411   */\n      swap2\n      swap1\n      pop\n      jump\t// out\n        /* \"#utility.yul\":417:539   */\n    tag_47:\n        /* \"#utility.yul\":490:514   */\n      tag_70\n        /* \"#utility.yul\":508:513   */\n      dup2\n        /* \"#utility.yul\":490:514   */\n      tag_46\n      jump\t// in\n    tag_70:\n        /* \"#utility.yul\":483:488   */\n      dup2\n        /* \"#utility.yul\":480:515   */\n      eq\n        /* \"#utility.yul\":470:533   */\n      tag_71\n      jumpi\n        /* \"#utility.yul\":529:530   */\n      0x00\n        /* \"#utility.yul\":526:527   */\n      dup1\n        /* \"#utility.yul\":519:531   */\n      revert\n        /* \"#utility.yul\":470:533   */\n    tag_71:\n        /* \"#utility.yul\":417:539   */\n      pop\n      jump\t// out\n        /* \"#utility.yul\":545:684   */\n    tag_48:\n        /* \"#utility.yul\":591:596   */\n      0x00\n        /* \"#utility.yul\":629:635   */\n      dup2\n        /* \"#utility.yul\":616:636   */\n      calldataload\n        /* \"#utility.yul\":607:636   */\n      swap1\n      pop\n        /* \"#utility.yul\":645:678   */\n      tag_73\n        /* \"#utility.yul\":672:677   */\n      dup2\n        /* \"#utility.yul\":645:678   */\n      tag_47\n      jump\t// in\n    tag_73:\n        /* \"#utility.yul\":545:684   */\n      swap3\n      swap2\n      pop\n      pop\n      jump\t// out\n        /* \"#utility.yul\":690:1019   */\n    tag_8:\n        /* \"#utility.yul\":749:755   */\n      0x00\n        /* \"#utility.yul\":798:800   */\n      0x20\n        /* \"#utility.yul\":786:795   */\n      dup3\n        /* \"#utility.yul\":777:784   */\n      dup5\n        /* \"#utility.yul\":773:796   */\n      sub\n        /* \"#utility.yul\":769:801   */\n      slt\n        /* \"#utility.yul\":766:885   */\n      iszero\n      tag_75\n      jumpi\n        /* \"#utility.yul\":804:883   */\n      tag_76\n      tag_44\n      jump\t// in\n    tag_76:\n        /* \"#utility.yul\":766:885   */\n    tag_75:\n        /* \"#utility.yul\":924:925   */\n      0x00\n        /* \"#utility.yul\":949:1002   */\n      tag_77\n        /* \"#utility.yul\":994:1001   */\n      dup5\n        /* \"#utility.yul\":985:991   */\n      dup3\n        /* \"#utility.yul\":974:983   */\n      dup6\n        /* \"#utility.yul\":970:992   */\n      add\n        /* \"#utility.yul\":949:1002   */\n      tag_48\n      jump\t// in\n    tag_77:\n        /* \"#utility.yul\":939:1002   */\n      swap2\n      pop\n        /* \"#utility.yul\":895:1012   */\n      pop\n        /* \"#utility.yul\":690:1019   */\n      swap3\n      swap2\n      pop\n      pop\n      jump\t// out\n        /* \"#utility.yul\":1025:1143   */\n    tag_49:\n        /* \"#utility.yul\":1112:1136   */\n      tag_79\n        /* \"#utility.yul\":1130:1135   */\n      dup2\n        /* \"#utility.yul\":1112:1136   */\n      tag_46\n      jump\t// in\n    tag_79:\n        /* \"#utility.yul\":1107:1110   */\n      dup3\n        /* \"#utility.yul\":1100:1137   */\n      mstore\n        /* \"#utility.yul\":1025:1143   */\n      pop\n      pop\n      jump\t// out\n        /* \"#utility.yul\":1149:1371   */\n    tag_11:\n        /* \"#utility.yul\":1242:1246   */\n      0x00\n        /* \"#utility.yul\":1280:1282   */\n      0x20\n        /* \"#utility.yul\":1269:1278   */\n      dup3\n        /* \"#utility.yul\":1265:1283   */\n      add\n        /* \"#utility.yul\":1257:1283   */\n      swap1\n      pop\n        /* \"#utility.yul\":1293:1364   */\n      tag_81\n        /* \"#utility.yul\":1361:1362   */\n      0x00\n        /* \"#utility.yul\":1350:1359   */\n      dup4\n        /* \"#utility.yul\":1346:1363   */\n      add\n        /* \"#utility.yul\":1337:1343   */\n      dup5\n        /* \"#utility.yul\":1293:1364   */\n      tag_49\n      jump\t// in\n    tag_81:\n        /* \"#utility.yul\":1149:1371   */\n      swap3\n      swap2\n      pop\n      pop\n      jump\t// out\n        /* \"#utility.yul\":1377:1503   */\n    tag_50:\n        /* \"#utility.yul\":1414:1421   */\n      0x00\n        /* \"#utility.yul\":1454:1496   */\n      0xffffffffffffffffffffffffffffffffffffffff\n        /* \"#utility.yul\":1447:1452   */\n      dup3\n        /* \"#utility.yul\":1443:1497   */\n      and\n        /* \"#utility.yul\":1432:1497   */\n      swap1\n      pop\n        /* \"#utility.yul\":1377:1503   */\n      swap2\n      swap1\n      pop\n      jump\t// out\n        /* \"#utility.yul\":1509:1605   */\n    tag_51:\n        /* \"#utility.yul\":1546:1553   */\n      0x00\n        /* \"#utility.yul\":1575:1599   */\n      tag_84\n        /* \"#utility.yul\":1593:1598   */\n      dup3\n        /* \"#utility.yul\":1575:1599   */\n      tag_50\n      jump\t// in\n    tag_84:\n        /* \"#utility.yul\":1564:1599   */\n      swap1\n      pop\n        /* \"#utility.yul\":1509:1605   */\n      swap2\n      swap1\n      pop\n      jump\t// out\n        /* \"#utility.yul\":1611:1733   */\n    tag_52:\n        /* \"#utility.yul\":1684:1708   */\n      tag_86\n        /* \"#utility.yul\":1702:1707   */\n      dup2\n        /* \"#utility.yul\":1684:1708   */\n      tag_51\n      jump\t// in\n    tag_86:\n        /* \"#utility.yul\":1677:1682   */\n      dup2\n        /* \"#utility.yul\":1674:1709   */\n      eq\n        /* \"#utility.yul\":1664:1727   */\n      tag_87\n      jumpi\n        /* \"#utility.yul\":1723:1724   */\n      0x00\n        /* \"#utility.yul\":1720:1721   */\n      dup1\n        /* \"#utility.yul\":1713:1725   */\n      revert\n        /* \"#utility.yul\":1664:1727   */\n    tag_87:\n        /* \"#utility.yul\":1611:1733   */\n      pop\n      jump\t// out\n        /* \"#utility.yul\":1739:1878   */\n    tag_53:\n        /* \"#utility.yul\":1785:1790   */\n      0x00\n        /* \"#utility.yul\":1823:1829   */\n      dup2\n        /* \"#utility.yul\":1810:1830   */\n      calldataload\n        /* \"#utility.yul\":1801:1830   */\n      swap1\n      pop\n        /* \"#utility.yul\":1839:1872   */\n      tag_89\n        /* \"#utility.yul\":1866:1871   */\n      dup2\n        /* \"#utility.yul\":1839:1872   */\n      tag_52\n      jump\t// in\n    tag_89:\n        /* \"#utility.yul\":1739:1878   */\n      swap3\n      swap2\n      pop\n      pop\n      jump\t// out\n        /* \"#utility.yul\":1884:2358   */\n    tag_17:\n        /* \"#utility.yul\":1952:1958   */\n      0x00\n        /* \"#utility.yul\":1960:1966   */\n      dup1\n        /* \"#utility.yul\":2009:2011   */\n      0x40\n        /* \"#utility.yul\":1997:2006   */\n      dup4\n        /* \"#utility.yul\":1988:1995   */\n      dup6\n        /* \"#utility.yul\":1984:2007   */\n      sub\n        /* \"#utility.yul\":1980:2012   */\n      slt\n        /* \"#utility.yul\":1977:2096   */\n      iszero\n      tag_91\n      jumpi\n        /* \"#utility.yul\":2015:2094   */\n      tag_92\n      tag_44\n      jump\t// in\n    tag_92:\n        /* \"#utility.yul\":1977:2096   */\n    tag_91:\n        /* \"#utility.yul\":2135:2136   */\n      0x00\n        /* \"#utility.yul\":2160:2213   */\n      tag_93\n        /* \"#utility.yul\":2205:2212   */\n      dup6\n        /* \"#utility.yul\":2196:2202   */\n      dup3\n        /* \"#utility.yul\":2185:2194   */\n      dup7\n        /* \"#utility.yul\":2181:2203   */\n      add\n        /* \"#utility.yul\":2160:2213   */\n      tag_48\n      jump\t// in\n    tag_93:\n        /* \"#utility.yul\":2150:2213   */\n      swap3\n      pop\n        /* \"#utility.yul\":2106:2223   */\n      pop\n        /* \"#utility.yul\":2262:2264   */\n      0x20\n        /* \"#utility.yul\":2288:2341   */\n      tag_94\n        /* \"#utility.yul\":2333:2340   */\n      dup6\n        /* \"#utility.yul\":2324:2330   */\n      dup3\n        /* \"#utility.yul\":2313:2322   */\n      dup7\n        /* \"#utility.yul\":2309:2331   */\n      add\n        /* \"#utility.yul\":2288:2341   */\n      tag_53\n      jump\t// in\n    tag_94:\n        /* \"#utility.yul\":2278:2341   */\n      swap2\n      pop\n        /* \"#utility.yul\":2233:2351   */\n      pop\n        /* \"#utility.yul\":1884:2358   */\n      swap3\n      pop\n      swap3\n      swap1\n      pop\n      jump\t// out\n        /* \"#utility.yul\":2364:2454   */\n    tag_54:\n        /* \"#utility.yul\":2398:2405   */\n      0x00\n        /* \"#utility.yul\":2441:2446   */\n      dup2\n        /* \"#utility.yul\":2434:2447   */\n      iszero\n        /* \"#utility.yul\":2427:2448   */\n      iszero\n        /* \"#utility.yul\":2416:2448   */\n      swap1\n      pop\n        /* \"#utility.yul\":2364:2454   */\n      swap2\n      swap1\n      pop\n      jump\t// out\n        /* \"#utility.yul\":2460:2569   */\n    tag_55:\n        /* \"#utility.yul\":2541:2562   */\n      tag_97\n        /* \"#utility.yul\":2556:2561   */\n      dup2\n        /* \"#utility.yul\":2541:2562   */\n      tag_54\n      jump\t// in\n    tag_97:\n        /* \"#utility.yul\":2536:2539   */\n      dup3\n        /* \"#utility.yul\":2529:2563   */\n      mstore\n        /* \"#utility.yul\":2460:2569   */\n      pop\n      pop\n      jump\t// out\n        /* \"#utility.yul\":2575:2785   */\n    tag_20:\n        /* \"#utility.yul\":2662:2666   */\n      0x00\n        /* \"#utility.yul\":2700:2702   */\n      0x20\n        /* \"#utility.yul\":2689:2698   */\n      dup3\n        /* \"#utility.yul\":2685:2703   */\n      add\n        /* \"#utility.yul\":2677:2703   */\n      swap1\n      pop\n        /* \"#utility.yul\":2713:2778   */\n      tag_99\n        /* \"#utility.yul\":2775:2776   */\n      0x00\n        /* \"#utility.yul\":2764:2773   */\n      dup4\n        /* \"#utility.yul\":2760:2777   */\n      add\n        /* \"#utility.yul\":2751:2757   */\n      dup5\n        /* \"#utility.yul\":2713:2778   */\n      tag_55\n      jump\t// in\n    tag_99:\n        /* \"#utility.yul\":2575:2785   */\n      swap3\n      swap2\n      pop\n      pop\n      jump\t// out\n        /* \"#utility.yul\":2791:2971   */\n    tag_56:\n        /* \"#utility.yul\":2839:2916   */\n      0x4e487b7100000000000000000000000000000000000000000000000000000000\n        /* \"#utility.yul\":2836:2837   */\n      0x00\n        /* \"#utility.yul\":2829:2917   */\n      mstore\n        /* \"#utility.yul\":2936:2940   */\n      0x12\n        /* \"#utility.yul\":2933:2934   */\n      0x04\n        /* \"#utility.yul\":2926:2941   */\n      mstore\n        /* \"#utility.yul\":2960:2964   */\n      0x24\n        /* \"#utility.yul\":2957:2958   */\n      0x00\n        /* \"#utility.yul\":2950:2965   */\n      revert\n        /* \"#utility.yul\":2977:3153   */\n    tag_26:\n        /* \"#utility.yul\":3009:3010   */\n      0x00\n        /* \"#utility.yul\":3026:3046   */\n      tag_102\n        /* \"#utility.yul\":3044:3045   */\n      dup3\n        /* \"#utility.yul\":3026:3046   */\n      tag_46\n      jump\t// in\n    tag_102:\n        /* \"#utility.yul\":3021:3046   */\n      swap2\n      pop\n        /* \"#utility.yul\":3060:3080   */\n      tag_103\n        /* \"#utility.yul\":3078:3079   */\n      dup4\n        /* \"#utility.yul\":3060:3080   */\n      tag_46\n      jump\t// in\n    tag_103:\n        /* \"#utility.yul\":3055:3080   */\n      swap3\n      pop\n        /* \"#utility.yul\":3099:3100   */\n      dup3\n        /* \"#utility.yul\":3089:3124   */\n      tag_104\n      jumpi\n        /* \"#utility.yul\":3104:3122   */\n      tag_105\n      tag_56\n      jump\t// in\n    tag_105:\n        /* \"#utility.yul\":3089:3124   */\n    tag_104:\n        /* \"#utility.yul\":3145:3146   */\n      dup3\n        /* \"#utility.yul\":3142:3143   */\n      dup3\n        /* \"#utility.yul\":3138:3147   */\n      mod\n        /* \"#utility.yul\":3133:3147   */\n      swap1\n      pop\n        /* \"#utility.yul\":2977:3153   */\n      swap3\n      swap2\n      pop\n      pop\n      jump\t// out\n        /* \"#utility.yul\":3159:3339   */\n    tag_57:\n        /* \"#utility.yul\":3207:3284   */\n      0x4e487b7100000000000000000000000000000000000000000000000000000000\n        /* \"#utility.yul\":3204:3205   */\n      0x00\n        /* \"#utility.yul\":3197:3285   */\n      mstore\n        /* \"#utility.yul\":3304:3308   */\n      0x11\n        /* \"#utility.yul\":3301:3302   */\n      0x04\n        /* \"#utility.yul\":3294:3309   */\n      mstore\n        /* \"#utility.yul\":3328:3332   */\n      0x24\n        /* \"#utility.yul\":3325:3326   */\n      0x00\n        /* \"#utility.yul\":3318:3333   */\n      revert\n        /* \"#utility.yul\":3345:3536   */\n    tag_29:\n        /* \"#utility.yul\":3385:3388   */\n      0x00\n        /* \"#utility.yul\":3404:3424   */\n      tag_108\n        /* \"#utility.yul\":3422:3423   */\n      dup3\n        /* \"#utility.yul\":3404:3424   */\n      tag_46\n      jump\t// in\n    tag_108:\n        /* \"#utility.yul\":3399:3424   */\n      swap2\n      pop\n        /* \"#utility.yul\":3438:3458   */\n      tag_109\n        /* \"#utility.yul\":3456:3457   */\n      dup4\n        /* \"#utility.yul\":3438:3458   */\n      tag_46\n      jump\t// in\n    tag_109:\n        /* \"#utility.yul\":3433:3458   */\n      swap3\n      pop\n        /* \"#utility.yul\":3481:3482   */\n      dup3\n        /* \"#utility.yul\":3478:3479   */\n      dup3\n        /* \"#utility.yul\":3474:3483   */\n      add\n        /* \"#utility.yul\":3467:3483   */\n      swap1\n      pop\n        /* \"#utility.yul\":3502:3505   */\n      dup1\n        /* \"#utility.yul\":3499:3500   */\n      dup3\n        /* \"#utility.yul\":3496:3506   */\n      gt\n        /* \"#utility.yul\":3493:3529   */\n      iszero\n      tag_110\n      jumpi\n        /* \"#utility.yul\":3509:3527   */\n      tag_111\n      tag_57\n      jump\t// in\n    tag_111:\n        /* \"#utility.yul\":3493:3529   */\n    tag_110:\n        /* \"#utility.yul\":3345:3536   */\n      swap3\n      swap2\n      pop\n      pop\n      jump\t// out\n        /* \"#utility.yul\":3542:3775   */\n    tag_31:\n        /* \"#utility.yul\":3581:3584   */\n      0x00\n        /* \"#utility.yul\":3604:3628   */\n      tag_113\n        /* \"#utility.yul\":3622:3627   */\n      dup3\n        /* \"#utility.yul\":3604:3628   */\n      tag_46\n      jump\t// in\n    tag_113:\n        /* \"#utility.yul\":3595:3628   */\n      swap2\n      pop\n        /* \"#utility.yul\":3650:3716   */\n      0xffffffffffffffffffffffffffffffffffffffffffffffffffffffffffffffff\n        /* \"#utility.yul\":3643:3648   */\n      dup3\n        /* \"#utility.yul\":3640:3717   */\n      sub\n        /* \"#utility.yul\":3637:3740   */\n      tag_114\n      jumpi\n        /* \"#utility.yul\":3720:3738   */\n      tag_115\n      tag_57\n      jump\t// in\n    tag_115:\n        /* \"#utility.yul\":3637:3740   */\n    tag_114:\n        /* \"#utility.yul\":3767:3768   */\n      0x01\n        /* \"#utility.yul\":3760:3765   */\n      dup3\n        /* \"#utility.yul\":3756:3769   */\n      add\n        /* \"#utility.yul\":3749:3769   */\n      swap1\n      pop\n        /* \"#utility.yul\":3542:3775   */\n      swap2\n      swap1\n      pop\n      jump\t// out\n        /* \"#utility.yul\":3781:3867   */\n    tag_58:\n        /* \"#utility.yul\":3827:3834   */\n      0x00\n        /* \"#utility.yul\":3856:3861   */\n      dup2\n        /* \"#utility.yul\":3845:3861   */\n      swap1\n      pop\n        /* \"#utility.yul\":3781:3867   */\n      swap2\n      swap1\n      pop\n      jump\t// out\n        /* \"#utility.yul\":3873:3933   */\n    tag_59:\n        /* \"#utility.yul\":3901:3904   */\n      0x00\n        /* \"#utility.yul\":3922:3927   */\n      dup2\n        /* \"#utility.yul\":3915:3927   */\n      swap1\n      pop\n        /* \"#utility.yul\":3873:3933   */\n      swap2\n      swap1\n      pop\n      jump\t// out\n        /* \"#utility.yul\":3939:4099   */\n    tag_60:\n        /* \"#utility.yul\":3998:4007   */\n      0x00\n        /* \"#utility.yul\":4031:4093   */\n      tag_119\n        /* \"#utility.yul\":4049:4092   */\n      tag_120\n        /* \"#utility.yul\":4058:4091   */\n      tag_121\n        /* \"#utility.yul\":4085:4090   */\n      dup5\n        /* \"#utility.yul\":4058:4091   */\n      tag_58\n      jump\t// in\n    tag_121:\n        /* \"#utility.yul\":4049:4092   */\n      tag_59\n      jump\t// in\n    tag_120:\n        /* \"#utility.yul\":4031:4093   */\n      tag_46\n      jump\t// in\n    tag_119:\n        /* \"#utility.yul\":4018:4093   */\n      swap1\n      pop\n        /* \"#utility.yul\":3939:4099   */\n      swap2\n      swap1\n      pop\n      jump\t// out\n        /* \"#utility.yul\":4105:4254   */\n    tag_61:\n        /* \"#utility.yul\":4201:4247   */\n      tag_123\n        /* \"#utility.yul\":4241:4246   */\n      dup2\n        /* \"#utility.yul\":4201:4247   */\n      tag_60\n      jump\t// in\n    tag_123:\n        /* \"#utility.yul\":4196:4199   */\n      dup3\n        /* \"#utility.yul\":4189:4248   */\n      mstore\n        /* \"#utility.yul\":4105:4254   */\n      pop\n      pop\n      jump\t// out\n        /* \"#utility.yul\":4260:4500   */\n    tag_34:\n        /* \"#utility.yul\":4362:4366   */\n      0x00\n        /* \"#utility.yul\":4400:4402   */\n      0x20\n        /* \"#utility.yul\":4389:4398   */\n      dup3\n        /* \"#utility.yul\":4385:4403   */\n      add\n        /* \"#utility.yul\":4377:4403   */\n      swap1\n      pop\n        /* \"#utility.yul\":4413:4493   */\n      tag_125\n        /* \"#utility.yul\":4490:4491   */\n      0x00\n        /* \"#utility.yul\":4479:4488   */\n      dup4\n        /* \"#utility.yul\":4475:4492   */\n      add\n        /* \"#utility.yul\":4466:4472   */\n      dup5\n        /* \"#utility.yul\":4413:4493   */\n      tag_61\n      jump\t// in\n    tag_125:\n        /* \"#utility.yul\":4260:4500   */\n      swap3\n      swap2\n      pop\n      pop\n      jump\t// out\n        /* \"#utility.yul\":4506:4622   */\n    tag_62:\n        /* \"#utility.yul\":4576:4597   */\n      tag_127\n        /* \"#utility.yul\":4591:4596   */\n      dup2\n        /* \"#utility.yul\":4576:4597   */\n      tag_54\n      jump\t// in\n    tag_127:\n        /* \"#utility.yul\":4569:4574   */\n      dup2\n        /* \"#utility.yul\":4566:4598   */\n      eq\n        /* \"#utility.yul\":4556:4616   */\n      tag_128\n      jumpi\n        /* \"#utility.yul\":4612:4613   */\n      0x00\n        /* \"#utility.yul\":4609:4610   */\n      dup1\n        /* \"#utility.yul\":4602:4614   */\n      revert\n        /* \"#utility.yul\":4556:4616   */\n    tag_128:\n        /* \"#utility.yul\":4506:4622   */\n      pop\n      jump\t// out\n        /* \"#utility.yul\":4628:4765   */\n    tag_63:\n        /* \"#utility.yul\":4682:4687   */\n      0x00\n        /* \"#utility.yul\":4713:4719   */\n      dup2\n        /* \"#utility.yul\":4707:4720   */\n      mload\n        /* \"#utility.yul\":4698:4720   */\n      swap1\n      pop\n        /* \"#utility.yul\":4729:4759   */\n      tag_130\n        /* \"#utility.yul\":4753:4758   */\n      dup2\n        /* \"#utility.yul\":4729:4759   */\n      tag_62\n      jump\t// in\n    tag_130:\n        /* \"#utility.yul\":4628:4765   */\n      swap3\n      swap2\n      pop\n      pop\n      jump\t// out\n        /* \"#utility.yul\":4771:5116   */\n    tag_37:\n        /* \"#utility.yul\":4838:4844   */\n      0x00\n        /* \"#utility.yul\":4887:4889   */\n      0x20\n        /* \"#utility.yul\":4875:4884   */\n      dup3\n        /* \"#utility.yul\":4866:4873   */\n      dup5\n        /* \"#utility.yul\":4862:4885   */\n      sub\n        /* \"#utility.yul\":4858:4890   */\n      slt\n        /* \"#utility.yul\":4855:4974   */\n      iszero\n      tag_132\n      jumpi\n        /* \"#utility.yul\":4893:4972   */\n      tag_133\n      tag_44\n      jump\t// in\n    tag_133:\n        /* \"#utility.yul\":4855:4974   */\n    tag_132:\n        /* \"#utility.yul\":5013:5014   */\n      0x00\n        /* \"#utility.yul\":5038:5099   */\n      tag_134\n        /* \"#utility.yul\":5091:5098   */\n      dup5\n        /* \"#utility.yul\":5082:5088   */\n      dup3\n        /* \"#utility.yul\":5071:5080   */\n      dup6\n        /* \"#utility.yul\":5067:5089   */\n      add\n        /* \"#utility.yul\":5038:5099   */\n      tag_63\n      jump\t// in\n    tag_134:\n        /* \"#utility.yul\":5028:5099   */\n      swap2\n      pop\n        /* \"#utility.yul\":4984:5109   */\n      pop\n        /* \"#utility.yul\":4771:5116   */\n      swap3\n      swap2\n      pop\n      pop\n      jump\t// out\n\n    auxdata: 0xa264697066735822122078f39458552f214cac4e3930ace12c412003b494bc9b2d1dffe9744eb0cd5be964736f6c63430008140033\n}\n",
				"bytecode": {
					"linkReferences": {},
					"object": "608060405234801561000f575f80fd5b506104d98061001d5f395ff3fe608060405234801561000f575f80fd5b506004361061003f575f3560e01c8063aa63cdc014610043578063b6fc6a3014610073578063ddffbd8814610091575b5f80fd5b61005d600480360381019061005891906101d1565b6100c1565b60405161006a919061020b565b60405180910390f35b61007b610107565b604051610088919061020b565b60405180910390f35b6100ab60048036038101906100a6919061027e565b61010c565b6040516100b891906102d6565b60405180910390f35b5f805b8281116101015760016002826100da919061031c565b036100ee5780826100eb9190610379565b91505b80806100f9906103ac565b9150506100c4565b50919050565b5f5481565b5f8173ffffffffffffffffffffffffffffffffffffffff16637062c09460146040518263ffffffff1660e01b81526004016101479190610435565b6020604051808303815f875af192505050801561018257506040513d601f19601f8201168201806040525081019061017f9190610478565b60015b61018e575f9050610194565b60019050505b92915050565b5f80fd5b5f819050919050565b6101b08161019e565b81146101ba575f80fd5b50565b5f813590506101cb816101a7565b92915050565b5f602082840312156101e6576101e561019a565b5b5f6101f3848285016101bd565b91505092915050565b6102058161019e565b82525050565b5f60208201905061021e5f8301846101fc565b92915050565b5f73ffffffffffffffffffffffffffffffffffffffff82169050919050565b5f61024d82610224565b9050919050565b61025d81610243565b8114610267575f80fd5b50565b5f8135905061027881610254565b92915050565b5f80604083850312156102945761029361019a565b5b5f6102a1858286016101bd565b92505060206102b28582860161026a565b9150509250929050565b5f8115159050919050565b6102d0816102bc565b82525050565b5f6020820190506102e95f8301846102c7565b92915050565b7f4e487b71000000000000000000000000000000000000000000000000000000005f52601260045260245ffd5b5f6103268261019e565b91506103318361019e565b925082610341576103406102ef565b5b828206905092915050565b7f4e487b71000000000000000000000000000000000000000000000000000000005f52601160045260245ffd5b5f6103838261019e565b915061038e8361019e565b92508282019050808211156103a6576103a561034c565b5b92915050565b5f6103b68261019e565b91507fffffffffffffffffffffffffffffffffffffffffffffffffffffffffffffffff82036103e8576103e761034c565b5b600182019050919050565b5f819050919050565b5f819050919050565b5f61041f61041a610415846103f3565b6103fc565b61019e565b9050919050565b61042f81610405565b82525050565b5f6020820190506104485f830184610426565b92915050565b610457816102bc565b8114610461575f80fd5b50565b5f815190506104728161044e565b92915050565b5f6020828403121561048d5761048c61019a565b5b5f61049a84828501610464565b9150509291505056fea264697066735822122078f39458552f214cac4e3930ace12c412003b494bc9b2d1dffe9744eb0cd5be964736f6c63430008140033",
					"opcodes": "PUSH1 0x80 PUSH1 0x40 MSTORE CALLVALUE DUP1 ISZERO PUSH2 0xF JUMPI PUSH0 DUP1 REVERT JUMPDEST POP PUSH2 0x4D9 DUP1 PUSH2 0x1D PUSH0 CODECOPY PUSH0 RETURN INVALID PUSH1 0x80 PUSH1 0x40 MSTORE CALLVALUE DUP1 ISZERO PUSH2 0xF JUMPI PUSH0 DUP1 REVERT JUMPDEST POP PUSH1 0x4 CALLDATASIZE LT PUSH2 0x3F JUMPI PUSH0 CALLDATALOAD PUSH1 0xE0 SHR DUP1 PUSH4 0xAA63CDC0 EQ PUSH2 0x43 JUMPI DUP1 PUSH4 0xB6FC6A30 EQ PUSH2 0x73 JUMPI DUP1 PUSH4 0xDDFFBD88 EQ PUSH2 0x91 JUMPI JUMPDEST PUSH0 DUP1 REVERT JUMPDEST PUSH2 0x5D PUSH1 0x4 DUP1 CALLDATASIZE SUB DUP2 ADD SWAP1 PUSH2 0x58 SWAP2 SWAP1 PUSH2 0x1D1 JUMP JUMPDEST PUSH2 0xC1 JUMP JUMPDEST PUSH1 0x40 MLOAD PUSH2 0x6A SWAP2 SWAP1 PUSH2 0x20B JUMP JUMPDEST PUSH1 0x40 MLOAD DUP1 SWAP2 SUB SWAP1 RETURN JUMPDEST PUSH2 0x7B PUSH2 0x107 JUMP JUMPDEST PUSH1 0x40 MLOAD PUSH2 0x88 SWAP2 SWAP1 PUSH2 0x20B JUMP JUMPDEST PUSH1 0x40 MLOAD DUP1 SWAP2 SUB SWAP1 RETURN JUMPDEST PUSH2 0xAB PUSH1 0x4 DUP1 CALLDATASIZE SUB DUP2 ADD SWAP1 PUSH2 0xA6 SWAP2 SWAP1 PUSH2 0x27E JUMP JUMPDEST PUSH2 0x10C JUMP JUMPDEST PUSH1 0x40 MLOAD PUSH2 0xB8 SWAP2 SWAP1 PUSH2 0x2D6 JUMP JUMPDEST PUSH1 0x40 MLOAD DUP1 SWAP2 SUB SWAP1 RETURN JUMPDEST PUSH0 DUP1 JUMPDEST DUP3 DUP2 GT PUSH2 0x101 JUMPI PUSH1 0x1 PUSH1 0x2 DUP3 PUSH2 0xDA SWAP2 SWAP1 PUSH2 0x31C JUMP JUMPDEST SUB PUSH2 0xEE JUMPI DUP1 DUP3 PUSH2 0xEB SWAP2 SWAP1 PUSH2 0x379 JUMP JUMPDEST SWAP2 POP JUMPDEST DUP1 DUP1 PUSH2 0xF9 SWAP1 PUSH2 0x3AC JUMP JUMPDEST SWAP2 POP POP PUSH2 0xC4 JUMP JUMPDEST POP SWAP2 SWAP1 POP JUMP JUMPDEST PUSH0 SLOAD DUP2 JUMP JUMPDEST PUSH0 DUP2 PUSH20 0xFFFFFFFFFFFFFFFFFFFFFFFFFFFFFFFFFFFFFFFF AND PUSH4 0x7062C094 PUSH1 0x14 PUSH1 0x40 MLOAD DUP3 PUSH4 0xFFFFFFFF AND PUSH1 0xE0 SHL DUP2 MSTORE PUSH1 0x4 ADD PUSH2 0x147 SWAP2 SWAP1 PUSH2 0x435 JUMP JUMPDEST PUSH1 0x20 PUSH1 0x40 MLOAD DUP1 DUP4 SUB DUP2 PUSH0 DUP8 GAS CALL SWAP3 POP POP POP DUP1 ISZERO PUSH2 0x182 JUMPI POP PUSH1 0x40 MLOAD RETURNDATASIZE PUSH1 0x1F NOT PUSH1 0x1F DUP3 ADD AND DUP3 ADD DUP1 PUSH1 0x40 MSTORE POP DUP2 ADD SWAP1 PUSH2 0x17F SWAP2 SWAP1 PUSH2 0x478 JUMP JUMPDEST PUSH1 0x1 JUMPDEST PUSH2 0x18E JUMPI PUSH0 SWAP1 POP PUSH2 0x194 JUMP JUMPDEST PUSH1 0x1 SWAP1 POP POP JUMPDEST SWAP3 SWAP2 POP POP JUMP JUMPDEST PUSH0 DUP1 REVERT JUMPDEST PUSH0 DUP2 SWAP1 POP SWAP2 SWAP1 POP JUMP JUMPDEST PUSH2 0x1B0 DUP2 PUSH2 0x19E JUMP JUMPDEST DUP2 EQ PUSH2 0x1BA JUMPI PUSH0 DUP1 REVERT JUMPDEST POP JUMP JUMPDEST PUSH0 DUP2 CALLDATALOAD SWAP1 POP PUSH2 0x1CB DUP2 PUSH2 0x1A7 JUMP JUMPDEST SWAP3 SWAP2 POP POP JUMP JUMPDEST PUSH0 PUSH1 0x20 DUP3 DUP5 SUB SLT ISZERO PUSH2 0x1E6 JUMPI PUSH2 0x1E5 PUSH2 0x19A JUMP JUMPDEST JUMPDEST PUSH0 PUSH2 0x1F3 DUP5 DUP3 DUP6 ADD PUSH2 0x1BD JUMP JUMPDEST SWAP2 POP POP SWAP3 SWAP2 POP POP JUMP JUMPDEST PUSH2 0x205 DUP2 PUSH2 0x19E JUMP JUMPDEST DUP3 MSTORE POP POP JUMP JUMPDEST PUSH0 PUSH1 0x20 DUP3 ADD SWAP1 POP PUSH2 0x21E PUSH0 DUP4 ADD DUP5 PUSH2 0x1FC JUMP JUMPDEST SWAP3 SWAP2 POP POP JUMP JUMPDEST PUSH0 PUSH20 0xFFFFFFFFFFFFFFFFFFFFFFFFFFFFFFFFFFFFFFFF DUP3 AND SWAP1 POP SWAP2 SWAP1 POP JUMP JUMPDEST PUSH0 PUSH2 0x24D DUP3 PUSH2 0x224 JUMP JUMPDEST SWAP1 POP SWAP2 SWAP1 POP JUMP JUMPDEST PUSH2 0x25D DUP2 PUSH2 0x243 JUMP JUMPDEST DUP2 EQ PUSH2 0x267 JUMPI PUSH0 DUP1 REVERT JUMPDEST POP JUMP JUMPDEST PUSH0 DUP2 CALLDATALOAD SWAP1 POP PUSH2 0x278 DUP2 PUSH2 0x254 JUMP JUMPDEST SWAP3 SWAP2 POP POP JUMP JUMPDEST PUSH0 DUP1 PUSH1 0x40 DUP4 DUP6 SUB SLT ISZERO PUSH2 0x294 JUMPI PUSH2 0x293 PUSH2 0x19A JUMP JUMPDEST JUMPDEST PUSH0 PUSH2 0x2A1 DUP6 DUP3 DUP7 ADD PUSH2 0x1BD JUMP JUMPDEST SWAP3 POP POP PUSH1 0x20 PUSH2 0x2B2 DUP6 DUP3 DUP7 ADD PUSH2 0x26A JUMP JUMPDEST SWAP2 POP POP SWAP3 POP SWAP3 SWAP1 POP JUMP JUMPDEST PUSH0 DUP2 ISZERO ISZERO SWAP1 POP SWAP2 SWAP1 POP JUMP JUMPDEST PUSH2 0x2D0 DUP2 PUSH2 0x2BC JUMP JUMPDEST DUP3 MSTORE POP POP JUMP JUMPDEST PUSH0 PUSH1 0x20 DUP3 ADD SWAP1 POP PUSH2 0x2E9 PUSH0 DUP4 ADD DUP5 PUSH2 0x2C7 JUMP JUMPDEST SWAP3 SWAP2 POP POP JUMP JUMPDEST PUSH32 0x4E487B7100000000000000000000000000000000000000000000000000000000 PUSH0 MSTORE PUSH1 0x12 PUSH1 0x4 MSTORE PUSH1 0x24 PUSH0 REVERT JUMPDEST PUSH0 PUSH2 0x326 DUP3 PUSH2 0x19E JUMP JUMPDEST SWAP2 POP PUSH2 0x331 DUP4 PUSH2 0x19E JUMP JUMPDEST SWAP3 POP DUP3 PUSH2 0x341 JUMPI PUSH2 0x340 PUSH2 0x2EF JUMP JUMPDEST JUMPDEST DUP3 DUP3 MOD SWAP1 POP SWAP3 SWAP2 POP POP JUMP JUMPDEST PUSH32 0x4E487B7100000000000000000000000000000000000000000000000000000000 PUSH0 MSTORE PUSH1 0x11 PUSH1 0x4 MSTORE PUSH1 0x24 PUSH0 REVERT JUMPDEST PUSH0 PUSH2 0x383 DUP3 PUSH2 0x19E JUMP JUMPDEST SWAP2 POP PUSH2 0x38E DUP4 PUSH2 0x19E JUMP JUMPDEST SWAP3 POP DUP3 DUP3 ADD SWAP1 POP DUP1 DUP3 GT ISZERO PUSH2 0x3A6 JUMPI PUSH2 0x3A5 PUSH2 0x34C JUMP JUMPDEST JUMPDEST SWAP3 SWAP2 POP POP JUMP JUMPDEST PUSH0 PUSH2 0x3B6 DUP3 PUSH2 0x19E JUMP JUMPDEST SWAP2 POP PUSH32 0xFFFFFFFFFFFFFFFFFFFFFFFFFFFFFFFFFFFFFFFFFFFFFFFFFFFFFFFFFFFFFFFF DUP3 SUB PUSH2 0x3E8 JUMPI PUSH2 0x3E7 PUSH2 0x34C JUMP JUMPDEST JUMPDEST PUSH1 0x1 DUP3 ADD SWAP1 POP SWAP2 SWAP1 POP JUMP JUMPDEST PUSH0 DUP2 SWAP1 POP SWAP2 SWAP1 POP JUMP JUMPDEST PUSH0 DUP2 SWAP1 POP SWAP2 SWAP1 POP JUMP JUMPDEST PUSH0 PUSH2 0x41F PUSH2 0x41A PUSH2 0x415 DUP5 PUSH2 0x3F3 JUMP JUMPDEST PUSH2 0x3FC JUMP JUMPDEST PUSH2 0x19E JUMP JUMPDEST SWAP1 POP SWAP2 SWAP1 POP JUMP JUMPDEST PUSH2 0x42F DUP2 PUSH2 0x405 JUMP JUMPDEST DUP3 MSTORE POP POP JUMP JUMPDEST PUSH0 PUSH1 0x20 DUP3 ADD SWAP1 POP PUSH2 0x448 PUSH0 DUP4 ADD DUP5 PUSH2 0x426 JUMP JUMPDEST SWAP3 SWAP2 POP POP JUMP JUMPDEST PUSH2 0x457 DUP2 PUSH2 0x2BC JUMP JUMPDEST DUP2 EQ PUSH2 0x461 JUMPI PUSH0 DUP1 REVERT JUMPDEST POP JUMP JUMPDEST PUSH0 DUP2 MLOAD SWAP1 POP PUSH2 0x472 DUP2 PUSH2 0x44E JUMP JUMPDEST SWAP3 SWAP2 POP POP JUMP JUMPDEST PUSH0 PUSH1 0x20 DUP3 DUP5 SUB SLT ISZERO PUSH2 0x48D JUMPI PUSH2 0x48C PUSH2 0x19A JUMP JUMPDEST JUMPDEST PUSH0 PUSH2 0x49A DUP5 DUP3 DUP6 ADD PUSH2 0x464 JUMP JUMPDEST SWAP2 POP POP SWAP3 SWAP2 POP POP JUMP INVALID LOG2 PUSH5 0x6970667358 0x22 SLT KECCAK256 PUSH25 0xF39458552F214CAC4E3930ACE12C412003B494BC9B2D1DFFE9 PUSH21 0x4EB0CD5BE964736F6C634300081400330000000000 "
				},
				"gasEstimates": {
					"creation": {
						"codeDepositCost": "248200",
						"executionCost": "285",
						"totalCost": "248485"
					},
					"external": {
						"countNum(uint256,address)": "infinite",
						"loopFunc(uint256)": "infinite",
						"outData()": "2424"
					}
				},
				"methodIdentifiers": {
					"countNum(uint256,address)": "ddffbd88",
					"loopFunc(uint256)": "aa63cdc0",
					"outData()": "b6fc6a30"
				}
			},
			"storageLayout": {
				"storage": [
					{
						"astId": 25,
						"contract": "contracts/homework/4-5.ScopeStruct/scopeStruct.sol:ScopeStruct",
						"label": "outData",
						"offset": 0,
						"slot": "0",
						"type": "t_uint256"
					},
					{
						"astId": 27,
						"contract": "contracts/homework/4-5.ScopeStruct/scopeStruct.sol:ScopeStruct",
						"label": "privateData",
						"offset": 0,
						"slot": "1",
						"type": "t_uint128"
					}
				],
				"types": {
					"t_uint128": {
						"encoding": "inplace",
						"label": "uint128",
						"numberOfBytes": "16"
					},
					"t_uint256": {
						"encoding": "inplace",
						"label": "uint256",
						"numberOfBytes": "32"
					}
				}
			},
			"userdoc": {
				"kind": "user",
				"methods": {},
				"version": 1
			}
		}
	}
}