{
	"contracts/homework/5.structureSynatx/structureSynatx.sol": {
		"StructureSynatx": {
			"abi": [
				{
					"anonymous": false,
					"inputs": [
						{
							"indexed": false,
							"internalType": "address",
							"name": "sender",
							"type": "address"
						},
						{
							"indexed": false,
							"internalType": "uint256",
							"name": "value",
							"type": "uint256"
						},
						{
							"indexed": false,
							"internalType": "bytes",
							"name": "data",
							"type": "bytes"
						},
						{
							"indexed": false,
							"internalType": "string",
							"name": "message",
							"type": "string"
						}
					],
					"name": "ErrorHandled",
					"type": "event"
				},
				{
					"anonymous": false,
					"inputs": [
						{
							"indexed": false,
							"internalType": "address",
							"name": "sender",
							"type": "address"
						},
						{
							"indexed": false,
							"internalType": "uint256",
							"name": "amount",
							"type": "uint256"
						}
					],
					"name": "Received",
					"type": "event"
				},
				{
					"inputs": [],
					"name": "externalFunc",
					"outputs": [
						{
							"internalType": "string",
							"name": "",
							"type": "string"
						}
					],
					"stateMutability": "pure",
					"type": "function"
				},
				{
					"inputs": [],
					"name": "fallback",
					"outputs": [],
					"stateMutability": "payable",
					"type": "function"
				},
				{
					"inputs": [],
					"name": "publicFunc",
					"outputs": [
						{
							"internalType": "string",
							"name": "",
							"type": "string"
						}
					],
					"stateMutability": "pure",
					"type": "function"
				},
				{
					"inputs": [],
					"name": "publicVar",
					"outputs": [
						{
							"internalType": "uint256",
							"name": "",
							"type": "uint256"
						}
					],
					"stateMutability": "view",
					"type": "function"
				},
				{
					"inputs": [],
					"name": "receive",
					"outputs": [],
					"stateMutability": "payable",
					"type": "function"
				}
			],
			"devdoc": {
				"kind": "dev",
				"methods": {},
				"version": 1
			},
			"evm": {
				"assembly": "    /* \"contracts/homework/5.structureSynatx/structureSynatx.sol\":348:1935  contract StructureSynatx {... */\n  mstore(0x40, 0x80)\n    /* \"contracts/homework/5.structureSynatx/structureSynatx.sol\":598:599  1 */\n  0x01\n    /* \"contracts/homework/5.structureSynatx/structureSynatx.sol\":571:599  uint256 public publicVar = 1 */\n  0x00\n  sstore\n    /* \"contracts/homework/5.structureSynatx/structureSynatx.sol\":650:651  2 */\n  0x02\n    /* \"contracts/homework/5.structureSynatx/structureSynatx.sol\":621:651  uint256 private privateVar = 2 */\n  0x01\n  sstore\n    /* \"contracts/homework/5.structureSynatx/structureSynatx.sol\":704:705  3 */\n  0x03\n    /* \"contracts/homework/5.structureSynatx/structureSynatx.sol\":673:705  uint256 internal internalVar = 3 */\n  0x02\n  sstore\n    /* \"contracts/homework/5.structureSynatx/structureSynatx.sol\":348:1935  contract StructureSynatx {... */\n  callvalue\n  dup1\n  iszero\n  tag_1\n  jumpi\n  0x00\n  dup1\n  revert\ntag_1:\n  pop\n  dataSize(sub_0)\n  dup1\n  dataOffset(sub_0)\n  0x00\n  codecopy\n  0x00\n  return\nstop\n\nsub_0: assembly {\n        /* \"contracts/homework/5.structureSynatx/structureSynatx.sol\":348:1935  contract StructureSynatx {... */\n      mstore(0x40, 0x80)\n      jumpi(tag_1, lt(calldatasize, 0x04))\n      shr(0xe0, calldataload(0x00))\n      dup1\n      0x1151fad8\n      eq\n      tag_2\n      jumpi\n      dup1\n      0x42b148aa\n      eq\n      tag_3\n      jumpi\n      dup1\n      0x4b73383f\n      eq\n      tag_4\n      jumpi\n      dup1\n      0x552079dc\n      eq\n      tag_5\n      jumpi\n      dup1\n      0xa3e76c0f\n      eq\n      tag_6\n      jumpi\n    tag_1:\n      0x00\n      dup1\n      revert\n        /* \"contracts/homework/5.structureSynatx/structureSynatx.sol\":571:599  uint256 public publicVar = 1 */\n    tag_2:\n      callvalue\n      dup1\n      iszero\n      tag_7\n      jumpi\n      0x00\n      dup1\n      revert\n    tag_7:\n      pop\n      tag_8\n      tag_9\n      jump\t// in\n    tag_8:\n      mload(0x40)\n      tag_10\n      swap2\n      swap1\n      tag_11\n      jump\t// in\n    tag_10:\n      mload(0x40)\n      dup1\n      swap2\n      sub\n      swap1\n      return\n        /* \"contracts/homework/5.structureSynatx/structureSynatx.sol\":1153:1265  function externalFunc() external pure returns (string memory) {... */\n    tag_3:\n      callvalue\n      dup1\n      iszero\n      tag_12\n      jumpi\n      0x00\n      dup1\n      revert\n    tag_12:\n      pop\n      tag_13\n      tag_14\n      jump\t// in\n    tag_13:\n      mload(0x40)\n      tag_15\n      swap2\n      swap1\n      tag_16\n      jump\t// in\n    tag_15:\n      mload(0x40)\n      dup1\n      swap2\n      sub\n      swap1\n      return\n        /* \"contracts/homework/5.structureSynatx/structureSynatx.sol\":748:854  function publicFunc() public pure returns (string memory) {... */\n    tag_4:\n      callvalue\n      dup1\n      iszero\n      tag_17\n      jumpi\n      0x00\n      dup1\n      revert\n    tag_17:\n      pop\n      tag_18\n      tag_19\n      jump\t// in\n    tag_18:\n      mload(0x40)\n      tag_20\n      swap2\n      swap1\n      tag_16\n      jump\t// in\n    tag_20:\n      mload(0x40)\n      dup1\n      swap2\n      sub\n      swap1\n      return\n        /* \"contracts/homework/5.structureSynatx/structureSynatx.sol\":1366:1932  function fallback() external payable {... */\n    tag_5:\n      tag_21\n      tag_22\n      jump\t// in\n    tag_21:\n      stop\n        /* \"contracts/homework/5.structureSynatx/structureSynatx.sol\":1271:1360  function receive() external payable {... */\n    tag_6:\n      tag_23\n      tag_24\n      jump\t// in\n    tag_23:\n      stop\n        /* \"contracts/homework/5.structureSynatx/structureSynatx.sol\":571:599  uint256 public publicVar = 1 */\n    tag_9:\n      sload(0x00)\n      dup2\n      jump\t// out\n        /* \"contracts/homework/5.structureSynatx/structureSynatx.sol\":1153:1265  function externalFunc() external pure returns (string memory) {... */\n    tag_14:\n        /* \"contracts/homework/5.structureSynatx/structureSynatx.sol\":1200:1213  string memory */\n      0x60\n        /* \"contracts/homework/5.structureSynatx/structureSynatx.sol\":1225:1258  return \"External function called\" */\n      mload(0x40)\n      dup1\n      0x40\n      add\n      0x40\n      mstore\n      dup1\n      0x18\n      dup2\n      mstore\n      0x20\n      add\n      0x45787465726e616c2066756e6374696f6e2063616c6c65640000000000000000\n      dup2\n      mstore\n      pop\n      swap1\n      pop\n        /* \"contracts/homework/5.structureSynatx/structureSynatx.sol\":1153:1265  function externalFunc() external pure returns (string memory) {... */\n      swap1\n      jump\t// out\n        /* \"contracts/homework/5.structureSynatx/structureSynatx.sol\":748:854  function publicFunc() public pure returns (string memory) {... */\n    tag_19:\n        /* \"contracts/homework/5.structureSynatx/structureSynatx.sol\":791:804  string memory */\n      0x60\n        /* \"contracts/homework/5.structureSynatx/structureSynatx.sol\":816:847  return \"Public function called\" */\n      mload(0x40)\n      dup1\n      0x40\n      add\n      0x40\n      mstore\n      dup1\n      0x16\n      dup2\n      mstore\n      0x20\n      add\n      0x5075626c69632066756e6374696f6e2063616c6c656400000000000000000000\n      dup2\n      mstore\n      pop\n      swap1\n      pop\n        /* \"contracts/homework/5.structureSynatx/structureSynatx.sol\":748:854  function publicFunc() public pure returns (string memory) {... */\n      swap1\n      jump\t// out\n        /* \"contracts/homework/5.structureSynatx/structureSynatx.sol\":1366:1932  function fallback() external payable {... */\n    tag_22:\n        /* \"contracts/homework/5.structureSynatx/structureSynatx.sol\":1435:1436  0 */\n      0x00\n        /* \"contracts/homework/5.structureSynatx/structureSynatx.sol\":1417:1425  msg.data */\n      dup1\n      calldatasize\n        /* \"contracts/homework/5.structureSynatx/structureSynatx.sol\":1417:1432  msg.data.length */\n      swap1\n      pop\n        /* \"contracts/homework/5.structureSynatx/structureSynatx.sol\":1417:1436  msg.data.length > 0 */\n      gt\n        /* \"contracts/homework/5.structureSynatx/structureSynatx.sol\":1413:1926  if (msg.data.length > 0) {... */\n      iszero\n      tag_28\n      jumpi\n        /* \"contracts/homework/5.structureSynatx/structureSynatx.sol\":1457:1622  ErrorHandled(... */\n      0xfe31265276b5518a7595cd6da29fc32a521687ca98853cca2e23592e5850899e\n        /* \"contracts/homework/5.structureSynatx/structureSynatx.sol\":1487:1497  msg.sender */\n      caller\n        /* \"contracts/homework/5.structureSynatx/structureSynatx.sol\":1515:1524  msg.value */\n      callvalue\n        /* \"contracts/homework/5.structureSynatx/structureSynatx.sol\":1542:1550  msg.data */\n      0x00\n      calldatasize\n        /* \"contracts/homework/5.structureSynatx/structureSynatx.sol\":1457:1622  ErrorHandled(... */\n      mload(0x40)\n      tag_29\n      swap5\n      swap4\n      swap3\n      swap2\n      swap1\n      tag_30\n      jump\t// in\n    tag_29:\n      mload(0x40)\n      dup1\n      swap2\n      sub\n      swap1\n      log1\n        /* \"contracts/homework/5.structureSynatx/structureSynatx.sol\":1676:1724  revert(\"Invalid function call or data provided\") */\n      mload(0x40)\n      0x08c379a000000000000000000000000000000000000000000000000000000000\n      dup2\n      mstore\n      0x04\n      add\n      tag_31\n      swap1\n      tag_32\n      jump\t// in\n    tag_31:\n      mload(0x40)\n      dup1\n      swap2\n      sub\n      swap1\n      revert\n        /* \"contracts/homework/5.structureSynatx/structureSynatx.sol\":1413:1926  if (msg.data.length > 0) {... */\n    tag_28:\n        /* \"contracts/homework/5.structureSynatx/structureSynatx.sol\":1760:1915  ErrorHandled(... */\n      0xfe31265276b5518a7595cd6da29fc32a521687ca98853cca2e23592e5850899e\n        /* \"contracts/homework/5.structureSynatx/structureSynatx.sol\":1790:1800  msg.sender */\n      caller\n        /* \"contracts/homework/5.structureSynatx/structureSynatx.sol\":1818:1827  msg.value */\n      callvalue\n        /* \"contracts/homework/5.structureSynatx/structureSynatx.sol\":1845:1853  msg.data */\n      0x00\n      calldatasize\n        /* \"contracts/homework/5.structureSynatx/structureSynatx.sol\":1760:1915  ErrorHandled(... */\n      mload(0x40)\n      tag_34\n      swap5\n      swap4\n      swap3\n      swap2\n      swap1\n      tag_35\n      jump\t// in\n    tag_34:\n      mload(0x40)\n      dup1\n      swap2\n      sub\n      swap1\n      log1\n        /* \"contracts/homework/5.structureSynatx/structureSynatx.sol\":1366:1932  function fallback() external payable {... */\n      jump\t// out\n        /* \"contracts/homework/5.structureSynatx/structureSynatx.sol\":1271:1360  function receive() external payable {... */\n    tag_24:\n        /* \"contracts/homework/5.structureSynatx/structureSynatx.sol\":1322:1353  Received(msg.sender, msg.value) */\n      0x88a5966d370b9919b20f3e2c13ff65706f196a4e32cc2c12bf57088f88525874\n        /* \"contracts/homework/5.structureSynatx/structureSynatx.sol\":1331:1341  msg.sender */\n      caller\n        /* \"contracts/homework/5.structureSynatx/structureSynatx.sol\":1343:1352  msg.value */\n      callvalue\n        /* \"contracts/homework/5.structureSynatx/structureSynatx.sol\":1322:1353  Received(msg.sender, msg.value) */\n      mload(0x40)\n      tag_37\n      swap3\n      swap2\n      swap1\n      tag_38\n      jump\t// in\n    tag_37:\n      mload(0x40)\n      dup1\n      swap2\n      sub\n      swap1\n      log1\n        /* \"contracts/homework/5.structureSynatx/structureSynatx.sol\":1271:1360  function receive() external payable {... */\n      jump\t// out\n        /* \"#utility.yul\":7:84   */\n    tag_39:\n        /* \"#utility.yul\":44:51   */\n      0x00\n        /* \"#utility.yul\":73:78   */\n      dup2\n        /* \"#utility.yul\":62:78   */\n      swap1\n      pop\n        /* \"#utility.yul\":7:84   */\n      swap2\n      swap1\n      pop\n      jump\t// out\n        /* \"#utility.yul\":90:208   */\n    tag_40:\n        /* \"#utility.yul\":177:201   */\n      tag_59\n        /* \"#utility.yul\":195:200   */\n      dup2\n        /* \"#utility.yul\":177:201   */\n      tag_39\n      jump\t// in\n    tag_59:\n        /* \"#utility.yul\":172:175   */\n      dup3\n        /* \"#utility.yul\":165:202   */\n      mstore\n        /* \"#utility.yul\":90:208   */\n      pop\n      pop\n      jump\t// out\n        /* \"#utility.yul\":214:436   */\n    tag_11:\n        /* \"#utility.yul\":307:311   */\n      0x00\n        /* \"#utility.yul\":345:347   */\n      0x20\n        /* \"#utility.yul\":334:343   */\n      dup3\n        /* \"#utility.yul\":330:348   */\n      add\n        /* \"#utility.yul\":322:348   */\n      swap1\n      pop\n        /* \"#utility.yul\":358:429   */\n      tag_61\n        /* \"#utility.yul\":426:427   */\n      0x00\n        /* \"#utility.yul\":415:424   */\n      dup4\n        /* \"#utility.yul\":411:428   */\n      add\n        /* \"#utility.yul\":402:408   */\n      dup5\n        /* \"#utility.yul\":358:429   */\n      tag_40\n      jump\t// in\n    tag_61:\n        /* \"#utility.yul\":214:436   */\n      swap3\n      swap2\n      pop\n      pop\n      jump\t// out\n        /* \"#utility.yul\":442:541   */\n    tag_41:\n        /* \"#utility.yul\":494:500   */\n      0x00\n        /* \"#utility.yul\":528:533   */\n      dup2\n        /* \"#utility.yul\":522:534   */\n      mload\n        /* \"#utility.yul\":512:534   */\n      swap1\n      pop\n        /* \"#utility.yul\":442:541   */\n      swap2\n      swap1\n      pop\n      jump\t// out\n        /* \"#utility.yul\":547:716   */\n    tag_42:\n        /* \"#utility.yul\":631:642   */\n      0x00\n        /* \"#utility.yul\":665:671   */\n      dup3\n        /* \"#utility.yul\":660:663   */\n      dup3\n        /* \"#utility.yul\":653:672   */\n      mstore\n        /* \"#utility.yul\":705:709   */\n      0x20\n        /* \"#utility.yul\":700:703   */\n      dup3\n        /* \"#utility.yul\":696:710   */\n      add\n        /* \"#utility.yul\":681:710   */\n      swap1\n      pop\n        /* \"#utility.yul\":547:716   */\n      swap3\n      swap2\n      pop\n      pop\n      jump\t// out\n        /* \"#utility.yul\":722:968   */\n    tag_43:\n        /* \"#utility.yul\":803:804   */\n      0x00\n        /* \"#utility.yul\":813:926   */\n    tag_65:\n        /* \"#utility.yul\":827:833   */\n      dup4\n        /* \"#utility.yul\":824:825   */\n      dup2\n        /* \"#utility.yul\":821:834   */\n      lt\n        /* \"#utility.yul\":813:926   */\n      iszero\n      tag_67\n      jumpi\n        /* \"#utility.yul\":912:913   */\n      dup1\n        /* \"#utility.yul\":907:910   */\n      dup3\n        /* \"#utility.yul\":903:914   */\n      add\n        /* \"#utility.yul\":897:915   */\n      mload\n        /* \"#utility.yul\":893:894   */\n      dup2\n        /* \"#utility.yul\":888:891   */\n      dup5\n        /* \"#utility.yul\":884:895   */\n      add\n        /* \"#utility.yul\":877:916   */\n      mstore\n        /* \"#utility.yul\":849:851   */\n      0x20\n        /* \"#utility.yul\":846:847   */\n      dup2\n        /* \"#utility.yul\":842:852   */\n      add\n        /* \"#utility.yul\":837:852   */\n      swap1\n      pop\n        /* \"#utility.yul\":813:926   */\n      jump(tag_65)\n    tag_67:\n        /* \"#utility.yul\":960:961   */\n      0x00\n        /* \"#utility.yul\":951:957   */\n      dup5\n        /* \"#utility.yul\":946:949   */\n      dup5\n        /* \"#utility.yul\":942:958   */\n      add\n        /* \"#utility.yul\":935:962   */\n      mstore\n        /* \"#utility.yul\":784:968   */\n      pop\n        /* \"#utility.yul\":722:968   */\n      pop\n      pop\n      pop\n      jump\t// out\n        /* \"#utility.yul\":974:1076   */\n    tag_44:\n        /* \"#utility.yul\":1015:1021   */\n      0x00\n        /* \"#utility.yul\":1066:1068   */\n      0x1f\n        /* \"#utility.yul\":1062:1069   */\n      not\n        /* \"#utility.yul\":1057:1059   */\n      0x1f\n        /* \"#utility.yul\":1050:1055   */\n      dup4\n        /* \"#utility.yul\":1046:1060   */\n      add\n        /* \"#utility.yul\":1042:1070   */\n      and\n        /* \"#utility.yul\":1032:1070   */\n      swap1\n      pop\n        /* \"#utility.yul\":974:1076   */\n      swap2\n      swap1\n      pop\n      jump\t// out\n        /* \"#utility.yul\":1082:1459   */\n    tag_45:\n        /* \"#utility.yul\":1170:1173   */\n      0x00\n        /* \"#utility.yul\":1198:1237   */\n      tag_70\n        /* \"#utility.yul\":1231:1236   */\n      dup3\n        /* \"#utility.yul\":1198:1237   */\n      tag_41\n      jump\t// in\n    tag_70:\n        /* \"#utility.yul\":1253:1324   */\n      tag_71\n        /* \"#utility.yul\":1317:1323   */\n      dup2\n        /* \"#utility.yul\":1312:1315   */\n      dup6\n        /* \"#utility.yul\":1253:1324   */\n      tag_42\n      jump\t// in\n    tag_71:\n        /* \"#utility.yul\":1246:1324   */\n      swap4\n      pop\n        /* \"#utility.yul\":1333:1398   */\n      tag_72\n        /* \"#utility.yul\":1391:1397   */\n      dup2\n        /* \"#utility.yul\":1386:1389   */\n      dup6\n        /* \"#utility.yul\":1379:1383   */\n      0x20\n        /* \"#utility.yul\":1372:1377   */\n      dup7\n        /* \"#utility.yul\":1368:1384   */\n      add\n        /* \"#utility.yul\":1333:1398   */\n      tag_43\n      jump\t// in\n    tag_72:\n        /* \"#utility.yul\":1423:1452   */\n      tag_73\n        /* \"#utility.yul\":1445:1451   */\n      dup2\n        /* \"#utility.yul\":1423:1452   */\n      tag_44\n      jump\t// in\n    tag_73:\n        /* \"#utility.yul\":1418:1421   */\n      dup5\n        /* \"#utility.yul\":1414:1453   */\n      add\n        /* \"#utility.yul\":1407:1453   */\n      swap2\n      pop\n        /* \"#utility.yul\":1174:1459   */\n      pop\n        /* \"#utility.yul\":1082:1459   */\n      swap3\n      swap2\n      pop\n      pop\n      jump\t// out\n        /* \"#utility.yul\":1465:1778   */\n    tag_16:\n        /* \"#utility.yul\":1578:1582   */\n      0x00\n        /* \"#utility.yul\":1616:1618   */\n      0x20\n        /* \"#utility.yul\":1605:1614   */\n      dup3\n        /* \"#utility.yul\":1601:1619   */\n      add\n        /* \"#utility.yul\":1593:1619   */\n      swap1\n      pop\n        /* \"#utility.yul\":1665:1674   */\n      dup2\n        /* \"#utility.yul\":1659:1663   */\n      dup2\n        /* \"#utility.yul\":1655:1675   */\n      sub\n        /* \"#utility.yul\":1651:1652   */\n      0x00\n        /* \"#utility.yul\":1640:1649   */\n      dup4\n        /* \"#utility.yul\":1636:1653   */\n      add\n        /* \"#utility.yul\":1629:1676   */\n      mstore\n        /* \"#utility.yul\":1693:1771   */\n      tag_75\n        /* \"#utility.yul\":1766:1770   */\n      dup2\n        /* \"#utility.yul\":1757:1763   */\n      dup5\n        /* \"#utility.yul\":1693:1771   */\n      tag_45\n      jump\t// in\n    tag_75:\n        /* \"#utility.yul\":1685:1771   */\n      swap1\n      pop\n        /* \"#utility.yul\":1465:1778   */\n      swap3\n      swap2\n      pop\n      pop\n      jump\t// out\n        /* \"#utility.yul\":1784:1910   */\n    tag_46:\n        /* \"#utility.yul\":1821:1828   */\n      0x00\n        /* \"#utility.yul\":1861:1903   */\n      0xffffffffffffffffffffffffffffffffffffffff\n        /* \"#utility.yul\":1854:1859   */\n      dup3\n        /* \"#utility.yul\":1850:1904   */\n      and\n        /* \"#utility.yul\":1839:1904   */\n      swap1\n      pop\n        /* \"#utility.yul\":1784:1910   */\n      swap2\n      swap1\n      pop\n      jump\t// out\n        /* \"#utility.yul\":1916:2012   */\n    tag_47:\n        /* \"#utility.yul\":1953:1960   */\n      0x00\n        /* \"#utility.yul\":1982:2006   */\n      tag_78\n        /* \"#utility.yul\":2000:2005   */\n      dup3\n        /* \"#utility.yul\":1982:2006   */\n      tag_46\n      jump\t// in\n    tag_78:\n        /* \"#utility.yul\":1971:2006   */\n      swap1\n      pop\n        /* \"#utility.yul\":1916:2012   */\n      swap2\n      swap1\n      pop\n      jump\t// out\n        /* \"#utility.yul\":2018:2136   */\n    tag_48:\n        /* \"#utility.yul\":2105:2129   */\n      tag_80\n        /* \"#utility.yul\":2123:2128   */\n      dup2\n        /* \"#utility.yul\":2105:2129   */\n      tag_47\n      jump\t// in\n    tag_80:\n        /* \"#utility.yul\":2100:2103   */\n      dup3\n        /* \"#utility.yul\":2093:2130   */\n      mstore\n        /* \"#utility.yul\":2018:2136   */\n      pop\n      pop\n      jump\t// out\n        /* \"#utility.yul\":2142:2310   */\n    tag_49:\n        /* \"#utility.yul\":2225:2236   */\n      0x00\n        /* \"#utility.yul\":2259:2265   */\n      dup3\n        /* \"#utility.yul\":2254:2257   */\n      dup3\n        /* \"#utility.yul\":2247:2266   */\n      mstore\n        /* \"#utility.yul\":2299:2303   */\n      0x20\n        /* \"#utility.yul\":2294:2297   */\n      dup3\n        /* \"#utility.yul\":2290:2304   */\n      add\n        /* \"#utility.yul\":2275:2304   */\n      swap1\n      pop\n        /* \"#utility.yul\":2142:2310   */\n      swap3\n      swap2\n      pop\n      pop\n      jump\t// out\n        /* \"#utility.yul\":2316:2462   */\n    tag_50:\n        /* \"#utility.yul\":2413:2419   */\n      dup3\n        /* \"#utility.yul\":2408:2411   */\n      dup2\n        /* \"#utility.yul\":2403:2406   */\n      dup4\n        /* \"#utility.yul\":2390:2420   */\n      calldatacopy\n        /* \"#utility.yul\":2454:2455   */\n      0x00\n        /* \"#utility.yul\":2445:2451   */\n      dup4\n        /* \"#utility.yul\":2440:2443   */\n      dup4\n        /* \"#utility.yul\":2436:2452   */\n      add\n        /* \"#utility.yul\":2429:2456   */\n      mstore\n        /* \"#utility.yul\":2316:2462   */\n      pop\n      pop\n      pop\n      jump\t// out\n        /* \"#utility.yul\":2490:2804   */\n    tag_51:\n        /* \"#utility.yul\":2586:2589   */\n      0x00\n        /* \"#utility.yul\":2607:2677   */\n      tag_84\n        /* \"#utility.yul\":2670:2676   */\n      dup4\n        /* \"#utility.yul\":2665:2668   */\n      dup6\n        /* \"#utility.yul\":2607:2677   */\n      tag_49\n      jump\t// in\n    tag_84:\n        /* \"#utility.yul\":2600:2677   */\n      swap4\n      pop\n        /* \"#utility.yul\":2687:2743   */\n      tag_85\n        /* \"#utility.yul\":2736:2742   */\n      dup4\n        /* \"#utility.yul\":2731:2734   */\n      dup6\n        /* \"#utility.yul\":2724:2729   */\n      dup5\n        /* \"#utility.yul\":2687:2743   */\n      tag_50\n      jump\t// in\n    tag_85:\n        /* \"#utility.yul\":2768:2797   */\n      tag_86\n        /* \"#utility.yul\":2790:2796   */\n      dup4\n        /* \"#utility.yul\":2768:2797   */\n      tag_44\n      jump\t// in\n    tag_86:\n        /* \"#utility.yul\":2763:2766   */\n      dup5\n        /* \"#utility.yul\":2759:2798   */\n      add\n        /* \"#utility.yul\":2752:2798   */\n      swap1\n      pop\n        /* \"#utility.yul\":2490:2804   */\n      swap4\n      swap3\n      pop\n      pop\n      pop\n      jump\t// out\n        /* \"#utility.yul\":2810:3035   */\n    tag_52:\n        /* \"#utility.yul\":2950:2984   */\n      0x496e76616c69642066756e6374696f6e2063616c6c206f722064617461207072\n        /* \"#utility.yul\":2946:2947   */\n      0x00\n        /* \"#utility.yul\":2938:2944   */\n      dup3\n        /* \"#utility.yul\":2934:2948   */\n      add\n        /* \"#utility.yul\":2927:2985   */\n      mstore\n        /* \"#utility.yul\":3019:3027   */\n      0x6f76696465640000000000000000000000000000000000000000000000000000\n        /* \"#utility.yul\":3014:3016   */\n      0x20\n        /* \"#utility.yul\":3006:3012   */\n      dup3\n        /* \"#utility.yul\":3002:3017   */\n      add\n        /* \"#utility.yul\":2995:3028   */\n      mstore\n        /* \"#utility.yul\":2810:3035   */\n      pop\n      jump\t// out\n        /* \"#utility.yul\":3041:3407   */\n    tag_53:\n        /* \"#utility.yul\":3183:3186   */\n      0x00\n        /* \"#utility.yul\":3204:3271   */\n      tag_89\n        /* \"#utility.yul\":3268:3270   */\n      0x26\n        /* \"#utility.yul\":3263:3266   */\n      dup4\n        /* \"#utility.yul\":3204:3271   */\n      tag_42\n      jump\t// in\n    tag_89:\n        /* \"#utility.yul\":3197:3271   */\n      swap2\n      pop\n        /* \"#utility.yul\":3280:3373   */\n      tag_90\n        /* \"#utility.yul\":3369:3372   */\n      dup3\n        /* \"#utility.yul\":3280:3373   */\n      tag_52\n      jump\t// in\n    tag_90:\n        /* \"#utility.yul\":3398:3400   */\n      0x40\n        /* \"#utility.yul\":3393:3396   */\n      dup3\n        /* \"#utility.yul\":3389:3401   */\n      add\n        /* \"#utility.yul\":3382:3401   */\n      swap1\n      pop\n        /* \"#utility.yul\":3041:3407   */\n      swap2\n      swap1\n      pop\n      jump\t// out\n        /* \"#utility.yul\":3413:4270   */\n    tag_30:\n        /* \"#utility.yul\":3691:3695   */\n      0x00\n        /* \"#utility.yul\":3729:3732   */\n      0x80\n        /* \"#utility.yul\":3718:3727   */\n      dup3\n        /* \"#utility.yul\":3714:3733   */\n      add\n        /* \"#utility.yul\":3706:3733   */\n      swap1\n      pop\n        /* \"#utility.yul\":3743:3814   */\n      tag_92\n        /* \"#utility.yul\":3811:3812   */\n      0x00\n        /* \"#utility.yul\":3800:3809   */\n      dup4\n        /* \"#utility.yul\":3796:3813   */\n      add\n        /* \"#utility.yul\":3787:3793   */\n      dup8\n        /* \"#utility.yul\":3743:3814   */\n      tag_48\n      jump\t// in\n    tag_92:\n        /* \"#utility.yul\":3824:3896   */\n      tag_93\n        /* \"#utility.yul\":3892:3894   */\n      0x20\n        /* \"#utility.yul\":3881:3890   */\n      dup4\n        /* \"#utility.yul\":3877:3895   */\n      add\n        /* \"#utility.yul\":3868:3874   */\n      dup7\n        /* \"#utility.yul\":3824:3896   */\n      tag_40\n      jump\t// in\n    tag_93:\n        /* \"#utility.yul\":3943:3952   */\n      dup2\n        /* \"#utility.yul\":3937:3941   */\n      dup2\n        /* \"#utility.yul\":3933:3953   */\n      sub\n        /* \"#utility.yul\":3928:3930   */\n      0x40\n        /* \"#utility.yul\":3917:3926   */\n      dup4\n        /* \"#utility.yul\":3913:3931   */\n      add\n        /* \"#utility.yul\":3906:3954   */\n      mstore\n        /* \"#utility.yul\":3971:4057   */\n      tag_94\n        /* \"#utility.yul\":4052:4056   */\n      dup2\n        /* \"#utility.yul\":4043:4049   */\n      dup5\n        /* \"#utility.yul\":4035:4041   */\n      dup7\n        /* \"#utility.yul\":3971:4057   */\n      tag_51\n      jump\t// in\n    tag_94:\n        /* \"#utility.yul\":3963:4057   */\n      swap1\n      pop\n        /* \"#utility.yul\":4104:4113   */\n      dup2\n        /* \"#utility.yul\":4098:4102   */\n      dup2\n        /* \"#utility.yul\":4094:4114   */\n      sub\n        /* \"#utility.yul\":4089:4091   */\n      0x60\n        /* \"#utility.yul\":4078:4087   */\n      dup4\n        /* \"#utility.yul\":4074:4092   */\n      add\n        /* \"#utility.yul\":4067:4115   */\n      mstore\n        /* \"#utility.yul\":4132:4263   */\n      tag_95\n        /* \"#utility.yul\":4258:4262   */\n      dup2\n        /* \"#utility.yul\":4132:4263   */\n      tag_53\n      jump\t// in\n    tag_95:\n        /* \"#utility.yul\":4124:4263   */\n      swap1\n      pop\n        /* \"#utility.yul\":3413:4270   */\n      swap6\n      swap5\n      pop\n      pop\n      pop\n      pop\n      pop\n      jump\t// out\n        /* \"#utility.yul\":4276:4695   */\n    tag_32:\n        /* \"#utility.yul\":4442:4446   */\n      0x00\n        /* \"#utility.yul\":4480:4482   */\n      0x20\n        /* \"#utility.yul\":4469:4478   */\n      dup3\n        /* \"#utility.yul\":4465:4483   */\n      add\n        /* \"#utility.yul\":4457:4483   */\n      swap1\n      pop\n        /* \"#utility.yul\":4529:4538   */\n      dup2\n        /* \"#utility.yul\":4523:4527   */\n      dup2\n        /* \"#utility.yul\":4519:4539   */\n      sub\n        /* \"#utility.yul\":4515:4516   */\n      0x00\n        /* \"#utility.yul\":4504:4513   */\n      dup4\n        /* \"#utility.yul\":4500:4517   */\n      add\n        /* \"#utility.yul\":4493:4540   */\n      mstore\n        /* \"#utility.yul\":4557:4688   */\n      tag_97\n        /* \"#utility.yul\":4683:4687   */\n      dup2\n        /* \"#utility.yul\":4557:4688   */\n      tag_53\n      jump\t// in\n    tag_97:\n        /* \"#utility.yul\":4549:4688   */\n      swap1\n      pop\n        /* \"#utility.yul\":4276:4695   */\n      swap2\n      swap1\n      pop\n      jump\t// out\n        /* \"#utility.yul\":4701:4879   */\n    tag_54:\n        /* \"#utility.yul\":4841:4871   */\n      0x46616c6c6261636b2063616c6c65642077697468206e6f206461746100000000\n        /* \"#utility.yul\":4837:4838   */\n      0x00\n        /* \"#utility.yul\":4829:4835   */\n      dup3\n        /* \"#utility.yul\":4825:4839   */\n      add\n        /* \"#utility.yul\":4818:4872   */\n      mstore\n        /* \"#utility.yul\":4701:4879   */\n      pop\n      jump\t// out\n        /* \"#utility.yul\":4885:5251   */\n    tag_55:\n        /* \"#utility.yul\":5027:5030   */\n      0x00\n        /* \"#utility.yul\":5048:5115   */\n      tag_100\n        /* \"#utility.yul\":5112:5114   */\n      0x1c\n        /* \"#utility.yul\":5107:5110   */\n      dup4\n        /* \"#utility.yul\":5048:5115   */\n      tag_42\n      jump\t// in\n    tag_100:\n        /* \"#utility.yul\":5041:5115   */\n      swap2\n      pop\n        /* \"#utility.yul\":5124:5217   */\n      tag_101\n        /* \"#utility.yul\":5213:5216   */\n      dup3\n        /* \"#utility.yul\":5124:5217   */\n      tag_54\n      jump\t// in\n    tag_101:\n        /* \"#utility.yul\":5242:5244   */\n      0x20\n        /* \"#utility.yul\":5237:5240   */\n      dup3\n        /* \"#utility.yul\":5233:5245   */\n      add\n        /* \"#utility.yul\":5226:5245   */\n      swap1\n      pop\n        /* \"#utility.yul\":4885:5251   */\n      swap2\n      swap1\n      pop\n      jump\t// out\n        /* \"#utility.yul\":5257:6114   */\n    tag_35:\n        /* \"#utility.yul\":5535:5539   */\n      0x00\n        /* \"#utility.yul\":5573:5576   */\n      0x80\n        /* \"#utility.yul\":5562:5571   */\n      dup3\n        /* \"#utility.yul\":5558:5577   */\n      add\n        /* \"#utility.yul\":5550:5577   */\n      swap1\n      pop\n        /* \"#utility.yul\":5587:5658   */\n      tag_103\n        /* \"#utility.yul\":5655:5656   */\n      0x00\n        /* \"#utility.yul\":5644:5653   */\n      dup4\n        /* \"#utility.yul\":5640:5657   */\n      add\n        /* \"#utility.yul\":5631:5637   */\n      dup8\n        /* \"#utility.yul\":5587:5658   */\n      tag_48\n      jump\t// in\n    tag_103:\n        /* \"#utility.yul\":5668:5740   */\n      tag_104\n        /* \"#utility.yul\":5736:5738   */\n      0x20\n        /* \"#utility.yul\":5725:5734   */\n      dup4\n        /* \"#utility.yul\":5721:5739   */\n      add\n        /* \"#utility.yul\":5712:5718   */\n      dup7\n        /* \"#utility.yul\":5668:5740   */\n      tag_40\n      jump\t// in\n    tag_104:\n        /* \"#utility.yul\":5787:5796   */\n      dup2\n        /* \"#utility.yul\":5781:5785   */\n      dup2\n        /* \"#utility.yul\":5777:5797   */\n      sub\n        /* \"#utility.yul\":5772:5774   */\n      0x40\n        /* \"#utility.yul\":5761:5770   */\n      dup4\n        /* \"#utility.yul\":5757:5775   */\n      add\n        /* \"#utility.yul\":5750:5798   */\n      mstore\n        /* \"#utility.yul\":5815:5901   */\n      tag_105\n        /* \"#utility.yul\":5896:5900   */\n      dup2\n        /* \"#utility.yul\":5887:5893   */\n      dup5\n        /* \"#utility.yul\":5879:5885   */\n      dup7\n        /* \"#utility.yul\":5815:5901   */\n      tag_51\n      jump\t// in\n    tag_105:\n        /* \"#utility.yul\":5807:5901   */\n      swap1\n      pop\n        /* \"#utility.yul\":5948:5957   */\n      dup2\n        /* \"#utility.yul\":5942:5946   */\n      dup2\n        /* \"#utility.yul\":5938:5958   */\n      sub\n        /* \"#utility.yul\":5933:5935   */\n      0x60\n        /* \"#utility.yul\":5922:5931   */\n      dup4\n        /* \"#utility.yul\":5918:5936   */\n      add\n        /* \"#utility.yul\":5911:5959   */\n      mstore\n        /* \"#utility.yul\":5976:6107   */\n      tag_106\n        /* \"#utility.yul\":6102:6106   */\n      dup2\n        /* \"#utility.yul\":5976:6107   */\n      tag_55\n      jump\t// in\n    tag_106:\n        /* \"#utility.yul\":5968:6107   */\n      swap1\n      pop\n        /* \"#utility.yul\":5257:6114   */\n      swap6\n      swap5\n      pop\n      pop\n      pop\n      pop\n      pop\n      jump\t// out\n        /* \"#utility.yul\":6120:6452   */\n    tag_38:\n        /* \"#utility.yul\":6241:6245   */\n      0x00\n        /* \"#utility.yul\":6279:6281   */\n      0x40\n        /* \"#utility.yul\":6268:6277   */\n      dup3\n        /* \"#utility.yul\":6264:6282   */\n      add\n        /* \"#utility.yul\":6256:6282   */\n      swap1\n      pop\n        /* \"#utility.yul\":6292:6363   */\n      tag_108\n        /* \"#utility.yul\":6360:6361   */\n      0x00\n        /* \"#utility.yul\":6349:6358   */\n      dup4\n        /* \"#utility.yul\":6345:6362   */\n      add\n        /* \"#utility.yul\":6336:6342   */\n      dup6\n        /* \"#utility.yul\":6292:6363   */\n      tag_48\n      jump\t// in\n    tag_108:\n        /* \"#utility.yul\":6373:6445   */\n      tag_109\n        /* \"#utility.yul\":6441:6443   */\n      0x20\n        /* \"#utility.yul\":6430:6439   */\n      dup4\n        /* \"#utility.yul\":6426:6444   */\n      add\n        /* \"#utility.yul\":6417:6423   */\n      dup5\n        /* \"#utility.yul\":6373:6445   */\n      tag_40\n      jump\t// in\n    tag_109:\n        /* \"#utility.yul\":6120:6452   */\n      swap4\n      swap3\n      pop\n      pop\n      pop\n      jump\t// out\n\n    auxdata: 0xa264697066735822122067e3923edf4b76175a3fb5d5d6bc5915a76495e8e2e76d040aa2869cc9af84ad64736f6c63430008140033\n}\n",
				"bytecode": {
					"linkReferences": {},
					"object": "608060405260015f556002600155600360025534801561001d575f80fd5b506105968061002b5f395ff3fe608060405260043610610049575f3560e01c80631151fad81461004d57806342b148aa146100775780634b73383f146100a1578063552079dc146100cb578063a3e76c0f146100d5575b5f80fd5b348015610058575f80fd5b506100616100df565b60405161006e9190610273565b60405180910390f35b348015610082575f80fd5b5061008b6100e4565b6040516100989190610316565b60405180910390f35b3480156100ac575f80fd5b506100b5610121565b6040516100c29190610316565b60405180910390f35b6100d361015e565b005b6100dd610220565b005b5f5481565b60606040518060400160405280601881526020017f45787465726e616c2066756e6374696f6e2063616c6c65640000000000000000815250905090565b60606040518060400160405280601681526020017f5075626c69632066756e6374696f6e2063616c6c656400000000000000000000815250905090565b5f8036905011156101e1577ffe31265276b5518a7595cd6da29fc32a521687ca98853cca2e23592e5850899e33345f3660405161019e949392919061042f565b60405180910390a16040517f08c379a00000000000000000000000000000000000000000000000000000000081526004016101d890610480565b60405180910390fd5b7ffe31265276b5518a7595cd6da29fc32a521687ca98853cca2e23592e5850899e33345f3660405161021694939291906104e8565b60405180910390a1565b7f88a5966d370b9919b20f3e2c13ff65706f196a4e32cc2c12bf57088f885258743334604051610251929190610539565b60405180910390a1565b5f819050919050565b61026d8161025b565b82525050565b5f6020820190506102865f830184610264565b92915050565b5f81519050919050565b5f82825260208201905092915050565b5f5b838110156102c35780820151818401526020810190506102a8565b5f8484015250505050565b5f601f19601f8301169050919050565b5f6102e88261028c565b6102f28185610296565b93506103028185602086016102a6565b61030b816102ce565b840191505092915050565b5f6020820190508181035f83015261032e81846102de565b905092915050565b5f73ffffffffffffffffffffffffffffffffffffffff82169050919050565b5f61035f82610336565b9050919050565b61036f81610355565b82525050565b5f82825260208201905092915050565b828183375f83830152505050565b5f61039e8385610375565b93506103ab838584610385565b6103b4836102ce565b840190509392505050565b7f496e76616c69642066756e6374696f6e2063616c6c206f7220646174612070725f8201527f6f76696465640000000000000000000000000000000000000000000000000000602082015250565b5f610419602683610296565b9150610424826103bf565b604082019050919050565b5f6080820190506104425f830187610366565b61044f6020830186610264565b8181036040830152610462818486610393565b905081810360608301526104758161040d565b905095945050505050565b5f6020820190508181035f8301526104978161040d565b9050919050565b7f46616c6c6261636b2063616c6c65642077697468206e6f2064617461000000005f82015250565b5f6104d2601c83610296565b91506104dd8261049e565b602082019050919050565b5f6080820190506104fb5f830187610366565b6105086020830186610264565b818103604083015261051b818486610393565b9050818103606083015261052e816104c6565b905095945050505050565b5f60408201905061054c5f830185610366565b6105596020830184610264565b939250505056fea264697066735822122067e3923edf4b76175a3fb5d5d6bc5915a76495e8e2e76d040aa2869cc9af84ad64736f6c63430008140033",
					"opcodes": "PUSH1 0x80 PUSH1 0x40 MSTORE PUSH1 0x1 PUSH0 SSTORE PUSH1 0x2 PUSH1 0x1 SSTORE PUSH1 0x3 PUSH1 0x2 SSTORE CALLVALUE DUP1 ISZERO PUSH2 0x1D JUMPI PUSH0 DUP1 REVERT JUMPDEST POP PUSH2 0x596 DUP1 PUSH2 0x2B PUSH0 CODECOPY PUSH0 RETURN INVALID PUSH1 0x80 PUSH1 0x40 MSTORE PUSH1 0x4 CALLDATASIZE LT PUSH2 0x49 JUMPI PUSH0 CALLDATALOAD PUSH1 0xE0 SHR DUP1 PUSH4 0x1151FAD8 EQ PUSH2 0x4D JUMPI DUP1 PUSH4 0x42B148AA EQ PUSH2 0x77 JUMPI DUP1 PUSH4 0x4B73383F EQ PUSH2 0xA1 JUMPI DUP1 PUSH4 0x552079DC EQ PUSH2 0xCB JUMPI DUP1 PUSH4 0xA3E76C0F EQ PUSH2 0xD5 JUMPI JUMPDEST PUSH0 DUP1 REVERT JUMPDEST CALLVALUE DUP1 ISZERO PUSH2 0x58 JUMPI PUSH0 DUP1 REVERT JUMPDEST POP PUSH2 0x61 PUSH2 0xDF JUMP JUMPDEST PUSH1 0x40 MLOAD PUSH2 0x6E SWAP2 SWAP1 PUSH2 0x273 JUMP JUMPDEST PUSH1 0x40 MLOAD DUP1 SWAP2 SUB SWAP1 RETURN JUMPDEST CALLVALUE DUP1 ISZERO PUSH2 0x82 JUMPI PUSH0 DUP1 REVERT JUMPDEST POP PUSH2 0x8B PUSH2 0xE4 JUMP JUMPDEST PUSH1 0x40 MLOAD PUSH2 0x98 SWAP2 SWAP1 PUSH2 0x316 JUMP JUMPDEST PUSH1 0x40 MLOAD DUP1 SWAP2 SUB SWAP1 RETURN JUMPDEST CALLVALUE DUP1 ISZERO PUSH2 0xAC JUMPI PUSH0 DUP1 REVERT JUMPDEST POP PUSH2 0xB5 PUSH2 0x121 JUMP JUMPDEST PUSH1 0x40 MLOAD PUSH2 0xC2 SWAP2 SWAP1 PUSH2 0x316 JUMP JUMPDEST PUSH1 0x40 MLOAD DUP1 SWAP2 SUB SWAP1 RETURN JUMPDEST PUSH2 0xD3 PUSH2 0x15E JUMP JUMPDEST STOP JUMPDEST PUSH2 0xDD PUSH2 0x220 JUMP JUMPDEST STOP JUMPDEST PUSH0 SLOAD DUP2 JUMP JUMPDEST PUSH1 0x60 PUSH1 0x40 MLOAD DUP1 PUSH1 0x40 ADD PUSH1 0x40 MSTORE DUP1 PUSH1 0x18 DUP2 MSTORE PUSH1 0x20 ADD PUSH32 0x45787465726E616C2066756E6374696F6E2063616C6C65640000000000000000 DUP2 MSTORE POP SWAP1 POP SWAP1 JUMP JUMPDEST PUSH1 0x60 PUSH1 0x40 MLOAD DUP1 PUSH1 0x40 ADD PUSH1 0x40 MSTORE DUP1 PUSH1 0x16 DUP2 MSTORE PUSH1 0x20 ADD PUSH32 0x5075626C69632066756E6374696F6E2063616C6C656400000000000000000000 DUP2 MSTORE POP SWAP1 POP SWAP1 JUMP JUMPDEST PUSH0 DUP1 CALLDATASIZE SWAP1 POP GT ISZERO PUSH2 0x1E1 JUMPI PUSH32 0xFE31265276B5518A7595CD6DA29FC32A521687CA98853CCA2E23592E5850899E CALLER CALLVALUE PUSH0 CALLDATASIZE PUSH1 0x40 MLOAD PUSH2 0x19E SWAP5 SWAP4 SWAP3 SWAP2 SWAP1 PUSH2 0x42F JUMP JUMPDEST PUSH1 0x40 MLOAD DUP1 SWAP2 SUB SWAP1 LOG1 PUSH1 0x40 MLOAD PUSH32 0x8C379A000000000000000000000000000000000000000000000000000000000 DUP2 MSTORE PUSH1 0x4 ADD PUSH2 0x1D8 SWAP1 PUSH2 0x480 JUMP JUMPDEST PUSH1 0x40 MLOAD DUP1 SWAP2 SUB SWAP1 REVERT JUMPDEST PUSH32 0xFE31265276B5518A7595CD6DA29FC32A521687CA98853CCA2E23592E5850899E CALLER CALLVALUE PUSH0 CALLDATASIZE PUSH1 0x40 MLOAD PUSH2 0x216 SWAP5 SWAP4 SWAP3 SWAP2 SWAP1 PUSH2 0x4E8 JUMP JUMPDEST PUSH1 0x40 MLOAD DUP1 SWAP2 SUB SWAP1 LOG1 JUMP JUMPDEST PUSH32 0x88A5966D370B9919B20F3E2C13FF65706F196A4E32CC2C12BF57088F88525874 CALLER CALLVALUE PUSH1 0x40 MLOAD PUSH2 0x251 SWAP3 SWAP2 SWAP1 PUSH2 0x539 JUMP JUMPDEST PUSH1 0x40 MLOAD DUP1 SWAP2 SUB SWAP1 LOG1 JUMP JUMPDEST PUSH0 DUP2 SWAP1 POP SWAP2 SWAP1 POP JUMP JUMPDEST PUSH2 0x26D DUP2 PUSH2 0x25B JUMP JUMPDEST DUP3 MSTORE POP POP JUMP JUMPDEST PUSH0 PUSH1 0x20 DUP3 ADD SWAP1 POP PUSH2 0x286 PUSH0 DUP4 ADD DUP5 PUSH2 0x264 JUMP JUMPDEST SWAP3 SWAP2 POP POP JUMP JUMPDEST PUSH0 DUP2 MLOAD SWAP1 POP SWAP2 SWAP1 POP JUMP JUMPDEST PUSH0 DUP3 DUP3 MSTORE PUSH1 0x20 DUP3 ADD SWAP1 POP SWAP3 SWAP2 POP POP JUMP JUMPDEST PUSH0 JUMPDEST DUP4 DUP2 LT ISZERO PUSH2 0x2C3 JUMPI DUP1 DUP3 ADD MLOAD DUP2 DUP5 ADD MSTORE PUSH1 0x20 DUP2 ADD SWAP1 POP PUSH2 0x2A8 JUMP JUMPDEST PUSH0 DUP5 DUP5 ADD MSTORE POP POP POP POP JUMP JUMPDEST PUSH0 PUSH1 0x1F NOT PUSH1 0x1F DUP4 ADD AND SWAP1 POP SWAP2 SWAP1 POP JUMP JUMPDEST PUSH0 PUSH2 0x2E8 DUP3 PUSH2 0x28C JUMP JUMPDEST PUSH2 0x2F2 DUP2 DUP6 PUSH2 0x296 JUMP JUMPDEST SWAP4 POP PUSH2 0x302 DUP2 DUP6 PUSH1 0x20 DUP7 ADD PUSH2 0x2A6 JUMP JUMPDEST PUSH2 0x30B DUP2 PUSH2 0x2CE JUMP JUMPDEST DUP5 ADD SWAP2 POP POP SWAP3 SWAP2 POP POP JUMP JUMPDEST PUSH0 PUSH1 0x20 DUP3 ADD SWAP1 POP DUP2 DUP2 SUB PUSH0 DUP4 ADD MSTORE PUSH2 0x32E DUP2 DUP5 PUSH2 0x2DE JUMP JUMPDEST SWAP1 POP SWAP3 SWAP2 POP POP JUMP JUMPDEST PUSH0 PUSH20 0xFFFFFFFFFFFFFFFFFFFFFFFFFFFFFFFFFFFFFFFF DUP3 AND SWAP1 POP SWAP2 SWAP1 POP JUMP JUMPDEST PUSH0 PUSH2 0x35F DUP3 PUSH2 0x336 JUMP JUMPDEST SWAP1 POP SWAP2 SWAP1 POP JUMP JUMPDEST PUSH2 0x36F DUP2 PUSH2 0x355 JUMP JUMPDEST DUP3 MSTORE POP POP JUMP JUMPDEST PUSH0 DUP3 DUP3 MSTORE PUSH1 0x20 DUP3 ADD SWAP1 POP SWAP3 SWAP2 POP POP JUMP JUMPDEST DUP3 DUP2 DUP4 CALLDATACOPY PUSH0 DUP4 DUP4 ADD MSTORE POP POP POP JUMP JUMPDEST PUSH0 PUSH2 0x39E DUP4 DUP6 PUSH2 0x375 JUMP JUMPDEST SWAP4 POP PUSH2 0x3AB DUP4 DUP6 DUP5 PUSH2 0x385 JUMP JUMPDEST PUSH2 0x3B4 DUP4 PUSH2 0x2CE JUMP JUMPDEST DUP5 ADD SWAP1 POP SWAP4 SWAP3 POP POP POP JUMP JUMPDEST PUSH32 0x496E76616C69642066756E6374696F6E2063616C6C206F722064617461207072 PUSH0 DUP3 ADD MSTORE PUSH32 0x6F76696465640000000000000000000000000000000000000000000000000000 PUSH1 0x20 DUP3 ADD MSTORE POP JUMP JUMPDEST PUSH0 PUSH2 0x419 PUSH1 0x26 DUP4 PUSH2 0x296 JUMP JUMPDEST SWAP2 POP PUSH2 0x424 DUP3 PUSH2 0x3BF JUMP JUMPDEST PUSH1 0x40 DUP3 ADD SWAP1 POP SWAP2 SWAP1 POP JUMP JUMPDEST PUSH0 PUSH1 0x80 DUP3 ADD SWAP1 POP PUSH2 0x442 PUSH0 DUP4 ADD DUP8 PUSH2 0x366 JUMP JUMPDEST PUSH2 0x44F PUSH1 0x20 DUP4 ADD DUP7 PUSH2 0x264 JUMP JUMPDEST DUP2 DUP2 SUB PUSH1 0x40 DUP4 ADD MSTORE PUSH2 0x462 DUP2 DUP5 DUP7 PUSH2 0x393 JUMP JUMPDEST SWAP1 POP DUP2 DUP2 SUB PUSH1 0x60 DUP4 ADD MSTORE PUSH2 0x475 DUP2 PUSH2 0x40D JUMP JUMPDEST SWAP1 POP SWAP6 SWAP5 POP POP POP POP POP JUMP JUMPDEST PUSH0 PUSH1 0x20 DUP3 ADD SWAP1 POP DUP2 DUP2 SUB PUSH0 DUP4 ADD MSTORE PUSH2 0x497 DUP2 PUSH2 0x40D JUMP JUMPDEST SWAP1 POP SWAP2 SWAP1 POP JUMP JUMPDEST PUSH32 0x46616C6C6261636B2063616C6C65642077697468206E6F206461746100000000 PUSH0 DUP3 ADD MSTORE POP JUMP JUMPDEST PUSH0 PUSH2 0x4D2 PUSH1 0x1C DUP4 PUSH2 0x296 JUMP JUMPDEST SWAP2 POP PUSH2 0x4DD DUP3 PUSH2 0x49E JUMP JUMPDEST PUSH1 0x20 DUP3 ADD SWAP1 POP SWAP2 SWAP1 POP JUMP JUMPDEST PUSH0 PUSH1 0x80 DUP3 ADD SWAP1 POP PUSH2 0x4FB PUSH0 DUP4 ADD DUP8 PUSH2 0x366 JUMP JUMPDEST PUSH2 0x508 PUSH1 0x20 DUP4 ADD DUP7 PUSH2 0x264 JUMP JUMPDEST DUP2 DUP2 SUB PUSH1 0x40 DUP4 ADD MSTORE PUSH2 0x51B DUP2 DUP5 DUP7 PUSH2 0x393 JUMP JUMPDEST SWAP1 POP DUP2 DUP2 SUB PUSH1 0x60 DUP4 ADD MSTORE PUSH2 0x52E DUP2 PUSH2 0x4C6 JUMP JUMPDEST SWAP1 POP SWAP6 SWAP5 POP POP POP POP POP JUMP JUMPDEST PUSH0 PUSH1 0x40 DUP3 ADD SWAP1 POP PUSH2 0x54C PUSH0 DUP4 ADD DUP6 PUSH2 0x366 JUMP JUMPDEST PUSH2 0x559 PUSH1 0x20 DUP4 ADD DUP5 PUSH2 0x264 JUMP JUMPDEST SWAP4 SWAP3 POP POP POP JUMP INVALID LOG2 PUSH5 0x6970667358 0x22 SLT KECCAK256 PUSH8 0xE3923EDF4B76175A EXTCODEHASH 0xB5 0xD5 0xD6 0xBC MSIZE ISZERO 0xA7 PUSH5 0x95E8E2E76D DIV EXP LOG2 DUP7 SWAP13 0xC9 0xAF DUP5 0xAD PUSH5 0x736F6C6343 STOP ADDMOD EQ STOP CALLER "
				},
				"gasEstimates": {
					"creation": {
						"codeDepositCost": "286000",
						"executionCost": "66639",
						"totalCost": "352639"
					},
					"external": {
						"externalFunc()": "infinite",
						"fallback()": "infinite",
						"publicFunc()": "infinite",
						"publicVar()": "2402",
						"receive()": "1777"
					},
					"internal": {
						"internalFunc()": "infinite",
						"privateFunc()": "infinite"
					}
				},
				"methodIdentifiers": {
					"externalFunc()": "42b148aa",
					"fallback()": "552079dc",
					"publicFunc()": "4b73383f",
					"publicVar()": "1151fad8",
					"receive()": "a3e76c0f"
				}
			},
			"storageLayout": {
				"storage": [
					{
						"astId": 21,
						"contract": "contracts/homework/5.structureSynatx/structureSynatx.sol:StructureSynatx",
						"label": "publicVar",
						"offset": 0,
						"slot": "0",
						"type": "t_uint256"
					},
					{
						"astId": 24,
						"contract": "contracts/homework/5.structureSynatx/structureSynatx.sol:StructureSynatx",
						"label": "privateVar",
						"offset": 0,
						"slot": "1",
						"type": "t_uint256"
					},
					{
						"astId": 27,
						"contract": "contracts/homework/5.structureSynatx/structureSynatx.sol:StructureSynatx",
						"label": "internalVar",
						"offset": 0,
						"slot": "2",
						"type": "t_uint256"
					}
				],
				"types": {
					"t_uint256": {
						"encoding": "inplace",
						"label": "uint256",
						"numberOfBytes": "32"
					}
				}
			},
			"userdoc": {
				"kind": "user",
				"methods": {},
				"notice": "编写一个合约，定义不同的可见性修饰符并测试其访问权限。 实现一个事件触发的功能，外部应用可以通过 Web3.js 监听事件。 编写一个带有 receive 和 fallback 函数的合约，测试其接收以太币和处理错误调用的行为。*",
				"version": 1
			}
		}
	}
}