{
	"data": {
		"bytecode": {
			"linkReferences": {},
			"object": "608060405234801561000f575f80fd5b5060405161028738038061028783398181016040528101906100319190610074565b805f819055505061009f565b5f80fd5b5f819050919050565b61005381610041565b811461005d575f80fd5b50565b5f8151905061006e8161004a565b92915050565b5f602082840312156100895761008861003d565b5b5f61009684828501610060565b91505092915050565b6101db806100ac5f395ff3fe608060405234801561000f575f80fd5b5060043610610034575f3560e01c8063217f4353146100385780634d41892f14610056575b5f80fd5b610040610074565b60405161004d91906100c1565b60405180910390f35b61005e610079565b60405161006b91906100c1565b60405180910390f35b5f5481565b5f620186a06204cb2f5f545f546100909190610107565b61009a9190610107565b6100a49190610175565b905090565b5f819050919050565b6100bb816100a9565b82525050565b5f6020820190506100d45f8301846100b2565b92915050565b7f4e487b71000000000000000000000000000000000000000000000000000000005f52601160045260245ffd5b5f610111826100a9565b915061011c836100a9565b925082820261012a816100a9565b91508282048414831517610141576101406100da565b5b5092915050565b7f4e487b71000000000000000000000000000000000000000000000000000000005f52601260045260245ffd5b5f61017f826100a9565b915061018a836100a9565b92508261019a57610199610148565b5b82820490509291505056fea264697066735822122003a22f22016e301d2eb58e91237392e7a1010b516c9b058775735c3eb38e748664736f6c63430008140033",
			"opcodes": "PUSH1 0x80 PUSH1 0x40 MSTORE CALLVALUE DUP1 ISZERO PUSH2 0xF JUMPI PUSH0 DUP1 REVERT JUMPDEST POP PUSH1 0x40 MLOAD PUSH2 0x287 CODESIZE SUB DUP1 PUSH2 0x287 DUP4 CODECOPY DUP2 DUP2 ADD PUSH1 0x40 MSTORE DUP2 ADD SWAP1 PUSH2 0x31 SWAP2 SWAP1 PUSH2 0x74 JUMP JUMPDEST DUP1 PUSH0 DUP2 SWAP1 SSTORE POP POP PUSH2 0x9F JUMP JUMPDEST PUSH0 DUP1 REVERT JUMPDEST PUSH0 DUP2 SWAP1 POP SWAP2 SWAP1 POP JUMP JUMPDEST PUSH2 0x53 DUP2 PUSH2 0x41 JUMP JUMPDEST DUP2 EQ PUSH2 0x5D JUMPI PUSH0 DUP1 REVERT JUMPDEST POP JUMP JUMPDEST PUSH0 DUP2 MLOAD SWAP1 POP PUSH2 0x6E DUP2 PUSH2 0x4A JUMP JUMPDEST SWAP3 SWAP2 POP POP JUMP JUMPDEST PUSH0 PUSH1 0x20 DUP3 DUP5 SUB SLT ISZERO PUSH2 0x89 JUMPI PUSH2 0x88 PUSH2 0x3D JUMP JUMPDEST JUMPDEST PUSH0 PUSH2 0x96 DUP5 DUP3 DUP6 ADD PUSH2 0x60 JUMP JUMPDEST SWAP2 POP POP SWAP3 SWAP2 POP POP JUMP JUMPDEST PUSH2 0x1DB DUP1 PUSH2 0xAC PUSH0 CODECOPY PUSH0 RETURN INVALID PUSH1 0x80 PUSH1 0x40 MSTORE CALLVALUE DUP1 ISZERO PUSH2 0xF JUMPI PUSH0 DUP1 REVERT JUMPDEST POP PUSH1 0x4 CALLDATASIZE LT PUSH2 0x34 JUMPI PUSH0 CALLDATALOAD PUSH1 0xE0 SHR DUP1 PUSH4 0x217F4353 EQ PUSH2 0x38 JUMPI DUP1 PUSH4 0x4D41892F EQ PUSH2 0x56 JUMPI JUMPDEST PUSH0 DUP1 REVERT JUMPDEST PUSH2 0x40 PUSH2 0x74 JUMP JUMPDEST PUSH1 0x40 MLOAD PUSH2 0x4D SWAP2 SWAP1 PUSH2 0xC1 JUMP JUMPDEST PUSH1 0x40 MLOAD DUP1 SWAP2 SUB SWAP1 RETURN JUMPDEST PUSH2 0x5E PUSH2 0x79 JUMP JUMPDEST PUSH1 0x40 MLOAD PUSH2 0x6B SWAP2 SWAP1 PUSH2 0xC1 JUMP JUMPDEST PUSH1 0x40 MLOAD DUP1 SWAP2 SUB SWAP1 RETURN JUMPDEST PUSH0 SLOAD DUP2 JUMP JUMPDEST PUSH0 PUSH3 0x186A0 PUSH3 0x4CB2F PUSH0 SLOAD PUSH0 SLOAD PUSH2 0x90 SWAP2 SWAP1 PUSH2 0x107 JUMP JUMPDEST PUSH2 0x9A SWAP2 SWAP1 PUSH2 0x107 JUMP JUMPDEST PUSH2 0xA4 SWAP2 SWAP1 PUSH2 0x175 JUMP JUMPDEST SWAP1 POP SWAP1 JUMP JUMPDEST PUSH0 DUP2 SWAP1 POP SWAP2 SWAP1 POP JUMP JUMPDEST PUSH2 0xBB DUP2 PUSH2 0xA9 JUMP JUMPDEST DUP3 MSTORE POP POP JUMP JUMPDEST PUSH0 PUSH1 0x20 DUP3 ADD SWAP1 POP PUSH2 0xD4 PUSH0 DUP4 ADD DUP5 PUSH2 0xB2 JUMP JUMPDEST SWAP3 SWAP2 POP POP JUMP JUMPDEST PUSH32 0x4E487B7100000000000000000000000000000000000000000000000000000000 PUSH0 MSTORE PUSH1 0x11 PUSH1 0x4 MSTORE PUSH1 0x24 PUSH0 REVERT JUMPDEST PUSH0 PUSH2 0x111 DUP3 PUSH2 0xA9 JUMP JUMPDEST SWAP2 POP PUSH2 0x11C DUP4 PUSH2 0xA9 JUMP JUMPDEST SWAP3 POP DUP3 DUP3 MUL PUSH2 0x12A DUP2 PUSH2 0xA9 JUMP JUMPDEST SWAP2 POP DUP3 DUP3 DIV DUP5 EQ DUP4 ISZERO OR PUSH2 0x141 JUMPI PUSH2 0x140 PUSH2 0xDA JUMP JUMPDEST JUMPDEST POP SWAP3 SWAP2 POP POP JUMP JUMPDEST PUSH32 0x4E487B7100000000000000000000000000000000000000000000000000000000 PUSH0 MSTORE PUSH1 0x12 PUSH1 0x4 MSTORE PUSH1 0x24 PUSH0 REVERT JUMPDEST PUSH0 PUSH2 0x17F DUP3 PUSH2 0xA9 JUMP JUMPDEST SWAP2 POP PUSH2 0x18A DUP4 PUSH2 0xA9 JUMP JUMPDEST SWAP3 POP DUP3 PUSH2 0x19A JUMPI PUSH2 0x199 PUSH2 0x148 JUMP JUMPDEST JUMPDEST DUP3 DUP3 DIV SWAP1 POP SWAP3 SWAP2 POP POP JUMP INVALID LOG2 PUSH5 0x6970667358 0x22 SLT KECCAK256 SUB LOG2 0x2F 0x22 ADD PUSH15 0x301D2EB58E91237392E7A1010B516C SWAP12 SDIV DUP8 PUSH22 0x735C3EB38E748664736F6C6343000814003300000000 "
		},
		"gasEstimates": {
			"creation": {
				"codeDepositCost": "95000",
				"executionCost": "infinite",
				"totalCost": "infinite"
			},
			"external": {
				"area()": "infinite",
				"radius()": "2402"
			}
		},
		"methodIdentifiers": {
			"area()": "4d41892f",
			"radius()": "217f4353"
		}
	},
	"abi": [
		{
			"inputs": [
				{
					"internalType": "uint256",
					"name": "_radius",
					"type": "uint256"
				}
			],
			"stateMutability": "nonpayable",
			"type": "constructor"
		},
		{
			"inputs": [],
			"name": "area",
			"outputs": [
				{
					"internalType": "uint256",
					"name": "",
					"type": "uint256"
				}
			],
			"stateMutability": "view",
			"type": "function"
		},
		{
			"inputs": [],
			"name": "radius",
			"outputs": [
				{
					"internalType": "uint256",
					"name": "",
					"type": "uint256"
				}
			],
			"stateMutability": "view",
			"type": "function"
		}
	]
}