{
	"data": {
		"bytecode": {
			"linkReferences": {},
			"object": "608060405234801561000f575f80fd5b5061076f8061001d5f395ff3fe608060405234801561000f575f80fd5b5060043610610055575f3560e01c8063226bd255146100595780633bc5de3014610089578063aa44269d146100a7578063e6b80ce6146100c3578063f0ba8440146100df575b5f80fd5b610073600480360381019061006e9190610479565b61010f565b604051610080919061059c565b60405180910390f35b610091610188565b60405161009e919061059c565b60405180910390f35b6100c160048036038101906100bc91906105bc565b6101dd565b005b6100dd60048036038101906100d89190610603565b6101f6565b005b6100f960048036038101906100f49190610641565b610260565b604051610106919061067b565b60405180910390f35b606083518310610154576040517f08c379a000000000000000000000000000000000000000000000000000000000815260040161014b906106ee565b60405180910390fd5b5f8451111561017e57818484815181106101715761017061070c565b5b6020026020010181815250505b8390509392505050565b60605f8054806020026020016040519081016040528092919081815260200182805480156101d357602002820191905f5260205f20905b8154815260200190600101908083116101bf575b5050505050905090565b805f90805190602001906101f292919061027f565b5050565b5f80549050821061023c576040517f08c379a0000000000000000000000000000000000000000000000000000000008152600401610233906106ee565b60405180910390fd5b805f83815481106102505761024f61070c565b5b905f5260205f2001819055505050565b5f818154811061026e575f80fd5b905f5260205f20015f915090505481565b828054828255905f5260205f209081019282156102b9579160200282015b828111156102b857825182559160200191906001019061029d565b5b5090506102c691906102ca565b5090565b5b808211156102e1575f815f9055506001016102cb565b5090565b5f604051905090565b5f80fd5b5f80fd5b5f80fd5b5f601f19601f8301169050919050565b7f4e487b71000000000000000000000000000000000000000000000000000000005f52604160045260245ffd5b610340826102fa565b810181811067ffffffffffffffff8211171561035f5761035e61030a565b5b80604052505050565b5f6103716102e5565b905061037d8282610337565b919050565b5f67ffffffffffffffff82111561039c5761039b61030a565b5b602082029050602081019050919050565b5f80fd5b5f819050919050565b6103c3816103b1565b81146103cd575f80fd5b50565b5f813590506103de816103ba565b92915050565b5f6103f66103f184610382565b610368565b90508083825260208201905060208402830185811115610419576104186103ad565b5b835b81811015610442578061042e88826103d0565b84526020840193505060208101905061041b565b5050509392505050565b5f82601f8301126104605761045f6102f6565b5b81356104708482602086016103e4565b91505092915050565b5f805f606084860312156104905761048f6102ee565b5b5f84013567ffffffffffffffff8111156104ad576104ac6102f2565b5b6104b98682870161044c565b93505060206104ca868287016103d0565b92505060406104db868287016103d0565b9150509250925092565b5f81519050919050565b5f82825260208201905092915050565b5f819050602082019050919050565b610517816103b1565b82525050565b5f610528838361050e565b60208301905092915050565b5f602082019050919050565b5f61054a826104e5565b61055481856104ef565b935061055f836104ff565b805f5b8381101561058f578151610576888261051d565b975061058183610534565b925050600181019050610562565b5085935050505092915050565b5f6020820190508181035f8301526105b48184610540565b905092915050565b5f602082840312156105d1576105d06102ee565b5b5f82013567ffffffffffffffff8111156105ee576105ed6102f2565b5b6105fa8482850161044c565b91505092915050565b5f8060408385031215610619576106186102ee565b5b5f610626858286016103d0565b9250506020610637858286016103d0565b9150509250929050565b5f60208284031215610656576106556102ee565b5b5f610663848285016103d0565b91505092915050565b610675816103b1565b82525050565b5f60208201905061068e5f83018461066c565b92915050565b5f82825260208201905092915050565b7f496e646578206f7574206f6620626f756e6473000000000000000000000000005f82015250565b5f6106d8601383610694565b91506106e3826106a4565b602082019050919050565b5f6020820190508181035f830152610705816106cc565b9050919050565b7f4e487b71000000000000000000000000000000000000000000000000000000005f52603260045260245ffdfea264697066735822122007d8b231f8953344bed85e899e6205d33fdcf2c69a91cfb3fba9aff1af146d9f64736f6c63430008140033",
			"opcodes": "PUSH1 0x80 PUSH1 0x40 MSTORE CALLVALUE DUP1 ISZERO PUSH2 0xF JUMPI PUSH0 DUP1 REVERT JUMPDEST POP PUSH2 0x76F DUP1 PUSH2 0x1D PUSH0 CODECOPY PUSH0 RETURN INVALID PUSH1 0x80 PUSH1 0x40 MSTORE CALLVALUE DUP1 ISZERO PUSH2 0xF JUMPI PUSH0 DUP1 REVERT JUMPDEST POP PUSH1 0x4 CALLDATASIZE LT PUSH2 0x55 JUMPI PUSH0 CALLDATALOAD PUSH1 0xE0 SHR DUP1 PUSH4 0x226BD255 EQ PUSH2 0x59 JUMPI DUP1 PUSH4 0x3BC5DE30 EQ PUSH2 0x89 JUMPI DUP1 PUSH4 0xAA44269D EQ PUSH2 0xA7 JUMPI DUP1 PUSH4 0xE6B80CE6 EQ PUSH2 0xC3 JUMPI DUP1 PUSH4 0xF0BA8440 EQ PUSH2 0xDF JUMPI JUMPDEST PUSH0 DUP1 REVERT JUMPDEST PUSH2 0x73 PUSH1 0x4 DUP1 CALLDATASIZE SUB DUP2 ADD SWAP1 PUSH2 0x6E SWAP2 SWAP1 PUSH2 0x479 JUMP JUMPDEST PUSH2 0x10F JUMP JUMPDEST PUSH1 0x40 MLOAD PUSH2 0x80 SWAP2 SWAP1 PUSH2 0x59C JUMP JUMPDEST PUSH1 0x40 MLOAD DUP1 SWAP2 SUB SWAP1 RETURN JUMPDEST PUSH2 0x91 PUSH2 0x188 JUMP JUMPDEST PUSH1 0x40 MLOAD PUSH2 0x9E SWAP2 SWAP1 PUSH2 0x59C JUMP JUMPDEST PUSH1 0x40 MLOAD DUP1 SWAP2 SUB SWAP1 RETURN JUMPDEST PUSH2 0xC1 PUSH1 0x4 DUP1 CALLDATASIZE SUB DUP2 ADD SWAP1 PUSH2 0xBC SWAP2 SWAP1 PUSH2 0x5BC JUMP JUMPDEST PUSH2 0x1DD JUMP JUMPDEST STOP JUMPDEST PUSH2 0xDD PUSH1 0x4 DUP1 CALLDATASIZE SUB DUP2 ADD SWAP1 PUSH2 0xD8 SWAP2 SWAP1 PUSH2 0x603 JUMP JUMPDEST PUSH2 0x1F6 JUMP JUMPDEST STOP JUMPDEST PUSH2 0xF9 PUSH1 0x4 DUP1 CALLDATASIZE SUB DUP2 ADD SWAP1 PUSH2 0xF4 SWAP2 SWAP1 PUSH2 0x641 JUMP JUMPDEST PUSH2 0x260 JUMP JUMPDEST PUSH1 0x40 MLOAD PUSH2 0x106 SWAP2 SWAP1 PUSH2 0x67B JUMP JUMPDEST PUSH1 0x40 MLOAD DUP1 SWAP2 SUB SWAP1 RETURN JUMPDEST PUSH1 0x60 DUP4 MLOAD DUP4 LT PUSH2 0x154 JUMPI PUSH1 0x40 MLOAD PUSH32 0x8C379A000000000000000000000000000000000000000000000000000000000 DUP2 MSTORE PUSH1 0x4 ADD PUSH2 0x14B SWAP1 PUSH2 0x6EE JUMP JUMPDEST PUSH1 0x40 MLOAD DUP1 SWAP2 SUB SWAP1 REVERT JUMPDEST PUSH0 DUP5 MLOAD GT ISZERO PUSH2 0x17E JUMPI DUP2 DUP5 DUP5 DUP2 MLOAD DUP2 LT PUSH2 0x171 JUMPI PUSH2 0x170 PUSH2 0x70C JUMP JUMPDEST JUMPDEST PUSH1 0x20 MUL PUSH1 0x20 ADD ADD DUP2 DUP2 MSTORE POP POP JUMPDEST DUP4 SWAP1 POP SWAP4 SWAP3 POP POP POP JUMP JUMPDEST PUSH1 0x60 PUSH0 DUP1 SLOAD DUP1 PUSH1 0x20 MUL PUSH1 0x20 ADD PUSH1 0x40 MLOAD SWAP1 DUP2 ADD PUSH1 0x40 MSTORE DUP1 SWAP3 SWAP2 SWAP1 DUP2 DUP2 MSTORE PUSH1 0x20 ADD DUP3 DUP1 SLOAD DUP1 ISZERO PUSH2 0x1D3 JUMPI PUSH1 0x20 MUL DUP3 ADD SWAP2 SWAP1 PUSH0 MSTORE PUSH1 0x20 PUSH0 KECCAK256 SWAP1 JUMPDEST DUP2 SLOAD DUP2 MSTORE PUSH1 0x20 ADD SWAP1 PUSH1 0x1 ADD SWAP1 DUP1 DUP4 GT PUSH2 0x1BF JUMPI JUMPDEST POP POP POP POP POP SWAP1 POP SWAP1 JUMP JUMPDEST DUP1 PUSH0 SWAP1 DUP1 MLOAD SWAP1 PUSH1 0x20 ADD SWAP1 PUSH2 0x1F2 SWAP3 SWAP2 SWAP1 PUSH2 0x27F JUMP JUMPDEST POP POP JUMP JUMPDEST PUSH0 DUP1 SLOAD SWAP1 POP DUP3 LT PUSH2 0x23C JUMPI PUSH1 0x40 MLOAD PUSH32 0x8C379A000000000000000000000000000000000000000000000000000000000 DUP2 MSTORE PUSH1 0x4 ADD PUSH2 0x233 SWAP1 PUSH2 0x6EE JUMP JUMPDEST PUSH1 0x40 MLOAD DUP1 SWAP2 SUB SWAP1 REVERT JUMPDEST DUP1 PUSH0 DUP4 DUP2 SLOAD DUP2 LT PUSH2 0x250 JUMPI PUSH2 0x24F PUSH2 0x70C JUMP JUMPDEST JUMPDEST SWAP1 PUSH0 MSTORE PUSH1 0x20 PUSH0 KECCAK256 ADD DUP2 SWAP1 SSTORE POP POP POP JUMP JUMPDEST PUSH0 DUP2 DUP2 SLOAD DUP2 LT PUSH2 0x26E JUMPI PUSH0 DUP1 REVERT JUMPDEST SWAP1 PUSH0 MSTORE PUSH1 0x20 PUSH0 KECCAK256 ADD PUSH0 SWAP2 POP SWAP1 POP SLOAD DUP2 JUMP JUMPDEST DUP3 DUP1 SLOAD DUP3 DUP3 SSTORE SWAP1 PUSH0 MSTORE PUSH1 0x20 PUSH0 KECCAK256 SWAP1 DUP2 ADD SWAP3 DUP3 ISZERO PUSH2 0x2B9 JUMPI SWAP2 PUSH1 0x20 MUL DUP3 ADD JUMPDEST DUP3 DUP2 GT ISZERO PUSH2 0x2B8 JUMPI DUP3 MLOAD DUP3 SSTORE SWAP2 PUSH1 0x20 ADD SWAP2 SWAP1 PUSH1 0x1 ADD SWAP1 PUSH2 0x29D JUMP JUMPDEST JUMPDEST POP SWAP1 POP PUSH2 0x2C6 SWAP2 SWAP1 PUSH2 0x2CA JUMP JUMPDEST POP SWAP1 JUMP JUMPDEST JUMPDEST DUP1 DUP3 GT ISZERO PUSH2 0x2E1 JUMPI PUSH0 DUP2 PUSH0 SWAP1 SSTORE POP PUSH1 0x1 ADD PUSH2 0x2CB JUMP JUMPDEST POP SWAP1 JUMP JUMPDEST PUSH0 PUSH1 0x40 MLOAD SWAP1 POP SWAP1 JUMP JUMPDEST PUSH0 DUP1 REVERT JUMPDEST PUSH0 DUP1 REVERT JUMPDEST PUSH0 DUP1 REVERT JUMPDEST PUSH0 PUSH1 0x1F NOT PUSH1 0x1F DUP4 ADD AND SWAP1 POP SWAP2 SWAP1 POP JUMP JUMPDEST PUSH32 0x4E487B7100000000000000000000000000000000000000000000000000000000 PUSH0 MSTORE PUSH1 0x41 PUSH1 0x4 MSTORE PUSH1 0x24 PUSH0 REVERT JUMPDEST PUSH2 0x340 DUP3 PUSH2 0x2FA JUMP JUMPDEST DUP2 ADD DUP2 DUP2 LT PUSH8 0xFFFFFFFFFFFFFFFF DUP3 GT OR ISZERO PUSH2 0x35F JUMPI PUSH2 0x35E PUSH2 0x30A JUMP JUMPDEST JUMPDEST DUP1 PUSH1 0x40 MSTORE POP POP POP JUMP JUMPDEST PUSH0 PUSH2 0x371 PUSH2 0x2E5 JUMP JUMPDEST SWAP1 POP PUSH2 0x37D DUP3 DUP3 PUSH2 0x337 JUMP JUMPDEST SWAP2 SWAP1 POP JUMP JUMPDEST PUSH0 PUSH8 0xFFFFFFFFFFFFFFFF DUP3 GT ISZERO PUSH2 0x39C JUMPI PUSH2 0x39B PUSH2 0x30A JUMP JUMPDEST JUMPDEST PUSH1 0x20 DUP3 MUL SWAP1 POP PUSH1 0x20 DUP2 ADD SWAP1 POP SWAP2 SWAP1 POP JUMP JUMPDEST PUSH0 DUP1 REVERT JUMPDEST PUSH0 DUP2 SWAP1 POP SWAP2 SWAP1 POP JUMP JUMPDEST PUSH2 0x3C3 DUP2 PUSH2 0x3B1 JUMP JUMPDEST DUP2 EQ PUSH2 0x3CD JUMPI PUSH0 DUP1 REVERT JUMPDEST POP JUMP JUMPDEST PUSH0 DUP2 CALLDATALOAD SWAP1 POP PUSH2 0x3DE DUP2 PUSH2 0x3BA JUMP JUMPDEST SWAP3 SWAP2 POP POP JUMP JUMPDEST PUSH0 PUSH2 0x3F6 PUSH2 0x3F1 DUP5 PUSH2 0x382 JUMP JUMPDEST PUSH2 0x368 JUMP JUMPDEST SWAP1 POP DUP1 DUP4 DUP3 MSTORE PUSH1 0x20 DUP3 ADD SWAP1 POP PUSH1 0x20 DUP5 MUL DUP4 ADD DUP6 DUP2 GT ISZERO PUSH2 0x419 JUMPI PUSH2 0x418 PUSH2 0x3AD JUMP JUMPDEST JUMPDEST DUP4 JUMPDEST DUP2 DUP2 LT ISZERO PUSH2 0x442 JUMPI DUP1 PUSH2 0x42E DUP9 DUP3 PUSH2 0x3D0 JUMP JUMPDEST DUP5 MSTORE PUSH1 0x20 DUP5 ADD SWAP4 POP POP PUSH1 0x20 DUP2 ADD SWAP1 POP PUSH2 0x41B JUMP JUMPDEST POP POP POP SWAP4 SWAP3 POP POP POP JUMP JUMPDEST PUSH0 DUP3 PUSH1 0x1F DUP4 ADD SLT PUSH2 0x460 JUMPI PUSH2 0x45F PUSH2 0x2F6 JUMP JUMPDEST JUMPDEST DUP2 CALLDATALOAD PUSH2 0x470 DUP5 DUP3 PUSH1 0x20 DUP7 ADD PUSH2 0x3E4 JUMP JUMPDEST SWAP2 POP POP SWAP3 SWAP2 POP POP JUMP JUMPDEST PUSH0 DUP1 PUSH0 PUSH1 0x60 DUP5 DUP7 SUB SLT ISZERO PUSH2 0x490 JUMPI PUSH2 0x48F PUSH2 0x2EE JUMP JUMPDEST JUMPDEST PUSH0 DUP5 ADD CALLDATALOAD PUSH8 0xFFFFFFFFFFFFFFFF DUP2 GT ISZERO PUSH2 0x4AD JUMPI PUSH2 0x4AC PUSH2 0x2F2 JUMP JUMPDEST JUMPDEST PUSH2 0x4B9 DUP7 DUP3 DUP8 ADD PUSH2 0x44C JUMP JUMPDEST SWAP4 POP POP PUSH1 0x20 PUSH2 0x4CA DUP7 DUP3 DUP8 ADD PUSH2 0x3D0 JUMP JUMPDEST SWAP3 POP POP PUSH1 0x40 PUSH2 0x4DB DUP7 DUP3 DUP8 ADD PUSH2 0x3D0 JUMP JUMPDEST SWAP2 POP POP SWAP3 POP SWAP3 POP SWAP3 JUMP JUMPDEST PUSH0 DUP2 MLOAD SWAP1 POP SWAP2 SWAP1 POP JUMP JUMPDEST PUSH0 DUP3 DUP3 MSTORE PUSH1 0x20 DUP3 ADD SWAP1 POP SWAP3 SWAP2 POP POP JUMP JUMPDEST PUSH0 DUP2 SWAP1 POP PUSH1 0x20 DUP3 ADD SWAP1 POP SWAP2 SWAP1 POP JUMP JUMPDEST PUSH2 0x517 DUP2 PUSH2 0x3B1 JUMP JUMPDEST DUP3 MSTORE POP POP JUMP JUMPDEST PUSH0 PUSH2 0x528 DUP4 DUP4 PUSH2 0x50E JUMP JUMPDEST PUSH1 0x20 DUP4 ADD SWAP1 POP SWAP3 SWAP2 POP POP JUMP JUMPDEST PUSH0 PUSH1 0x20 DUP3 ADD SWAP1 POP SWAP2 SWAP1 POP JUMP JUMPDEST PUSH0 PUSH2 0x54A DUP3 PUSH2 0x4E5 JUMP JUMPDEST PUSH2 0x554 DUP2 DUP6 PUSH2 0x4EF JUMP JUMPDEST SWAP4 POP PUSH2 0x55F DUP4 PUSH2 0x4FF JUMP JUMPDEST DUP1 PUSH0 JUMPDEST DUP4 DUP2 LT ISZERO PUSH2 0x58F JUMPI DUP2 MLOAD PUSH2 0x576 DUP9 DUP3 PUSH2 0x51D JUMP JUMPDEST SWAP8 POP PUSH2 0x581 DUP4 PUSH2 0x534 JUMP JUMPDEST SWAP3 POP POP PUSH1 0x1 DUP2 ADD SWAP1 POP PUSH2 0x562 JUMP JUMPDEST POP DUP6 SWAP4 POP POP POP POP SWAP3 SWAP2 POP POP JUMP JUMPDEST PUSH0 PUSH1 0x20 DUP3 ADD SWAP1 POP DUP2 DUP2 SUB PUSH0 DUP4 ADD MSTORE PUSH2 0x5B4 DUP2 DUP5 PUSH2 0x540 JUMP JUMPDEST SWAP1 POP SWAP3 SWAP2 POP POP JUMP JUMPDEST PUSH0 PUSH1 0x20 DUP3 DUP5 SUB SLT ISZERO PUSH2 0x5D1 JUMPI PUSH2 0x5D0 PUSH2 0x2EE JUMP JUMPDEST JUMPDEST PUSH0 DUP3 ADD CALLDATALOAD PUSH8 0xFFFFFFFFFFFFFFFF DUP2 GT ISZERO PUSH2 0x5EE JUMPI PUSH2 0x5ED PUSH2 0x2F2 JUMP JUMPDEST JUMPDEST PUSH2 0x5FA DUP5 DUP3 DUP6 ADD PUSH2 0x44C JUMP JUMPDEST SWAP2 POP POP SWAP3 SWAP2 POP POP JUMP JUMPDEST PUSH0 DUP1 PUSH1 0x40 DUP4 DUP6 SUB SLT ISZERO PUSH2 0x619 JUMPI PUSH2 0x618 PUSH2 0x2EE JUMP JUMPDEST JUMPDEST PUSH0 PUSH2 0x626 DUP6 DUP3 DUP7 ADD PUSH2 0x3D0 JUMP JUMPDEST SWAP3 POP POP PUSH1 0x20 PUSH2 0x637 DUP6 DUP3 DUP7 ADD PUSH2 0x3D0 JUMP JUMPDEST SWAP2 POP POP SWAP3 POP SWAP3 SWAP1 POP JUMP JUMPDEST PUSH0 PUSH1 0x20 DUP3 DUP5 SUB SLT ISZERO PUSH2 0x656 JUMPI PUSH2 0x655 PUSH2 0x2EE JUMP JUMPDEST JUMPDEST PUSH0 PUSH2 0x663 DUP5 DUP3 DUP6 ADD PUSH2 0x3D0 JUMP JUMPDEST SWAP2 POP POP SWAP3 SWAP2 POP POP JUMP JUMPDEST PUSH2 0x675 DUP2 PUSH2 0x3B1 JUMP JUMPDEST DUP3 MSTORE POP POP JUMP JUMPDEST PUSH0 PUSH1 0x20 DUP3 ADD SWAP1 POP PUSH2 0x68E PUSH0 DUP4 ADD DUP5 PUSH2 0x66C JUMP JUMPDEST SWAP3 SWAP2 POP POP JUMP JUMPDEST PUSH0 DUP3 DUP3 MSTORE PUSH1 0x20 DUP3 ADD SWAP1 POP SWAP3 SWAP2 POP POP JUMP JUMPDEST PUSH32 0x496E646578206F7574206F6620626F756E647300000000000000000000000000 PUSH0 DUP3 ADD MSTORE POP JUMP JUMPDEST PUSH0 PUSH2 0x6D8 PUSH1 0x13 DUP4 PUSH2 0x694 JUMP JUMPDEST SWAP2 POP PUSH2 0x6E3 DUP3 PUSH2 0x6A4 JUMP JUMPDEST PUSH1 0x20 DUP3 ADD SWAP1 POP SWAP2 SWAP1 POP JUMP JUMPDEST PUSH0 PUSH1 0x20 DUP3 ADD SWAP1 POP DUP2 DUP2 SUB PUSH0 DUP4 ADD MSTORE PUSH2 0x705 DUP2 PUSH2 0x6CC JUMP JUMPDEST SWAP1 POP SWAP2 SWAP1 POP JUMP JUMPDEST PUSH32 0x4E487B7100000000000000000000000000000000000000000000000000000000 PUSH0 MSTORE PUSH1 0x32 PUSH1 0x4 MSTORE PUSH1 0x24 PUSH0 REVERT INVALID LOG2 PUSH5 0x6970667358 0x22 SLT KECCAK256 SMOD 0xD8 0xB2 BALANCE 0xF8 SWAP6 CALLER PREVRANDAO 0xBE 0xD8 0x5E DUP10 SWAP15 PUSH3 0x5D33F 0xDC CALLCODE 0xC6 SWAP11 SWAP2 0xCF 0xB3 0xFB 0xA9 0xAF CALL 0xAF EQ PUSH14 0x9F64736F6C634300081400330000 "
		},
		"gasEstimates": {
			"creation": {
				"codeDepositCost": "380600",
				"executionCost": "416",
				"totalCost": "381016"
			},
			"external": {
				"data(uint256)": "infinite",
				"getData()": "infinite",
				"modifyMemoryData(uint256[],uint256,uint256)": "infinite",
				"modifyStorageData(uint256,uint256)": "infinite",
				"updateData(uint256[])": "infinite"
			}
		},
		"methodIdentifiers": {
			"data(uint256)": "f0ba8440",
			"getData()": "3bc5de30",
			"modifyMemoryData(uint256[],uint256,uint256)": "226bd255",
			"modifyStorageData(uint256,uint256)": "e6b80ce6",
			"updateData(uint256[])": "aa44269d"
		}
	},
	"abi": [
		{
			"inputs": [
				{
					"internalType": "uint256",
					"name": "",
					"type": "uint256"
				}
			],
			"name": "data",
			"outputs": [
				{
					"internalType": "uint256",
					"name": "",
					"type": "uint256"
				}
			],
			"stateMutability": "view",
			"type": "function"
		},
		{
			"inputs": [],
			"name": "getData",
			"outputs": [
				{
					"internalType": "uint256[]",
					"name": "",
					"type": "uint256[]"
				}
			],
			"stateMutability": "nonpayable",
			"type": "function"
		},
		{
			"inputs": [
				{
					"internalType": "uint256[]",
					"name": "memoryData",
					"type": "uint256[]"
				},
				{
					"internalType": "uint256",
					"name": "index",
					"type": "uint256"
				},
				{
					"internalType": "uint256",
					"name": "value",
					"type": "uint256"
				}
			],
			"name": "modifyMemoryData",
			"outputs": [
				{
					"internalType": "uint256[]",
					"name": "",
					"type": "uint256[]"
				}
			],
			"stateMutability": "nonpayable",
			"type": "function"
		},
		{
			"inputs": [
				{
					"internalType": "uint256",
					"name": "index",
					"type": "uint256"
				},
				{
					"internalType": "uint256",
					"name": "value",
					"type": "uint256"
				}
			],
			"name": "modifyStorageData",
			"outputs": [],
			"stateMutability": "nonpayable",
			"type": "function"
		},
		{
			"inputs": [
				{
					"internalType": "uint256[]",
					"name": "newData",
					"type": "uint256[]"
				}
			],
			"name": "updateData",
			"outputs": [],
			"stateMutability": "nonpayable",
			"type": "function"
		}
	]
}